:0400000087EF1FF077
:1000080000C019F001C018F00BC017F00CC016F0B2
:100018000DC015F0F5CF1DF0F8CF1AF0F7CF1BF093
:10002800F6CF1CF0F2A21AD0F2921F4A202A7D0EB7
:1000380000018C6F000E8D6FBA0E8E6F400E8F6FA1
:10004800000E906F1FC091F020C092F0FDEC1EF0E2
:100058007D0E8C6F000E8D6F6CEC1FF0F0A018D029
:100068000001F0901F6A206A7D0E8C6F000E8D6F64
:10007800C20E8E6F400E8F6F000E906F916B926B59
:10008800FDEC1EF07D0E8C6F000E8D6F6CEC1FF07A
:100098009EAA9BD09E9A22EC1FF000C06BF00050E5
:1000A8003E180DE13F6A6BC078F0610EE16E000EFC
:1000B800E26E3F50E126D8B0E22A6BC0E6FF0001AD
:1000C8006B5121180CE16BC060F0610EE16E000EFF
:1000D800E26E3F50E126D8B0E22A6BC0E6FF7851C5
:1000E8003E1809E16051211806E1010E1E6E3F6AB3
:1000F800786B606B0FD0610EE16E000EE26E3F50C0
:10010800E126D8B0E22A6BC0E6FF3F2A3F500A0832
:10011800D8A03F6A1E50010A58E1610E8C6F000E8C
:100128008D6F320E8E6F000E8F6F2BEC1FF000C09C
:1001380097F001C098F0380E0001996F000E9A6F81
:10014800050E9B6F55EC0EF0000E011802E1000E33
:10015800001809E18D80220E00018C6F000E8D6F52
:100168006CEC1FF02ED00001610E8C6F000E8D6FAD
:100178002C0E8E6F000E8F6F2BEC1FF000C097F0C7
:1001880001C098F04F0E0001996F000E9A6F050E8E
:100198009B6F55EC0EF0000E011802E1000E0018DE
:1001A80009E18D90550E00018C6F000E8D6F6CEC7F
:1001B8001FF007D00001470E8C6F000E8D6F6CEC9E
:1001C8001FF01E6A3F6AB9EC1EF01DC0F5FF1AC089
:1001D800F8FF1BC0F7FF1CC0F6FF19C000F018C0DD
:1001E80001F017C00BF016C00CF015C00DF011008F
:0801F8000AAE029E000E120087
:100200000B840BAE0BEF01F0010E036E026A016A64
:0A021000006A0A360232FF0E1200E7
:0E021A00026A016A006A086A036A000E120096
:100228000B820BAE1EEF01F00368026801680068DC
:080238000A360232FF0E12002B
:100240000CB062EF01F00CA208EF02F00E6A000E93
:10025000026479EF01F0F00E0214D8A444EF01F02B
:10026000023A01380F0B02260138F00B016E0038FC
:100270000F0B01260038F00B006E08380F0B00261C
:100280000838F00B086E0E84D89002BE5DEF01F0C6
:1002900008360036013602360E2A02BE5DEF01F046
:1002A00008360036013602360E2A02BE5DEF01F036
:1002B00008360036013602360E2A0E500364FEEF71
:1002C00001F0035E0BBC08AE03EF02F0D880800E95
:1002D00008640030000E002201220222D8A003EFA1
:1002E00002F0023201320032034A08EF02F003EF5B
:1002F00002F001C002F000C001F008C000F0086A7E
:10030000000E0E860264B0EF01F0F00E0214D8A4C5
:1003100098EF01F0023A01380F0B02260138F00B7A
:10032000016E00380F0B01260038F00B006E0E84B2
:10033000D89002BE5DEF01F00036013602360E2A7B
:1003400002BE5DEF01F00036013602360E2A02BE13
:100350005DEF01F00036013602360E2A5DEF01F046
:1003600001C002F000C001F0006A000E0E960E8877
:100370000264DDEF01F0F00E0214D8A4C8EF01F022
:10038000023A01380F0B02260138F00B016E0E8481
:10039000D89002BE5DEF01F0013602360E2A02BE91
:1003A0005DEF01F0013602360E2A02BE5DEF01F06C
:1003B000013602360E2A5DEF01F001C002F0016A3B
:1003C000000E0E8602640DEF02F0F00E0214D8A4A7
:1003D000ECEF01F0023A0E84D89002BE5DEF01F01E
:1003E00002360E2A02BE5DEF01F002360E2A02BE70
:1003F0005DEF01F002360E2A5DEF01F0010E0C6E8A
:10040000FFDE10EF02F0020E0C6EF6DE10EF02F0CF
:10041000040E0C6E09DF10EF02F0080E0C6EFDDE0C
:020420001200C8
:10042200086A080E0C6E003408360450085ED8B014
:0E04320002D00826D89000360C2EF5D7120006
:080440000B6A0B86FF0E12008F
:100448000B800BAE30EF02F0026A0AAEFF0E026EAE
:0C045800016E006E0A360232FF0E120028
:10046400086A096A000E07620364B7EF02F00250DB
:1004740006180A6E075003267E0ED8A048EF02F035
:10048400035ED8B0BBEF02F04CEF02F0035ED8A0DD
:10049400BFEF02F0028E068E02C00EF001C00BF018
:1004A40000C00DF000500402F4CF0CF0015005021E
:1004B400F4CF00F0F3CF08F00402F3500C26F4500C
:1004C4000822000E00220D500502F3500C26F450B1
:1004D4000822000E002202500402F3500826F450B1
:1004E400002202500502016A000E0122F350002688
:1004F400F45001220D500602F3500826F450002255
:10050400026A000E012202220B500602F35000265A
:10051400F4500122000E02220E500602F35001266E
:10052400F450022202BE9FEF02F008360036013674
:1005340002360306D8B4BFEF02F0B2EF02F0D8805F
:10054400800E08640030000E002201220222D8A08E
:10055400B2EF02F0023201320032034ABBEF02F082
:100564000AAE029E000EC1EF02F0010E54DEC1EF8E
:1005740002F0020E57DEC1EF02F0040E3FDE12005D
:10058400025006180E6E086A096A0B6A0350076463
:10059400B5EF03F006500A6E068E028E03500B6E02
:1005A4000750036E000E0B6405EF03F00B50075E5B
:1005B400D8B4A6EF03F0070E076474EF03F0075EE8
:1005C40000C008F001C000F002C001F0026A074E4A
:1005D400A6EF03F0076449EF03F0075E00C008F0DC
:1005E40001C000F0016A074EA6EF03F0076427EF8D
:1005F40003F0075E00C008F0006A074EA6EF03F0A0
:1006040007640EEF03F00AC002F005C001F004C055
:1006140000F0086ACFEF04F0030E076419EF03F04B
:10062400075E08380F0B086E074EA6EF03F0D8904C
:100634000832074EA6EF03F0D8900832074EA6EF13
:1006440003F0D8900832A6EF03F0030E076438EFE6
:1006540003F0075E08380F0B086E0038F00B08260D
:1006640000380F0B006E074EA6EF03F0D89000324F
:100674000832074EA6EF03F0D89000320832074E36
:10068400A6EF03F0D89000320832A6EF03F0030E71
:10069400076460EF03F0075E08380F0B086E00383C
:1006A400F00B082600380F0B006E0138F00B002603
:1006B40001380F0B016E074EA6EF03F0D8900132FC
:1006C40000320832074EA6EF03F0D8900132003210
:1006D4000832074EA6EF03F0D890013200320832F8
:1006E400A6EF03F0030E076491EF03F0075E0838EA
:1006F4000F0B086E0038F00B082600380F0B006E45
:100704000138F00B002601380F0B016E0238F00B94
:10071400012602380F0B026E074EA6EF03F0D890A5
:100724000232013200320832074EA6EF03F0D890AD
:100734000232013200320832074EA6EF03F0D8909D
:100744000232013200320832096A000E0EAE9AEF0C
:1007540004F0081E001E011E021E082A00220122A7
:1007640002229AEF04F00750D8A4BBEF03F0CFEFB6
:1007740004F0096A02C00AF0028E068E0750035C78
:10078400076ED8B48DEF04F0070E07645BEF04F036
:10079400075E0450096E0550046E0650056E066A25
:1007A400074E8DEF04F0070E076430EF04F0075E88
:1007B4000450096E0550046E056A074E8DEF04F06F
:1007C400070E07640EEF04F0075E0450096E046A16
:1007D400074E8DEF04F0070E0764F5EF03F00AC02F
:1007E40002F0CFEF04F0030E076400EF04F0075E9D
:1007F40009380F0B096E074E8DEF04F0D8900932BB
:10080400074E8DEF04F0D8900932074E8DEF04F0B7
:10081400D89009328DEF04F0030E07641FEF04F043
:10082400075E09380F0B096E0438F00B09260438EB
:100834000F0B046E074E8DEF04F0D890043209328A
:10084400074E8DEF04F0D89004320932074E8DEF35
:1008540004F0D890043209328DEF04F0030E0764DB
:1008640047EF04F0075E09380F0B096E0438F00BEC
:10087400092604380F0B046E0538F00B04260538DE
:100884000F0B056E074E8DEF04F0D890053204323D
:100894000932074E8DEF04F0D89005320432093244
:1008A400074E8DEF04F0D8900532043209328DEFF3
:1008B40004F0030E076478EF04F0075E09380F0BA9
:1008C400096E0438F00B092604380F0B046E053842
:1008D400F00B042605380F0B056E0638F00B0526C1
:1008E40006380F0B066E074E8DEF04F0D8900632D3
:1008F400053204320932074E8DEF04F0D8900632E7
:10090400053204320932074E8DEF04F0D8900632D6
:10091400053204320932086A000E0EAE9AEF04F072
:10092400091E041E051E061E092A0422052206228B
:1009340009500826045000220550012206500222C4
:100944000EBEB1EF04F0D8A0C0EF04F002320132C1
:1009540000320832033EC0EF04F0CAEF04F0D8B00E
:10096400C5EF04F0000E081E001E011E021E082A18
:100974000022012202220A7EC5EF04F0010E0C6E51
:100984005DDCD1EF04F0020E0C6E58DCD1EF04F004
:10099400040E0C6E47DCD1EF04F0000E0C6E120056
:1009A4000134083609360450085E0550D8A0053CC9
:1009B400095E003601360F0E0C6E01340836093616
:1009C400045000A006D0085E0550D8A0053C095E7E
:1009D40005D008260550D8B0053C09260036013656
:1009E4000C2EEBD700B006D0045008260550D8B022
:0809F400053C09260000120079
:1009FC000D6A086A0050D8B4000C04180A6E0ABEBE
:100A0C000D1E0B6A04AE02D0041E042A00AE02D0E6
:100A1C00001E002A005004100A6E0ABE1FD004509B
:100A2C00085E003600340836045008260036060EE0
:100A3C000C6E00340836045000B0085E00A0082686
:100A4C0000360C2EF6D700A008260BB015D00DAE34
:100A5C00000C001E002A081E082A000C04AE09D047
:100A6C0000BE04D00050086E006AF1D7006A002A5C
:100A7C00000C001E0B2AD3D7082A0450085CD8A4FB
:0E0A8C00E6D7086A002A00AEE2D7FF0C12007F
:100A9A000050086E0150006E0250016E0350026E43
:100AAA00036A0B6A0C6A9E0E036E0A6A020E0C6EC9
:060ABA0020EC01F0120027
:100AC0000B6A0A6A096A086A0E6A03340836045017
:100AD000085E0550D8A0053C095E0650D8A0063C2B
:100AE0000A5E0750D8A0073C0B5EE86AD8A0010E4A
:100AF0000E5E0336070E0C6E0334083609360A36CE
:100B00000B360E36045003A012D0085E0550D8A054
:100B1000053C095E0650D8A0063C0A5E0750D8A0E6
:100B2000073C0B5EE86AD8A0010E0E5E11D00826C5
:100B30000550D8B0053C09260650D8B0063C0A2618
:100B40000750D8B0073C0B26E86AD8B0010E0E2635
:100B500003360C2ED1D70234083609360A360B3646
:100B60000E36045003A012D0085E0550D8A0053CF4
:100B7000095E0650D8A0063C0A5E0750D8A0073C84
:100B80000B5EE86AD8A0010E0E5E11D00826055053
:100B9000D8B0053C09260650D8B0063C0A260750B6
:100BA000D8B0073C0B26E86AD8B0010E0E260236F4
:100BB000070E0C6E0234083609360A360B360E362E
:100BC000045002A012D0085E0550D8A0053C095E72
:100BD0000650D8A0063C0A5E0750D8A0073C0B5E22
:100BE000E86AD8A0010E0E5E11D008260550D8B0D4
:100BF000053C09260650D8B0063C0A260750D8B056
:100C0000073C0B26E86AD8B0010E0E2602360C2EE1
:100C1000D1D70134083609360A360B360E36045061
:100C200002A012D0085E0550D8A0053C095E06500F
:100C3000D8A0063C0A5E0750D8A0073C0B5EE86AC5
:100C4000D8A0010E0E5E11D008260550D8B0053C84
:100C500009260650D8B0063C0A260750D8B0073CF3
:100C60000B26E86AD8B0010E0E260136070E0C6E70
:100C70000134083609360A360B360E36045001A008
:100C800012D0085E0550D8A0053C095E0650D8A0D9
:100C9000063C0A5E0750D8A0073C0B5EE86AD8A065
:100CA000010E0E5E11D008260550D8B0053C09266D
:100CB0000650D8B0063C0A260750D8B0073C0B2691
:100CC000E86AD8B0010E0E2601360C2ED1D70034BA
:100CD000083609360A360B360E36045001A012D0FB
:100CE000085E0550D8A0053C095E0650D8A0063C19
:100CF0000A5E0750D8A0073C0B5EE86AD8A0010E38
:100D00000E5E11D008260550D8B0053C09260650C5
:100D1000D8B0063C0A260750D8B0073C0B26E86A34
:100D2000D8B0010E0E260036070E0C6E00340836C1
:100D300009360A360B360E36045000A012D0085E73
:100D40000550D8A0053C095E0650D8A0063C0A5EB6
:100D50000750D8A0073C0B5EE86AD8A0010E0E5ED3
:100D600011D008260550D8B0053C09260650D8B049
:100D7000063C0A260750D8B0073C0B26E86AD8B0D4
:100D8000010E0E2600360C2ED1D700B00ED0045026
:100D900008260550D8B0053C09260650D8B0063CB8
:0C0DA0000A260750D8B0073C0B261200B2
:100DAC00800E0001BF19006E800E000A005CD8B0E6
:100DBC0067D1BF510008016E01C0BFF0800E011851
:100DCC00006E800E6E0A005CD8A0BCD0640E046E5F
:100DDC00BFC000F00DDE120E0024056E000E00BE2A
:100DEC00FF0E066E000E062205C000F006C001F0D4
:100DFC00000E06BEFF0E026E036E0036009001362A
:100E0C000236033600360090013602360336B80E31
:100E1C000024F66E3F0E0120F76E000E0220F86ED5
:100E2C000900F5CFC0F00900F5CFC1F00900F5CFEE
:100E3C00C2F00900F5CFC3F0640E046EBFC000F021
:100E4C00D7DD08C000F00A0E046ED2DD090E0024B6
:100E5C00056E000E00BEFF0E066E000E062205C0CB
:100E6C0000F006C001F0000E06BEFF0E026E036E0F
:100E7C0000360090013602360336003600900136FB
:100E8C0002360336B80E0024F66E3F0E0120F76EC4
:100E9C00000E0220F86E0900F5CF00F00900F5CF26
:100EAC0001F00900F5CF02F00900F5CF03F0C0C046
:100EBC0004F0C1C005F0C2C006F0C3C007F032ECAC
:100ECC0002F000C0C0F001C0C1F002C0C2F003C00B
:100EDC00C3F00A0E046EBFC000F08ADD08C000F03B
:100EEC0000C001F0000E00BEFF0E026E036E046E19
:100EFC000136019002360336043601360190023673
:100F0C0003360436B80E0124F66E3F0E0220F76E3F
:100F1C00000E0320F86E0900F5CF00F00900F5CFA4
:100F2C0001F00900F5CF02F00900F5CF03F0C0C0C5
:100F3C0004F0C1C005F0C2C006F0C3C007F032EC2B
:100F4C0002F001D2800E0A0A006E800EBF19005CFE
:100F5C006FE20A0E046EBFC000F04ADD090E0024D9
:100F6C00056E000E00BEFF0E066E000E062205C0BA
:100F7C0000F006C001F0000E06BEFF0E026E036EFE
:100F8C0000360090013602360336003600900136EA
:100F9C0002360336B80E0024F66E3F0E0120F76EB3
:100FAC00000E0220F86E0900F5CFC0F00900F5CF55
:100FBC00C1F00900F5CFC2F00900F5CFC3F00A0E5D
:100FCC00046EBFC000F014DD08C000F000C001F0DA
:100FDC00000E00BEFF0E026E036E046E0136019011
:100FEC0002360336043601360190023603360436D7
:100FFC00B80E0124F66E3F0E0220F76E000E032091
:10100C00F86E0900F5CF00F00900F5CF01F00900EA
:10101C00F5CF02F00900F5CF03F0C0C004F0C1C059
:10102C0005F0C2C006F0C3C007F032EC02F08BD161
:10103C00BFC000F0000EBFBFFF0E016E026E036E4C
:10104C000036009001360236033600360090013629
:10105C0002360336B80E0024F66E3F0E0120F76EF2
:10106C00000E0220F86E0900F5CF00F00900F5CF54
:10107C0001F00900F5CF02F00900F5CF03F063D1C0
:10108C00800EBF19006E800E6E0A005CD8A0BCD01A
:10109C00640E046EBFC000F0ABDC120E0024056EB3
:1010AC00000E00BEFF0E066E000E062205C000F0FC
:1010BC0006C001F0000E06BEFF0E026E036E003677
:1010CC0000900136023603360036009001360236A7
:1010DC000336EC0E0024F66E3F0E0120F76E000E68
:1010EC000220F86E0900F5CFC0F00900F5CFC1F071
:1010FC000900F5CFC2F00900F5CFC3F0640E046E01
:10110C00BFC000F075DC08C000F00A0E046E70DC85
:10111C00090E0024056E000E00BEFF0E066E000EBA
:10112C00062205C000F006C001F0000E06BEFF0E40
:10113C00026E036E0036009001360236033600361E
:10114C000090013602360336EC0E0024F66E3F0E8C
:10115C000120F76E000E0220F86E0900F5CF00F0AA
:10116C000900F5CF01F00900F5CF02F00900F5CF29
:10117C0003F0C0C004F0C1C005F0C2C006F0C3C08B
:10118C0007F032EC02F000C0C0F001C0C1F002C0A8
:10119C00C2F003C0C3F00A0E046EBFC000F028DC1E
:1011AC0008C000F000C001F0000E00BEFF0E026E81
:1011BC00036E046E01360190023603360436013696
:1011CC000190023603360436EC0E0124F66E3F0E07
:1011DC000220F76E000E0320F86E0900F5CF00F028
:1011EC000900F5CF01F00900F5CF02F00900F5CFA9
:1011FC0003F0C0C004F0C1C005F0C2C006F0C3C00B
:10120C0007F032EC02F09FD0800E0A0A006E800EBE
:10121C00BF19005C71E20A0E046EBFC000F0FEEC58
:10122C0004F0090E0024056E000E00BEFF0E066EC3
:10123C00000E062205C000F006C001F0000E06BE2E
:10124C00FF0E026E036E0036009001360236033636
:10125C0000360090013602360336EC0E0024F66E92
:10126C003F0E0120F76E000E0220F86E0900F5CF3C
:10127C00C0F00900F5CFC1F00900F5CFC2F00900AC
:10128C00F5CFC3F00A0E046EBFC000F0FEEC04F004
:10129C0008C000F000C001F0000E00BEFF0E026E90
:1012AC00036E046E013601900236033604360136A5
:1012BC000190023603360436EC0E0124F66E3F0E16
:1012CC000220F76E000E0320F86E0900F5CF00F037
:1012DC000900F5CF01F00900F5CF02F00900F5CFB8
:1012EC0003F0C0C004F0C1C005F0C2C006F0C3C01A
:1012FC0007F032EC02F027D0BFC000F0000EBFBFE9
:10130C00FF0E016E026E036E00360090013602363F
:10131C00033600360090013602360336EC0E0024FC
:10132C00F66E3F0E0120F76E000E0220F86E0900DB
:10133C00F5CF00F00900F5CF01F00900F5CF02F070
:08134C000900F5CF03F01200C7
:08135400067EC2EC02F012005B
:10135C000B6A0C6A086A0350D8B432EF0AF002C068
:10136C000AF0028E9E0E035E03AE22EF0AF0036CAF
:10137C00080E035CD8A0EFEF09F0036E083600C02E
:10138C0008F001C000F002C001F0026A080E035C14
:10139C00D8A0EFEF09F0036E083600C008F001C0CA
:1013AC0000F0016A080E035CD8A0EFEF09F0036EA1
:1013BC00083600C008F0006A080E035CD8A0EFEFF6
:1013CC0009F0036E0836086A0350D8A4D890FBEFD6
:1013DC0009F00350D8B4FBEF09F0D8900232013277
:1013EC0000320832032EF3EF09F00BBC08A00CEF0F
:1013FC000AF0D8A00CEF0AF0082AD8B4002AD8B406
:10140C00012AD8B4022A02BE36EF0AF00AAE32EF35
:10141C000AF0021E011E001E081E082AD8B4002A5B
:10142C00D8B4012AD8B4022A32EF0AF0026A016A4F
:10143C00006A086A32EF0AF00B800BAE3DEF0AF03F
:10144C00026A0AAE3DEF0AF0026E016E006E086E83
:10145C000A3602323DEF0AF00C6A000E3EEF0AF03B
:10146C00010E0C6E000E24EC02F03EEF0AF0FF0EA3
:10147C000250036E0150026E0050016E0850006E57
:02148C0012004C
:10148E006E0E0001BF5DD8A0CAD0640E046EBFC040
:10149E0000F011EC02F0120E0024056E066A000E2A
:1014AE00062205C000F006C001F0000E06BEFF0EBB
:1014BE00026E036E00360090013602360336003699
:1014CE000090013602360336B80E0024F66E3F0E3B
:1014DE000120F76E000E0220F86E0900F5CF00F025
:1014EE000900F5CF01F00900F5CF02F00900F5CFA4
:1014FE0003F0000E046E000E056E000E066E7E0EDC
:10150E00076E32EC02F000C0C0F001C0C1F002C0A4
:10151E00C2F003C0C3F0640E046EBFC000F011EC45
:10152E0002F008C000F00A0E046E11EC02F0090E73
:10153E000024056E066A000E062205C000F006C0E5
:10154E0001F0000E06BEFF0E026E036E0036009016
:10155E000136023603360036009001360236033667
:10156E00B80E0024F66E3F0E0120F76E000E02201C
:10157E00F86E0900F5CF00F00900F5CF01F0090073
:10158E00F5CF02F00900F5CF03F0C0C004F0C1C0E2
:10159E0005F0C2C006F0C3C007F032EC02F000C086
:1015AE00C0F001C0C1F002C0C2F003C0C3F00A0E09
:1015BE00046EBFC000F011EC02F008C000F000C0D5
:1015CE0001F0000E026E036E046E013601900236BB
:1015DE000336043601360190023603360436B80E51
:1015EE000124F66E3F0E0220F76E000E0320F86EF9
:1015FE000900F5CF00F00900F5CF01F00900F5CF95
:10160E0002F00900F5CF03F0C0C004F0C1C005F030
:10161E00C2C006F0C3C007F032EC02F0B1D0BF5129
:10162E000A08D8B07ED00A0E046EBFC000F011ECCE
:10163E0002F0090E0024056E066A000E062205C091
:10164E0000F006C001F0000E06BEFF0E026E036E25
:10165E000036009001360236033600360090013611
:10166E0002360336B80E0024F66E3F0E0120F76EDA
:10167E00000E0220F86E0900F5CF00F00900F5CF3C
:10168E0001F00900F5CF02F00900F5CF03F0000ECE
:10169E00046E000E056E000E066E7E0E076E32ECA8
:1016AE0002F000C0C0F001C0C1F002C0C2F003C021
:1016BE00C3F00A0E046EBFC000F011EC02F008C0B9
:1016CE0000F000C001F0000E026E036E046E0136D3
:1016DE000190023603360436013601900236033687
:1016EE000436B80E0124F66E3F0E0220F76E000E81
:1016FE000320F86E0900F5CF00F00900F5CF01F0D8
:10170E000900F5CF02F00900F5CF03F0C0C004F0D8
:10171E00C1C005F0C2C006F0C3C007F032EC02F043
:10172E002FD0BFC000F0000E016E026E036E0036A9
:10173E00009001360236033600360090013602362E
:10174E000336B80E0024F66E3F0E0120F76E000E23
:10175E000220F86E0900F5CF00F00900F5CF01F078
:10176E000900F5CF02F00900F5CF03F0000E046E6C
:10177E00000E056E000E066E7E0E076E32EC02F047
:02178E00120047
:101790000450000A08E10550000A05E1FF0E006E42
:1017A0007F0E016E58D00D6A096A086A0150001058
:1017B000D8B4000C015005180A6E0ABE0D1E0B6A43
:1017C00005AE05D0041E051E042AD8B4052A01AEB4
:1017D00005D0001E011E002AD8B4012A01500510B0
:1017E0000A6E0ABE10D0D2EC04F00BB020D00DAEC1
:1017F000000C001E011E002AD8B4012A081E091E72
:10180000082AD8B4092A000C05AE0DD001BE07D0B5
:101810000150096E0050086E016A006AE8D7016A3B
:10182000006A002A000C011E001E0B2ADDD7082AC0
:10183000D8B4092A0450085CD8A4D9D70550095C4B
:10184000D8A4D5D7096A086A002AD8B4012A01AEFB
:08185000CED70000FF0C1200CE
:101858000450000A12E10550000A0FE10650000A80
:101868000CE10750000A09E1FF0E006EFF0E016E41
:101878007F0E026EFF0E036EA8D0086A096A075031
:10188800D8B4D7EF0CF00350D8B4DCEF0CF002500A
:1018980006180A6E028E068E0E6A02C008F001C093
:1018A8000CF000C00DF004500D5E0550D8A0053CAA
:1018B8000C5E0650D8A0063C085E086A0C6A0D6AE1
:1018C800D8A06EEF0CF0D890023201320032083204
:1018D800010E0E6E0750035ED8A07BEF0CF07E0E53
:1018E8000E240326D8B0E1EF0CF081EF0CF07E0E49
:1018F8000E240326D8A0E6EF0CF0180E0B6E0D365A
:101908000C3608360036013602360E360450005EB4
:101918000550D8A0053C015E0650D8A0063C025EE2
:1019280006340E120EA09CEF0CF00D80A7EF0CF001
:10193800045000260550D8B0053C01260650D8B002
:10194800062802260D900B2E83EF0CF0CDEF0CF03D
:10195800D8900036013602360E360450005E055027
:10196800D8A0053C015E0650D8A0063C025E0634AD
:101978000E10010B0D26D8B00C2AD8B4082AD8A40A
:10198800CDEF0CF008320C320D32032AD8B4E1EF57
:101998000CF00AAE089E0850026E0C50016E0D50F5
:1019A800006EE9EF0CF0010E20EC02F0E9EF0CF00C
:1019B800020E0DEC01F0E9EF0CF0040E14EC01F04E
:0C19C800E9EF0CF0080E00EC01F012003A
:1019D40003500718D8A4FEEF0CF002500618D8A440
:1019E400FEEF0CF001500518D8A4FEEF0CF00050E7
:0E19F4000418D8B4D8841200D894120012003F
:101A02000001BF51390806E3300EBF5D03E3010E4A
:081A1200006E01D0006A120011
:101A1A000B6A0A6A096A00500402F4CF09F0F3CF8C
:101A2A0008F001500502F4CF0BF0F3CF0AF0005092
:101A3A000502F3500926F4500A22E86A0B220150E3
:101A4A000402F3500926F4500A22E86A0B2208C05D
:101A5A0000F009C001F00AC002F00BC003F0120046
:101A6A000A6A0350D8A40A800750D8A40A820A50E6
:101A7A00D8B498EF0DF0030AD8B451EF0DF00AB0BC
:101A8A004CEF0DF006AE96EF0DF094EF0DF002AEAE
:101A9A0094EF0DF096EF0DF00250800B0A6E029E45
:101AAA000650800B069E0A18D8B462EF0DF00A5051
:101ABA00D8B494EF0DF096EF0DF00750035CD8B44C
:101ACA006CEF0DF0D8A088EF0DF08EEF0DF00650F8
:101ADA00025CD8B476EF0DF0D8A088EF0DF08EEF47
:101AEA000DF00550015CD8B480EF0DF0D8A088EF56
:101AFA000DF08EEF0DF00450005CD8B498EF0DF0A5
:101B0A00D8B08EEF0DF00A52D8B496EF0DF094EFDC
:101B1A000DF00A52D8B494EF0DF096EF0DF0D8807C
:0E1B2A001200D8901200D880D8841200120049
:101B38000B6A0C6A0A6A086A0350D8B424EF0EF0DC
:101B4800028E9E0E035E03BEAFEF0DF0D8B4AFEF6A
:101B58000DF014EF0EF0036C080E035CD8A0E1EF53
:101B68000DF0036E083600C008F001C000F002C096
:101B780001F0026A080E035CD8A0E1EF0DF0036ED5
:101B8800083600C008F001C000F0016A080E035CC6
:101B9800D8A0E1EF0DF0036E083600C008F0006A27
:101BA800080E035CD8A0E1EF0DF0036E0836086A52
:101BB8000350D8A4D890EDEF0DF00350D8B4EDEF52
:101BC8000DF0D8900232013200320832032EE5EFD0
:101BD8000DF00BBC08A0FEEF0DF0D8A0FEEF0DF045
:101BE800082AD8B4002AD8B4012AD8B4022A02BED6
:101BF80028EF0EF00AAE24EF0EF0021E011E001EA2
:101C0800081E082AD8B4002AD8B4012AD8B4022A4F
:101C180024EF0EF0026A016A006A086A24EF0EF0E7
:101C28000B800BAE2EEF0EF0026A0AAE2EEF0EF00E
:101C3800026E016E006E086E0A3602322EEF0EF04A
:101C4800000E0C6A2FEF0EF0010E0C6E24EC02F061
:101C58002FEF0EF0FF0E0250036E0150026E00507F
:081C6800016E0850006E12002D
:101C700097C002F098C003F002C000F003C001F06A
:101C8000024A032A00C0E9FF01C0EAFFEE5201E068
:101C9000F3D700019751025C006E98510358016E12
:0A1CA000010E005E000E015A120052
:101CAA009BC000F000019B07005228E097C0E9FFA3
:101CBA0098C0EAFFEE50000A0CE097C0E9FF98C00E
:101CCA00EAFF99C0D9FF9AC0DAFFEE50DE1801E1A7
:101CDA000FD097C0E9FF98C0EAFF99C0D9FF9AC010
:101CEA00DAFFDE50EE5C006E016A000E015A08D07F
:101CFA000001974B982B994B9A2BD2D7006A016A0D
:021D0A001200C5
:101D0C0097C0E9FF98C0EAFFEE500001991905E170
:101D1C0097C000F098C001F010D097C000F098C0A8
:101D2C0001F0974B982B00C0E9FF01C0EAFFEECF02
:0C1D3C0000F00052E5E1006A016A1200AC
:0E1D4800ACB202D00000FCD797C0ADFF120075
:101D56000001B76BB86BAB6BAC6B99C000F09AC067
:101D660001F09BC002F0010E9927000E9A239B23D7
:101D760000C0F6FF01C0F7FF02C0F8FF0900F5CF6B
:101D860000F000C0A8F00052D8B4B4EF1EF0A8517D
:101D9600250A0BE097C0E1FF98C0E2FFA8C0E6FF66
:101DA600974B982BB74BB82BD8D7A96BAA6BAB6BB5
:101DB600AC6B23D0AB87010E9927000E9A239B2389
:101DC60059D0AB81010E9927000E9A239B2352D03E
:101DD600AB83010E9927000E9A239B234BD0AC8729
:101DE600010E9927000E9A239B2344D0AB85010E42
:101DF6009927000E9A239B233DD099C0F6FF9AC0DF
:101E0600F7FF9BC0F8FF0900F5CF01F001502D0A3E
:101E1600D1E099C0F6FF9AC0F7FF9BC0F8FF090012
:101E2600F5CF01F00150200ACCE099C0F6FF9AC028
:101E3600F7FF9BC0F8FF0900F5CF01F001502B0A10
:101E4600C7E099C0F6FF9AC0F7FF9BC0F8FF0900EC
:101E5600F5CF01F00150230AC2E099C0F6FF9AC0FF
:101E6600F7FF9BC0F8FF0900F5CF01F00150300ADB
:101E7600BDE001D09ED7ABA301D0AB91ABA701D0FB
:101E8600AB9599C0F6FF9AC0F7FF9BC0F8FF090013
:101E9600F5CF00F0000E016E00C0BFF0AFDD0052BE
:101EA60034E0A96BAA6BA9C000F0AAC001F00A0E23
:101EB600046E000E056EAEDD99C0F6FF9AC0F7FF00
:101EC6009BC0F8FF0900F5CF02F002500024A96F6D
:101ED600000E0120AA6F300EA95F000EAA5B010E4C
:101EE6009927000E9A239B2399C0F6FF9AC0F7FF05
:101EF6009BC0F8FF0900F5CF00F0000E016E00C090
:101F0600BFF07CDD0052CFE133D099C0F6FF9AC016
:101F1600F7FF9BC0F8FF0900F5CF01F001502A0A30
:101F260027E19CC0E9FF9DC0EAFFEECF00F0EECFAF
:101F360001F000C0E9FF01C0EAFFEECFA9F0EECF45
:101F4600AAF09CC0E9FF9DC0EAFF020EEE24006ED7
:101F5600000EEE20016E9CC0E1FF9DC0E2FF00C0B6
:101F6600E6FF01C0E6FF010E9927000E9A239B2388
:101F760099C0F6FF9AC0F7FF9BC0F8FF0900F5CF9E
:101F860001F001502E0A6EE1010E9927000E9A23E8
:101F96009B2399C0F6FF9AC0F7FF9BC0F8FF090084
:101FA600F5CF01F001502A0A28E19CC0E9FF9DC047
:101FB600EAFFEECF00F0EECF01F000C0E9FF01C06E
:101FC600EAFFEECFA6F0EECFA7F09CC0E9FF9DC0DA
:101FD600EAFF020EEE24006E000EEE20016E9CC09B
:101FE600E1FF9DC0E2FF00C0E6FF01C0E6FF010E73
:101FF6009927000E9A239B2334D0A66BA76B99C012
:10200600F6FF9AC0F7FF9BC0F8FF0900F5CF00F076
:10201600000E016E00C0BFF0F1DC005222E0A6C047
:1020260000F0A7C001F00A0E046E000E056EF2DC89
:1020360099C0F6FF9AC0F7FF9BC0F8FF0900F5CFDD
:1020460002F002500024A66F000E0120A76F300E8A
:10205600A65F000EA75B010E9927000E9A239B230D
:10206600CED703D0A66BA76BAC8999C000F09AC0F7
:1020760001F09BC002F0010E9927000E9A239B23C4
:1020860000C0F6FF01C0F7FF02C0F8FF0900F5CF58
:10209600A8F0F9D0B7C000F0B8C001F0B8EF1EF054
:1020A600AB89E3D7AC852ED1AB8BAC812BD1AC837E
:1020B60029D1AB8D27D126D1AB8BAB8F23D19CC039
:1020C600E9FF9DC0EAFFEECF00F0EECF01F000C0C1
:1020D600E9FF01C0EAFFEECFB3F0EECFB4F09CC04B
:1020E600E9FF9DC0EAFF020EEE24006E000EEE2010
:1020F600016E9CC0E1FF9DC0E2FF00C0E6FF01C08B
:10210600E6FF000EB41902E1000EB31904E1400E19
:10211600B36F000EB46FB56BB66BB551B325E96EF0
:10212600B651B421EA6EEE520BE0010EB525006EF3
:10213600000EB621016E00C0B5F001C0B6F0EDD7B5
:10214600A651A7110AE0B651A75D02E1B551A65DF9
:1021560004E2A6C0B5F0A7C0B6F0AA51B65D02E18A
:10216600A951B55D05E2B551A95FB651AA5B02D08A
:10217600A96BAA6BABB716D0A9C000F0AAC001F034
:10218600010EA95F000EAA5B005001100BE097C07C
:10219600E1FF98C0E2FF200EE66E974B982BB74BF7
:1021A600B82BEAD7B5C002F0B6C003F0010EB55D94
:1021B600006E000EB659016E00C0B5F001C0B6F053
:1021C6000250031019E0B3C0E9FFB4C0EAFF97C09C
:1021D600E1FF98C0E2FFEECFE6FF974B982B010E8A
:1021E600B325006E000EB421016E00C0B3F001C02D
:1021F600B4F0B74BB82BD6D7ABA716D0A9C000F012
:10220600AAC001F0010EA95F000EAA5B00500110E2
:102216000BE097C0E1FF98C0E2FF200EE66E974BF9
:10222600982BB74BB82BEAD798D59CC0E9FF9DC031
:10223600EAFFEECF00F0EECF01F000C0E9FF01C0EB
:10224600EAFFEECFA8F09CC0E9FF9DC0EAFF020EB0
:10225600EE24006E000EEE20016E9CC0E1FF9DC0D4
:10226600E2FF00C0E6FF01C0E6FFA80EB36F000E56
:10227600B46F010EB56F000EB66F62D7C00EAB130A
:10228600000EAC133FD0A851000AD8B403D7A8510A
:102296006C0AD8B405D7A8514C0AD8B401D7A851AE
:1022A600660AD8B4FFD6A851450AD8B4FDD6A851B7
:1022B600650AD8B4FAD6A851670AD8B4F8D6A85190
:1022C6006F0AD8B4F6D6A851640AD8B4F4D6A85181
:1022D600690AD8B4F0D6A851700AD8B4EDD6A85178
:1022E600580AD8B4E9D6A851780AD8B4E6D6A8517F
:1022F600730AD8B4E4D6A851630A97E0A851750AC0
:10230600BDE0B3D7000EAB15006EAC51070B016EE6
:1023160000500110D8B45BEF1AF0ACA904D0060E39
:10232600A66F000EA76F9CC0E9FF9DC0EAFFEECF27
:1023360000F0EECF01F000C0E9FF01C0EAFFEECFEA
:10234600ADF0EECFAEF0EECFAFF0EECFB0F09CC07A
:10235600E9FF9DC0EAFF040EEE24006E000EEE209B
:10236600016E9CC0E1FF9DC0E2FF00C0E6FF01C018
:10237600E6FF046A056A066A076AADC000F0AEC0E9
:1023860001F0AFC002F0B0C003F035EC0DF0010E65
:10239600D8B0000E006E005205E0AF7F030EAB13FF
:1023A600000EAC13B16BB26BADC000F0AEC001F065
:1023B600AFC002F0B0C003F0046A056A066A076A95
:1023C600EAEC0CF0000ED8A4010E006E0052D8B450
:1023D6008AD0B0C000F0016A026A036AFF0E0016D6
:1023E600000E01167E0E005E000E015A00C0B1F00E
:1023F60001C0B2F0010E005E000E015A00C0B1F03D
:1024060001C0B2F0030E046E000E056E0DEC0DF069
:1024160000C0B1F001C0B2F00A0E046E000E056EE7
:10242600C8EC0BF000C0B1F001C0B2F0800E01188C
:10243600026E800E025C02E1000E005C05E2010EF7
:102446000001B15F000EB25B0001B1510008BF6F21
:10245600D6EC06F0ADC004F0AEC005F0AFC006F095
:10246600B0C007F032EC02F000C0B3F001C0B4F027
:1024760002C0B5F003C0B6F0000E046E000E056E85
:10248600000E066E7F0E076EB3C000F0B4C001F0FA
:10249600B5C002F0B6C003F035EC0DF0010ED8B0B1
:1024A600000E006E005205E0010EB15F000EB25B39
:1024B6001AD0000E046E000E056E200E066E820EF9
:1024C600076EB3C000F0B4C001F0B5C002F0B6C0EC
:1024D60003F035EC0DF0000ED8B0010E006E005280
:1024E60002E0B14BB22B800E006E800EB219005C7A
:1024F60002E1B151000803E3010EA86F02D0B1C09A
:10250600A8F0ACB118D0ACA315D0800EB219006EED
:102516007F0E005C02E1FC0EB15D0BE3800EB2198A
:10252600006E800EA719005C02E1A651B15D01E2C2
:1025360001D001D0EFD3A651A71106E0ACA304D079
:10254600010EA65F000EA75BA751000802E1A65187
:10255600080803E2080EA86F02D0A6C0A8F0ADC016
:1025660000F0AEC001F0AFC002F0B0C003F0046AE4
:10257600056A066A076AEAEC0CF0000ED8A4010E9A
:10258600006E0052D8B44BD1B1C0BFF0D6EC06F005
:1025960000C004F001C005F002C006F003C007F059
:1025A600ADC000F0AEC001F0AFC002F0B0C003F0A5
:1025B6002CEC0CF000C0ADF001C0AEF002C0AFF0E4
:1025C60003C0B0F00001A8510008BF6FD6EC06F0BA
:1025D60000C004F001C005F002C006F003C007F019
:1025E600ADC000F0AEC001F0AFC002F0B0C003F065
:1025F6002CEC0CF000C0B9F001C0BAF002C0BBF080
:1026060003C0BCF0B9C0ADF0BAC0AEF0BBC0AFF00D
:10261600BCC0B0F0B9C000F0BAC001F0BBC002F057
:10262600BCC003F09CEC0DF04DEC05F000C004F0CE
:1026360001C005F002C006F003C007F0B9C000F003
:10264600BAC001F0BBC002F0BCC003F0AAEC09F0AE
:10265600000E046E000E056E000E066E7E0E076EF0
:1026660035EC0DF0000ED8B0010E006E00521AE0E7
:10267600ADC000F0AEC001F0AFC002F0B0C003F0D4
:10268600000E046E000E056E000E066E7E0E076EC0
:10269600C2EC02F000C0ADF001C0AEF002C0AFF077
:1026A60003C0B0F0ADC000F0AEC001F0AFC002F0A4
:1026B600B0C003F09CEC0DF00001A851010F096EAB
:1026C6000A6A000E0A2209C004F00AC005F0000ECC
:1026D6000ABEFF0E066E076E0436049005360636F1
:1026E600073604360490053606360736500E04249F
:1026F600F66E400E0520F76E000E0620F86E0900F5
:10270600F5CF05F00900F5CF06F00900F5CF07F083
:102716000900F5CF08F00850035C08E10750025C99
:1027260005E10650015C02E10550005C1EE3000174
:10273600ADC000F0AEC001F0AFC002F0B0C003F013
:10274600CD0E046ECC0E056E4C0E066E7B0E076E1D
:1027560032EC02F000C0ADF001C0AEF002C0AFF046
:1027660003C0B0F0B14BB22B5AD0ADC000F0AEC032
:1027760001F0AFC002F0B0C003F09CEC0DF0A8C0B1
:1027860004F0000E056E066E076E043604900536DC
:102796000636073604360490053606360736500EDA
:1027A6000424F66E400E0520F76E000E0620F86E25
:1027B6000900F5CF05F00900F5CF06F00900F5CFC1
:1027C60007F00900F5CF08F00850035C08E1075050
:1027D600025C05E10650015C02E10550005C1FE267
:1027E6000001ADC000F0AEC001F0AFC002F0B0C055
:1027F60003F0000E046E000E056E200E066E820EAD
:10280600076E32EC02F000C0ADF001C0AEF002C0BF
:10281600AFF003C0B0F0010EB15F000EB25B000175
:10282600ACA393D0ACB791D0800E000A006E800E98
:10283600A719005C02E1A6510A0804E20A0EA66F77
:10284600000EA76FADC000F0AEC001F0AFC002F041
:10285600B0C003F09CEC0DF000C0B3F001C0B4F0C2
:1028660002C0B5F003C0B6F0B351B411B511B6113C
:1028760042E00A0E046E000E056E066E076EB3C0C9
:1028860000F0B4C001F0B5C002F0B6C003F060ECD1
:1028960005F008C000F009C001F00AC002F00BC044
:1028A60003F0000E046E031808E10450021805E157
:1028B6000450011802E10050000A1DE1010EA65F56
:1028C600000EA75B0A0E046E000E056E066E076EFE
:1028D600B3C000F0B4C001F0B5C002F0B6C003F05A
:1028E60060EC05F000C0B3F001C0B4F002C0B5F072
:1028F60003C0B6F0B9D7800EA719006E800E005C33
:1029060002E1A851A65D21E2A651A85DBF6FD6ECF3
:1029160006F000C004F001C005F002C006F003C0D6
:1029260007F0ADC000F0AEC001F0AFC002F0B0C01D
:1029360003F02CEC0CF000C0ADF001C0AEF002C00C
:10294600AFF003C0B0F0A6C0A8F0050E0001A625A2
:10295600006E000EA721016E0050A95F0150AA5B10
:10296600A651A71103E1ACB701D004D0010EA95FAF
:10297600000EAA5B030EAB15006EACC001F0000E94
:1029860001160050011004E0010EA95F000EAA5BBB
:10299600ABA539D0ABA312D0ABA103D02D0E9E6F41
:1029A60002D02B0E9E6F97C0E1FF98C0E2FF9EC03B
:1029B600E6FF974B982BB74BB82B0CD0ABA10AD0A0
:1029C60097C0E1FF98C0E2FF200EE66E974B982B6A
:1029D600B74BB82B800E006E800EAA19005C02E180
:1029E600A95100080FE297C0E1FF98C0E2FF300E40
:1029F600E66E974B982BB74BB82B010EA95F000ECE
:102A0600AA5BE8D73AD0ABB718D0800E006E800E1E
:102A1600AA19005C02E1A95100080FE297C0E1FF84
:102A260098C0E2FF200EE66E974B982BB74BB82B5B
:102A3600010EA95F000EAA5BE8D7ABA312D0ABA12B
:102A460003D02D0E9F6F02D02B0E9F6F97C0E1FF14
:102A560098C0E2FF9FC0E6FF974B982BB74BB82B69
:102A66000CD0ABA10AD097C0E1FF98C0E2FF200EC0
:102A7600E66E974B982BB74BB82BADC000F0AEC0A7
:102A860001F0AFC002F0B0C003F09CEC0DF000C046
:102A9600B3F001C0B4F002C0B5F003C0B6F0A8C0F0
:102AA60000F0000E016E026E036E003600900136D5
:102AB6000236033600360090013602360336500ED3
:102AC6000024F66E400E0120F76E000E0220F86E0E
:102AD6000900F5CF04F00900F5CF05F00900F5CFA0
:102AE60006F00900F5CF07F0B3C000F0B4C001F05E
:102AF600B5C002F0B6C003F060EC05F0300E00265B
:102B060097C0E1FF98C0E2FF00C0E6FF974B982B05
:102B1600B74BB82BA651A71103E1ACB701D06FD0C4
:102B260097C0E1FF98C0E2FF2E0EE66E974B982BFA
:102B3600B74BB82BA851A65F000EA75BA8534DE074
:102B4600A807A8C000F0000E016E026E036E0036E4
:102B56000090013602360336003600900136023602
:102B66000336500E0024F66E400E0120F76E000E5E
:102B76000220F86E0900F5CF04F00900F5CF05F044
:102B86000900F5CF06F00900F5CF07F0B3C000F055
:102B9600B4C001F0B5C002F0B6C003F060EC05F0B9
:102BA6000A0E046E000E056E066E076E60EC05F0EA
:102BB60008C000F009C001F00AC002F00BC003F023
:102BC600300E002697C0E1FF98C0E2FF00C0E6FF86
:102BD600974B982BB74BB82BB1D7A651A7110FE03F
:102BE60097C0E1FF98C0E2FF300EE66E974B982B38
:102BF600B74BB82B010EA65F000EA75BEED7ABABAB
:102C06000BD097C0E1FF98C0E2FF450EE66E974BEA
:102C1600982BB74BB82B0AD097C0E1FF98C0E2FFBC
:102C2600650EE66E974B982BB74BB82B800EB219F4
:102C3600006E800E005C02E1000EB15D11E2B15142
:102C46000008B16FB251000EB25797C0E1FF98C0AD
:102C5600E2FF2D0EE66E974B982BB74BB82B0AD09A
:102C660097C0E1FF98C0E2FF2B0EE66E974B982BBC
:102C7600B74BB82B0A0E046E000E056EB1C000F0FD
:102C8600B2C001F0C8EC0BF0300E002697C0E1FF91
:102C960098C0E2FF00C0E6FF0001974B982BB74BA8
:102CA600B82B0A0E046E000E056EB1C000F0B2C05D
:102CB60001F0C8EC0BF008C000F009C001F0300EBE
:102CC600002697C0E1FF98C0E2FF00C0E6FF0001C2
:102CD600974B982BB74BB82BABA71AD0800E006E2C
:102CE600800EAA19005C02E1A951000811E297C002
:102CF600E1FF98C0E2FF200EE66E974B982BB74B8C
:102D0600B82B010EA95F000EAA5BA951AA11EFE12B
:102D1600B0EF0EF0ACA3F3D0800EB219006E800EA9
:102D2600005C02E1000EB15D0AE2010EB15D006ECB
:102D3600000EB259016E0050A65F0150A75BADC0F0
:102D460000F0AEC001F0AFC002F0B0C003F09CECE2
:102D56000DF000C0B3F001C0B4F002C0B5F003C07E
:102D6600B6F0010EA86FA8510A0A34E0A8C000F018
:102D7600000E016E026E036E0036009001360236BA
:102D8600033600360090013602360336500E002414
:102D9600F66E400E0120F76E000E0220F86E090056
:102DA600F5CF01F00900F5CF02F00900F5CF03F0E9
:102DB6000900F5CF04F00450B65D08E10350B55D97
:102DC60005E10250B45D02E10150B35D01E202D0BB
:102DD600A82BC9D7A851A65DBD6F000EA759BE6F17
:102DE600BDC0A6F0BEC0A7F0B3C000F0B4C001F0ED
:102DF600B5C002F0B6C003F04DEC05F000C004F01B
:102E060001C005F002C006F003C007F0ADC000F037
:102E1600AEC001F0AFC002F0B0C003F0AAEC09F0FA
:102E260000C0B9F001C0BAF002C0BBF003C0BCF0EC
:102E3600BDC0BFF0D6EC06F0B9C004F0BAC005F0CC
:102E4600BBC006F0BCC007F032EC02F0000E046E08
:102E5600000E056E000E066E7E0E076EC2EC02F0C8
:102E66009CEC0DF000C0B3F001C0B4F002C0B5F0A8
:102E760003C0B6F0A651A71142E00A0E046E000E7A
:102E8600056E066E076EB3C000F0B4C001F0B5C0A3
:102E960002F0B6C003F060EC05F008C000F009C00F
:102EA60001F00AC002F00BC003F0000E046E031816
:102EB60008E10450021805E10450011802E100502F
:102EC600000A1DE10A0E046E000E056E066E076E00
:102ED600B3C000F0B4C001F0B5C002F0B6C003F054
:102EE60060EC05F000C0B3F001C0B4F002C0B5F06C
:102EF60003C0B6F0010EA65F000EA75BBBD7800E1F
:102F0600006E800EA719005C02E1A6510C0816E3BC
:102F1600A6C0BFF047EC0AF0ADC004F0AEC005F0A5
:102F2600AFC006F0B0C007F0C2EC02F000C0ADF0D2
:102F360001C0AEF002C0AFF003C0B0F0ADC000F00B
:102F4600AEC001F0AFC002F0B0C003F0046A056A7B
:102F5600066A076AEAEC0CF0000ED8A4010E006EB1
:102F66000052D8B477D0ADC000F0AEC001F0AFC00B
:102F760002F0B0C003F09CEC0DF0000E046E0318D6
:102F860008E10450021805E10450011802E100505E
:102F9600000A60E1800E006E800EB219005C02E14C
:102FA600B151010857E2B1C0BFF0D6EC06F000C03F
:102FB60004F001C005F002C006F003C007F0ADC082
:102FC60000F0AEC001F0AFC002F0B0C003F02CECD0
:102FD6000CF05F0E046E700E056E090E066E810E05
:102FE600076E35EC0DF0010ED8B0000E006E0052E3
:102FF60006E0090E0001B15F000EB25B05D00001CC
:10300600080EB15F000EB25BB1C0BFF0D6EC06F0A1
:1030160000C004F001C005F002C006F003C007F0CE
:10302600ADC000F0AEC001F0AFC002F0B0C003F01A
:103036002CEC0CF09CEC0DF000C0B3F001C0B4F029
:1030460002C0B5F003C0B6F00001AD6BAE6BAF6B5E
:10305600B06B38D0ADC000F0AEC001F0AFC002F02A
:10306600B0C003F09CEC0DF000C0B3F001C0B4F0AA
:1030760002C0B5F003C0B6F0B3C000F0B4C001F0B2
:10308600B5C002F0B6C003F04DEC05F000C004F088
:1030960001C005F002C006F003C007F0ADC000F0A5
:1030A600AEC001F0AFC002F0B0C003F0AAEC09F068
:1030B60000C0ADF001C0AEF002C0AFF003C0B0F08A
:1030C600B16BB26B010EA86FA8510A0A34E0A8C012
:1030D60000F0000E016E026E036E0036009001369F
:1030E6000236033600360090013602360336500E9D
:1030F6000024F66E400E0120F76E000E0220F86ED8
:103106000900F5CF01F00900F5CF02F00900F5CF6F
:1031160003F00900F5CF04F00450B65D08E1035052
:10312600B55D05E10250B45D02E10150B35D01E217
:1031360002D0A82BC9D7A851A625006E000EA7213C
:10314600016EB1510026B25101220050A95F015013
:10315600AA5BACB704D0A651A71101E104D0010EB9
:10316600A95F000EAA5B030EAB15006EACC001F0A2
:10317600000E01160050011004E0010EA95F000EBA
:10318600AA5BABA539D0ABA312D0ABA103D02D0E51
:10319600A06F02D02B0EA06F97C0E1FF98C0E2FF90
:1031A600A0C0E6FF974B982BB74BB82B0CD0ABA122
:1031B6000AD097C0E1FF98C0E2FF200EE66E974B5B
:1031C600982BB74BB82B800E006E800EAA19005CA8
:1031D60002E1A95100080FE297C0E1FF98C0E2FFA3
:1031E600300EE66E974B982BB74BB82B010EA95FA6
:1031F600000EAA5BE8D73AD0ABB718D0800E006EA7
:10320600800EAA19005C02E1A95100080FE297C0DE
:10321600E1FF98C0E2FF200EE66E974B982BB74B66
:10322600B82B010EA95F000EAA5BE8D7ABA312D09C
:10323600ABA103D02D0EA16F02D02B0EA16F97C0AC
:10324600E1FF98C0E2FFA1C0E6FF974B982BB74B72
:10325600B82B0CD0ABA10AD097C0E1FF98C0E2FF13
:10326600200EE66E974B982BB74BB82BA8C000F0F4
:10327600A80700524CE0A8C000F0000E016E026ED6
:10328600036E003600900136023603360036009093
:10329600013602360336500E0024F66E400E01202B
:1032A600F76E000E0220F86E0900F5CF04F0090053
:1032B600F5CF05F00900F5CF06F00900F5CF07F0C8
:1032C600B3C000F0B4C001F0B5C002F0B6C003F060
:1032D60060EC05F00A0E046E000E056E066E076EB3
:1032E60060EC05F008C000F009C001F00AC002F069
:1032F6000BC003F0300E002697C0E1FF98C0E2FF36
:1033060000C0E6FF974B982BB74BB82BAFD7800E74
:10331600006E800EB219005C02E1B15100080FE2A6
:1033260097C0E1FF98C0E2FF300EE66E974B982BF0
:10333600B74BB82B010EB15F000EB25BE8D7800E1B
:10334600000A006E800EA719005C02E1A65108086B
:1033560003E2080EA86F02D0A6C0A8F0A851A65F87
:10336600000EA75BA85303E1ACB701D00AD097C003
:10337600E1FF98C0E2FF2E0EE66E974B982BB74BF7
:10338600B82BA8C0BFF0D6EC06F0ADC004F0AEC0B6
:1033960005F0AFC006F0B0C007F032EC02F0AEECBC
:1033A60009F000C0B3F001C0B4F002C0B5F003C02C
:1033B600B6F0A8534DE0A807A8C000F0000E016EB5
:1033C600026E036E00360090013602360336003672
:1033D6000090013602360336500E0024F66E400E7B
:1033E6000120F76E000E0220F86E0900F5CF04F0FA
:1033F6000900F5CF05F00900F5CF06F00900F5CF75
:1034060007F0B3C000F0B4C001F0B5C002F0B6C01A
:1034160003F060EC05F00A0E046E000E056E066EF3
:10342600076E60EC05F008C000F009C001F00AC0A4
:1034360002F00BC003F0300E002697C0E1FF98C0E3
:10344600E2FF00C0E6FF974B982BB74BB82BB1D7DE
:10345600A651A7110FE097C0E1FF98C0E2FF300E1A
:10346600E66E974B982BB74BB82B010EA65F000E56
:10347600A75BEED7ABA71AD0800E006E800EAA19F6
:10348600005C02E1A951000811E297C0E1FF98C073
:10349600E2FF200EE66E974B982BB74BB82B010E2A
:1034A600A95F000EAA5BA951AA11EFE1B0EF0EF0D9
:1034B600C00EAB15016EACC002F0000E0216000E77
:1034C600021802E1000E0118D8A480D0ABA927D0BB
:1034D6009CC0E9FF9DC0EAFFEECF00F0EECF01F001
:1034E60000C0E9FF01C0EAFFEECFB3F0EECFB4F0C3
:1034F600EECFB5F0EECFB6F09CC0E9FF9DC0EAFF77
:10350600040EEE24006E000EEE20016E9CC0E1FF5C
:103516009DC0E2FF00C0E6FF01C0E6FF2FD09CC0C1
:10352600E9FF9DC0EAFFEECF00F0EECF01F000C04C
:10353600E9FF01C0EAFFEECF00F0EECF01F0000E8A
:1035460001BEFF0E026E036E00C0B3F001C0B4F000
:1035560002C0B5F003C0B6F09CC0E9FF9DC0EAFF0B
:10356600020EEE24006E000EEE20016E9CC0E1FFFE
:103576009DC0E2FF00C0E6FF01C0E6FF800EB6195F
:10358600006E800E005C08E1000EB55D05E1000EE0
:10359600B45D02E1000EB35D18E2030EAB13000E3C
:1035A600AC13006A016A026A036AB351005EB45141
:1035B600015AB551025AB651035A00C0B3F001C0C0
:1035C600B4F002C0B5F003C0B6F04ED0ABA927D018
:1035D6009CC0E9FF9DC0EAFFEECF00F0EECF01F000
:1035E60000C0E9FF01C0EAFFEECFB3F0EECFB4F0C2
:1035F600EECFB5F0EECFB6F09CC0E9FF9DC0EAFF76
:10360600040EEE24006E000EEE20016E9CC0E1FF5B
:103616009DC0E2FF00C0E6FF01C0E6FF25D09CC0CA
:10362600E9FF9DC0EAFFEECF00F0EECF01F000C04B
:10363600E9FF01C0EAFFEECFB3F0EECFB4F0000E23
:10364600B56FB66F9CC0E9FF9DC0EAFF020EEE247F
:10365600006E000EEE20016E9CC0E1FF9DC0E2FFF1
:1036660000C0E6FF01C0E6FF000EA71902E1000E4A
:10367600A6190FE1000E006EB61908E10050B51943
:1036860005E10050B41902E1B351000A02E1A64B6C
:10369600A72BC00EAB15006E00C005F0AED0010E14
:1036A600A86FA8510A0A34E0A8C000F0000E016E07
:1036B600026E036E0036009001360236033600367F
:1036C6000090013602360336500E0024F66E400E88
:1036D6000120F76E000E0220F86E0900F5CF01F00A
:1036E6000900F5CF02F00900F5CF03F00900F5CF88
:1036F60004F00450B65D08E10350B55D05E10250E3
:10370600B45D02E10150B35D01E202D0A82BC9D736
:1037160082D0010EA86FA851080A34E0A8C000F0B4
:10372600000E016E026E036E003600900136023600
:10373600033600360090013602360336780E002432
:10374600F66E400E0120F76E000E0220F86E09009C
:10375600F5CF01F00900F5CF02F00900F5CF03F02F
:103766000900F5CF04F00450B65D08E10350B55DDD
:1037760005E10250B45D02E10150B35D01E202D001
:10378600A82BC9D748D0010EA86FA8510C0A34E05F
:10379600A8C000F0000E016E026E036E00360090A7
:1037A60001360236033600360090013602360336FD
:1037B600200E0024F66E400E0120F76E000E022049
:1037C600F86E0900F5CF01F00900F5CF02F0090007
:1037D600F5CF03F00900F5CF04F00450B65D08E11B
:1037E6000350B55D05E10250B45D02E10150B35DE1
:1037F60001E202D0A82BC9D70ED00550000AD8B4D2
:103806004ED70550C00AD8B44AD70550800A81E081
:103816000550400AB8E0800E006E800EA719005CC5
:1038260002E1A651A85D03E2A6C0A8F00DD0800E65
:10383600A719006E800E005C02E1A851A65D04E2A5
:10384600A8C0A6F0000EA76FA951AA110EE0030E9C
:10385600AB15006EACC001F0000E01160050011051
:1038660004E0010EA95F000EAA5B800EA719006E88
:10387600800EAA19005C02E1A951A65D05E2A651D7
:10388600A95FA751AA5B02D0A96BAA6BC40EAB15A0
:10389600016EAC51080B026E0250080A02E1400E9E
:1038A600011808E1A951AA1104E0010EA95F000E52
:1038B600AA5B1CD0C00EAB15016EAC51080B026E94
:1038C6000250080A02E1800E011810E1800E006E17
:1038D600800EAA19005C02E1A951020805E2020E57
:1038E600A95F000EAA5B02D0A96BAA6BABA55DD03F
:1038F600ABA312D0ABA103D02D0EA26F02D02B0E1C
:10390600A26F97C0E1FF98C0E2FFA2C0E6FF974B07
:10391600982BB74BB82B34D0ABA10BD097C0E1FF97
:1039260098C0E2FF200EE66E974B982BB74BB82B4C
:1039360027D0C00EAB15016EAC51080B026E0250BB
:10394600080A02E1800E01181BE197C0E1FF98C04A
:10395600E2FF300EE66E974B982BB74BB82BABAB0E
:1039660003D0580EA36F02D0780EA36F97C0E1FF65
:1039760098C0E2FFA3C0E6FF974B982BB74BB82B36
:10398600A951AA1111E097C0E1FF98C0E2FF300EDD
:10399600E66E974B982BB74BB82B010EA95F000E1E
:1039A600AA5BA951AA11EFE174D0A951AA1113E09B
:1039B600ABB711D097C0E1FF98C0E2FF200EE66ECC
:1039C600974B982BB74BB82B010EA95F000EAA5B3D
:1039D600A951AA11EFE1ABA312D0ABA103D02D0ED2
:1039E600A46F02D02B0EA46F97C0E1FF98C0E2FF30
:1039F600A4C0E6FF974B982BB74BB82B0CD0ABA1C6
:103A06000AD097C0E1FF98C0E2FF200EE66E974B02
:103A1600982BB74BB82BC00EAB15016EAC51080BEB
:103A2600026E0250080A02E1400E01180BE197C02F
:103A3600E1FF98C0E2FF300EE66E974B982BB74B2E
:103A4600B82B27D0C00EAB15016EAC51080B026E19
:103A56000250080A02E1800E01181BE197C0E1FF3F
:103A660098C0E2FF300EE66E974B982BB74BB82BFB
:103A7600ABAB03D0580EA56F02D0780EA56F97C0DA
:103A8600E1FF98C0E2FFA5C0E6FF974B982BB74B26
:103A9600B82B800E006E800EA719005C02E1A651BD
:103AA600A85D0BE297C0E1FF98C0E2FF300EE66E1C
:103AB600974B982BB74BB82BECD7A6C000F0A7C0F6
:103AC60001F0010EA65F000EA75B00500110D8B4EE
:103AD6002AD1C00EAB15006E00C0B9F00AD1A6C03F
:103AE60000F0A7C001F0000EA7BFFF0E026E036E26
:103AF6000036009001360236033600360090013655
:103B060002360336500E0024F66E400E0120F76E84
:103B1600000E0220F86E0900F5CF04F00900F5CF7B
:103B260005F00900F5CF06F00900F5CF07F0B3C0A0
:103B360000F0B4C001F0B5C002F0B6C003F060EC0E
:103B460005F00A0E046E000E056E066E076E60EC3A
:103B560005F008C000F009C001F00AC002F00BC071
:103B660003F0300E0024A86FD3D0ABAB45D0A6C06F
:103B760000F0A7C001F0000EA7BFFF0E026E036E95
:103B860000360090013602360336003600900136C4
:103B960002360336780E0024F66E400E0120F76ECC
:103BA600000E0220F86E0900F5CF04F00900F5CFEB
:103BB60005F00900F5CF06F00900F5CF07F0B3C010
:103BC60000F0B4C001F0B5C002F0B6C003F060EC7E
:103BD60005F00F0E0016000E011602160316A90EAA
:103BE6000024F66E400E0120F76E000E0220F86EDD
:103BF6000900F5CFA8F044D0A6C000F0A7C001F098
:103C0600000EA7BFFF0E026E036E0036009001364F
:103C16000236033600360090013602360336780E39
:103C26000024F66E400E0120F76E000E0220F86E9C
:103C36000900F5CF04F00900F5CF05F00900F5CF2E
:103C460006F00900F5CF07F0B3C000F0B4C001F0EC
:103C5600B5C002F0B6C003F060EC05F00F0E00161A
:103C6600000E011602160316980E0024F66E400E7C
:103C76000120F76E000E0220F86E0900F5CFA8F0BD
:103C860047D0A6C000F0A7C001F0000EA7BFFF0EE8
:103C9600026E036E00360090013602360336003699
:103CA6000090013602360336200E0024F66E400ED2
:103CB6000120F76E000E0220F86E0900F5CF04F021
:103CC6000900F5CF05F00900F5CF06F00900F5CF9C
:103CD60007F0B3C000F0B4C001F0B5C002F0B6C042
:103CE60003F060EC05F0070E0014A86F300EA8274D
:103CF6000FD0B951000AD8B4F2D6B951C00AD8B417
:103D0600EED6B951800AD8B430D7B951400AB9E0D5
:103D160097C0E1FF98C0E2FFA8C0E6FF974B982B3B
:103D2600B74BB82BCAD6ABA71AD0800E006E800E42
:103D3600AA19005C02E1A951000811E297C0E1FF4F
:103D460098C0E2FF200EE66E974B982BB74BB82B28
:103D5600010EA95F000EAA5BA951AA11EFE1B0EF0F
:0C3D66000EF0B7C000F0B8C001F0120071
:103D7200016A01500A080BE3610EE16E000EE26E69
:103D82000150E126D8B0E22AE66A012AF2D71200EF
:103D9200480E00016C6F1D0E6D6F970E6E6F000E58
:103DA2006F6F440E796F3E0E7A6F000E7B6F000EBE
:103DB2007C6FFF0E706FFF0E716F000E726F000E40
:103DC200736FFF0E746FFF0E756F000E766F000E2D
:103DD200776FAC8A900EAB6E948E949C9EAA03D0A1
:083DE200AECF00F0FBD7120088
:103DEA000900F5CFE6FF0006FBE10106F9E1120042
:103DFA00910E0001956F000E966F8CC097F08DC0E2
:103E0A0098F08EC099F08FC09AF090C09BF0950EF2
:103E1A009C6F000E9D6FABEC0EF000C093F001C0DA
:103E2A0094F000508C25E16E01508D21E26EE66A15
:0A3E3A0093C000F094C001F01200E4
:103E4400AECF01F0ABA202D0AB98AB8801C000F0BA
:023E540012005A
:103E5600000E00018D1902E1000E8C1937E08CC0AE
:103E6600E9FF8DC0EAFFEE5231E08EC097F08FC0B9
:103E760098F038EC0EF000C09BF08CC097F08DC027
:103E860098F08EC099F08FC09AF055EC0EF0000EA7
:103E9600011802E1000E001805E18CC000F08DC08B
:103EA60001F016D0010E00018C25976F000E8D21B2
:103EB600986F8EC0E9FF8FC0EAFFEECF99F086ECCF
:103EC6000EF000C08CF001C08DF0C2D7006A016A06
:023ED6001200D8
:103ED80000018F6B8CC0E9FF8DC0EAFFEECF8EF03A
:103EE8008E51000A0FE08EC097F0A4EC0EF000018E
:103EF8008F2B8F518C25E96E000E8D21EA6EEECF47
:063F08008EF0EED712005E
:103F0E0065EC20F00F0EC112070EB412816A8A6A98
:103F1E00938093829384846A8D6A969296909694F7
:103F2E00F292F090F092F288F086F088F18CF18A9D
:103F3E00F1889E9A9D8AF28EF28CB886020EB06E31
:103F4E00080EAF6EAC841EDF030E0B6E8A0E0C6E67
:103F5E00550E0D6E0D2EFED70C2EFCD70B2EFAD74E
:083F6E0000000000FFD7FFD79F
:1040CA0010EE1EF0420E006E010E016E760EF66EB6
:0E40DA003F0EF76E000EF86EF5EC1EF01200B1
:013F7600004A
:023F7700000048
:013F79002621
:0A3F7A00404C6C65305F6F6E26004E
:063F84006C655F6F660032
:063F8A006C655F6F6E0024
:063F90006C655F6F6E001E
:013F960040EA
:013F97000029
:073F9800286E756C6C290016
:083F9F00404572726F722600AA
:063FA7006C655F6F66000F
:0B3FAD00404C6C65305F6F66662600BC
:103FB8000000007FCDCC4C7B0AD723786F120375A5
:103FC80017B75171ACC5276EBD37066B95BF5667DD
:103FD80077CC2B645F700961FFE65B5D08E53C3CCC
:043FE8006042221BF6
:103FEC000000007F000020820000488500007A88D5
:103FFC0000401C8C0050438F0024749280961896BD
:10400C0020BC3E99286B6E9CF90215A0EC782DC152
:04401C00CAF249E2B9
:104020000100000008000000400000000002000045
:1040300000100000008000000000040000002000CC
:104040000000000100000008000000400000000027
:10405000010000000A00000064000000E803000006
:1040600010270000A086010040420F0080969800B3
:0840700000E1F50500CA9A3BCE
:104078000100000010000000000100000010000016
:104088000000010000001000000000010000001006
:1040980030313233343536373839616263646566B6
:0140A8000017
:1040A9003031323334353637383941424344454665
:0140B9000006
:0840BA004053305F256426002D
:0840C2004053305F2564260025
:020000040030CA
:0E000000240C1E1EFF8081FF0FC00FE00F407A
:00000001FF
