:0400000076EF1FF088
:1000080000C016F001C015F09DAA09D09EAA07D01D
:100018009E9ADDEC1DF000C0F5F00001F68116C0D7
:0800280000F015C001F0110009
:080030000AAE029E000E120050
:100038000B840BAE27EF00F0010E036E026A016A13
:0A004800006A0A360232FF0E1200B1
:0E005200026A016A006A086A036A000E120060
:100060000B820BAE3AEF00F003680268016800688B
:080070000A360232FF0E1200F5
:100078000CB07EEF00F00CA224EF01F00E6A000E27
:10008800026495EF00F0F00E0214D8A460EF00F0BF
:10009800023A01380F0B02260138F00B016E0038C6
:1000A8000F0B01260038F00B006E08380F0B0026E6
:1000B8000838F00B086E0E84D89002BE79EF00F075
:1000C80008360036013602360E2A02BE79EF00F0F5
:1000D80008360036013602360E2A02BE79EF00F0E5
:1000E80008360036013602360E2A0E5003641AEF1F
:1000F80001F0035E0BBC08AE1FEF01F0D880800E44
:1001080008640030000E002201220222D8A01FEF4E
:1001180001F0023201320032034A24EF01F01FEFEE
:1001280001F001C002F000C001F008C000F0086A48
:10013800000E0E860264CCEF00F0F00E0214D8A474
:10014800B4EF00F0023A01380F0B02260138F00B29
:10015800016E00380F0B01260038F00B006E0E847C
:10016800D89002BE79EF00F00036013602360E2A2A
:1001780002BE79EF00F00036013602360E2A02BEC2
:1001880079EF00F00036013602360E2A79EF00F0DA
:1001980001C002F000C001F0006A000E0E960E8841
:1001A8000264F9EF00F0F00E0214D8A4E4EF00F0B6
:1001B800023A01380F0B02260138F00B016E0E844B
:1001C800D89002BE79EF00F0013602360E2A02BE40
:1001D80079EF00F0013602360E2A02BE79EF00F000
:1001E800013602360E2A79EF00F001C002F0016AEA
:1001F800000E0E86026429EF01F0F00E0214D8A456
:1002080008EF01F0023A0E84D89002BE79EF00F0B0
:1002180002360E2A02BE79EF00F002360E2A02BE1E
:1002280079EF00F002360E2A79EF00F0010E0C6E1D
:10023800FFDE2CEF01F0020E0C6EF6DE2CEF01F063
:10024800040E0C6E09DF2CEF01F0080E0C6EFDDEBB
:02025800120092
:10025A00025006180E6E086A096A0B6A0350076490
:10026A0020EF02F006500A6E068E028E03500B6EC5
:10027A000750036E000E0B6470EF01F00B50075E1F
:10028A00D8B411EF02F0070E0764DFEF01F0075E42
:10029A0000C008F001C000F002C001F0026A074E77
:1002AA0011EF02F00764B4EF01F0075E00C008F036
:1002BA0001C000F0016A074E11EF02F0076492EFE5
:1002CA0001F0075E00C008F0006A074E11EF02F065
:1002DA00076479EF01F00AC002F005C001F004C01A
:1002EA0000F0086A3AEF03F0030E076484EF01F0A6
:1002FA00075E08380F0B086E074E11EF02F0D89010
:10030A000832074E11EF02F0D8900832074E11EF6B
:10031A0002F0D890083211EF02F0030E0764A3EF3F
:10032A0001F0075E08380F0B086E0038F00B08263C
:10033A0000380F0B006E074E11EF02F0D890003212
:10034A000832074E11EF02F0D89000320832074EF9
:10035A0011EF02F0D8900032083211EF02F0030ECA
:10036A000764CBEF01F0075E08380F0B086E003800
:10037A00F00B082600380F0B006E0138F00B002630
:10038A0001380F0B016E074E11EF02F0D8900132BF
:10039A0000320832074E11EF02F0D89001320032D3
:1003AA000832074E11EF02F0D890013200320832BB
:1003BA0011EF02F0030E0764FCEF01F0075E083844
:1003CA000F0B086E0038F00B082600380F0B006E72
:1003DA000138F00B002601380F0B016E0238F00BC2
:1003EA00012602380F0B026E074E11EF02F0D89069
:1003FA000232013200320832074E11EF02F0D89071
:10040A000232013200320832074E11EF02F0D89060
:10041A000232013200320832096A000E0EAE05EFCE
:10042A0003F0081E001E011E021E082A00220122D5
:10043A00022205EF03F00750D8A426EF02F03AEFA4
:10044A0003F0096A02C00AF0028E068E0750035CA6
:10045A00076ED8B4F8EF02F0070E0764C6EF02F091
:10046A00075E0450096E0550046E0650056E066A52
:10047A00074EF8EF02F0070E07649BEF02F0075EE3
:10048A000450096E0550046E056A074EF8EF02F033
:10049A00070E076479EF02F0075E0450096E046ADA
:1004AA00074EF8EF02F0070E076460EF02F00AC089
:1004BA0002F03AEF03F0030E07646BEF02F0075EF7
:1004CA0009380F0B096E074EF8EF02F0D89009327F
:1004DA00074EF8EF02F0D8900932074EF8EF02F013
:1004EA00D8900932F8EF02F0030E07648AEF02F09F
:1004FA00075E09380F0B096E0438F00B0926043819
:10050A000F0B046E074EF8EF02F0D890043209324E
:10051A00074EF8EF02F0D89004320932074EF8EF8E
:10052A0002F0D89004320932F8EF02F0030E0764A1
:10053A00B2EF02F0075E09380F0B096E0438F00BB0
:10054A00092604380F0B046E0538F00B042605380B
:10055A000F0B056E074EF8EF02F0D8900532043201
:10056A000932074EF8EF02F0D89005320432093208
:10057A00074EF8EF02F0D890053204320932F8EF4C
:10058A0002F0030E0764E3EF02F0075E09380F0B6F
:10059A00096E0438F00B092604380F0B046E05386F
:1005AA00F00B042605380F0B056E0638F00B0526EE
:1005BA0006380F0B066E074EF8EF02F0D890063297
:1005CA00053204320932074EF8EF02F0D8900632AB
:1005DA00053204320932074EF8EF02F0D89006329B
:1005EA00053204320932086A000E0EAE05EF03F036
:1005FA00091E041E051E061E092A042205220622B9
:10060A0009500826045000220550012206500222F1
:10061A000EBE1CEF03F0D8A02BEF03F0023201321A
:10062A0000320832033E2BEF03F035EF03F0D8B067
:10063A0030EF03F0000E081E001E011E021E082ADB
:10064A000022012202220A7E30EF03F0010E0C6E14
:10065A000EDD3CEF03F0020E0C6E09DD3CEF03F0F9
:10066A00040E0C6EF8DC3CEF03F0000E0C6E120068
:10067A000D6A086A0050D8B4000C04180A6E0ABE43
:10068A000D1E0B6A04AE02D0041E042A00AE02D06C
:10069A00001E002A005004100A6E0ABE1FD0045021
:1006AA00085E003600340836045008260036060E66
:1006BA000C6E00340836045000B0085E00A008260C
:1006CA0000360C2EF6D700A008260BB015D00DAEBA
:1006DA00000C001E002A081E082A000C04AE09D0CD
:1006EA0000BE04D00050086E006AF1D7006A002AE2
:1006FA00000C001E0B2AD3D7082A0450085CD8A481
:0E070A00E6D7086A002A00AEE2D7FF0C120004
:100718000134083609360450085E0550D8A0053C57
:10072800095E003601360F0E0C6E013408360936A4
:10073800045000A006D0085E0550D8A0053C095E0C
:1007480005D008260550D8B0053C092600360136E4
:100758000C2EEBD700B006D0045008260550D8B0B0
:08076800053C09260000120007
:10077000086A096A000E076203643DEF04F0025044
:1007800006180A6E075003267E0ED8A0CEEF03F09F
:10079000035ED8B042EF04F0D2EF03F0035ED8A0BE
:1007A00047EF04F0028E068E02C00EF001C00BF07F
:1007B00000C00DF000500402F4CF0CF0015005020F
:1007C000F4CF00F0F3CF08F00402F3500C26F450FD
:1007D0000822000E00220D500502F3500C26F450A2
:1007E0000822000E002202500402F3500826F450A2
:1007F000002202500502016A000E0122F350002679
:10080000F45001220D500602F3500826F450002245
:10081000026A000E012202220B500602F35000264B
:10082000F4500122000E02220E500602F35001265F
:10083000F450022202BE25EF04F0083600360136DD
:1008400002360306D8B447EF04F038EF04F0D8803E
:10085000800E08640030000E002201220222D8A07F
:1008600038EF04F0023201320032034A42EF04F062
:100870000AAE029E000E4AEF04F0010E29EC00F0D1
:100880004AEF04F0020E30EC00F04AEF04F0040EE0
:060890001CEC00F0120058
:100896000B800BAE57EF04F0026A0AAEFF0E026E33
:0C08A600016E006E0A360232FF0E1200D6
:0808B2000B6A0B86FF0E120019
:1008BA00086A080E0C6E003408360450085ED8B078
:0E08CA0002D00826D89000360C2EF5D712006A
:1008D8000450000A08E10550000A05E1FF0E006E09
:1008E8007F0E016E57D00D6A096A086A0150001020
:1008F800D8B4000C015005180A6E0ABE0D1E0B6A0A
:1009080005AE05D0041E051E042AD8B4052A01AE7A
:1009180005D0001E011E002AD8B4012A0150051076
:100928000A6E0ABE10D0F4DE0BB020D00DAE000C5B
:10093800001E011E002AD8B4012A081E091E082A12
:10094800D8B4092A000C05AE0DD001BE07D001505D
:10095800096E0050086E016A006AE8D7016A006AE9
:10096800002A000C011E001E0B2ADDD7082AD8B465
:10097800092A0450085CD8A4D9D70550095CD8A422
:10098800D5D7096A086A002AD8B4012A01AECED799
:060998000000FF0C12003C
:10099E000450000A12E10550000A0FE10650000A49
:1009AE000CE10750000A09E1FF0E006EFF0E016E0A
:1009BE007F0E026EFF0E036EA7D0086A096A0750FB
:1009CE00D8B47AEF05F00350D8B47EEF05F002509C
:1009DE0006180A6E028E068E0E6A02C008F001C05C
:1009EE000CF000C00DF004500D5E0550D8A0053C73
:1009FE000C5E0650D8A0063C085E086A0C6A0D6AAA
:100A0E00D8A011EF05F0D890023201320032083230
:100A1E00010E0E6E0750035ED8A01EEF05F07E0E7F
:100A2E000E240326D8B083EF05F024EF05F07E0EDA
:100A3E000E240326D8A088EF05F0180E0B6E0D3687
:100A4E000C3608360036013602360E360450005E7D
:100A5E000550D8A0053C015E0650D8A0063C025EAB
:100A6E0006340E120EA03FEF05F00D804AEF05F092
:100A7E00045000260550D8B0053C01260650D8B0CB
:100A8E00062802260D900B2E26EF05F070EF05F0CE
:100A9E00D8900036013602360E360450005E0550F0
:100AAE00D8A0053C015E0650D8A0063C025E063476
:100ABE000E10010B0D26D8B00C2AD8B4082AD8A4D3
:100ACE0070EF05F008320C320D32032AD8B483EFE2
:100ADE0005F00AAE089E0850026E0C50016E0D50C5
:100AEE00006E8BEF05F0010EDDDE8BEF05F0020ED2
:100AFE0029EC00F08BEF05F0040E30EC00F08BEFDC
:0A0B0E0005F0080E1CEC00F01200C8
:100B180003500718D8A4A0EF05F002500618D8A46F
:100B2800A0EF05F001500518D8A4A0EF05F000507B
:0E0B38000418D8B4D8841200D8941200120009
:100B46000B6A0A6A096A00500402F4CF09F0F3CF6F
:100B560008F001500502F4CF0BF0F3CF0AF0005075
:100B66000502F3500926F4500A22E86A0B220150C6
:100B76000402F3500926F4500A22E86A0B2208C040
:100B860000F009C001F00AC002F00BC003F0120029
:100B960001013551390806E3300E355D03E3010ED8
:080BA600006E01D0006A12008C
:100BAE00800E01013519006E800E000A005CD8B06F
:100BBE0064D135510008016E01C035F1800E011867
:100BCE00006E800E6E0A005CD8A0BAD0640E046E61
:100BDE0035C100F04BDD120E0024056E000E00BE76
:100BEE00FF0E066E000E062205C000F006C001F0D4
:100BFE00000E06BEFF0E026E036E0036009001362A
:100C0E000236033600360090013602360336500E99
:100C1E000024F66E410E0120F76E000E0220F86ED3
:100C2E000900F5CF36F10900F5CF37F10900F5CF00
:100C3E0038F10900F5CF39F1640E046E35C100F0BC
:100C4E0015DD08C000F00A0E046E10DD090E00243A
:100C5E00056E000E00BEFF0E066E000E062205C0CB
:100C6E0000F006C001F0000E06BEFF0E026E036E0F
:100C7E0000360090013602360336003600900136FB
:100C8E0002360336500E0024F66E410E0120F76E2A
:100C9E00000E0220F86E0900F5CF00F00900F5CF26
:100CAE0001F00900F5CF02F00900F5CF03F036C1CF
:100CBE0004F037C105F038C106F039C107F051DD37
:100CCE0000C036F101C037F102C038F103C039F16E
:100CDE000A0E046E35C100F0C9DC08C000F000C079
:100CEE0001F0000E00BEFF0E026E036E046E0136A2
:100CFE000190023603360436013601900236033671
:100D0E000436500E0124F66E410E0220F76E000ED0
:100D1E000320F86E0900F5CF00F00900F5CF01F0C1
:100D2E000900F5CF02F00900F5CF03F036C104F04B
:100D3E0037C105F038C106F039C107F012DD04D213
:100D4E00800E0A0A006E800E3519005C6EE20A0EE5
:100D5E00046E35C100F08ADC090E0024056E000E0B
:100D6E0000BEFF0E066E000E062205C000F006C085
:100D7E0001F0000E06BEFF0E026E036E00360090EE
:100D8E00013602360336003600900136023603363F
:100D9E00500E0024F66E410E0120F76E000E02205A
:100DAE00F86E0900F5CF36F10900F5CF37F10900DD
:100DBE00F5CF38F10900F5CF39F10A0E046E35C1C1
:100DCE0000F054DC08C000F000C001F0000E00BEC0
:100DDE00FF0E026E036E046E01360190023603366C
:100DEE00043601360190023603360436500E0124C5
:100DFE00F66E410E0220F76E000E0320F86E09000B
:100E0E00F5CF00F00900F5CF01F00900F5CF02F0A3
:100E1E000900F5CF03F036C104F037C105F038C133
:100E2E0006F039C107F09DDC8FD135C100F0000E00
:100E3E0035BFFF0E016E026E036E00360090013656
:100E4E000236033600360090013602360336500E57
:100E5E000024F66E410E0120F76E000E0220F86E91
:100E6E000900F5CF00F00900F5CF01F00900F5CF2C
:100E7E0002F00900F5CF03F067D1800E3519006E30
:100E8E00800E6E0A005CD8A0C0D0640E046E35C110
:100E9E0000F03DEC03F0120E0024056E000E00BEB5
:100EAE00FF0E066E000E062205C000F006C001F011
:100EBE00000E06BEFF0E026E036E00360090013667
:100ECE0002360336003600900136023603361C0E0B
:100EDE000024F66E410E0120F76E000E0220F86E11
:100EEE000900F5CF36F10900F5CF37F10900F5CF3E
:100EFE0038F10900F5CF39F1640E046E35C100F0FA
:100F0E003DEC03F008C000F00A0E046E3DEC03F059
:100F1E00090E0024056E000E00BEFF0E066E000EBA
:100F2E00062205C000F006C001F0000E06BEFF0E40
:100F3E00026E036E0036009001360236033600361E
:100F4E0000900136023603361C0E0024F66E410E5A
:100F5E000120F76E000E0220F86E0900F5CF00F0AA
:100F6E000900F5CF01F00900F5CF02F00900F5CF29
:100F7E0003F036C104F037C105F038C106F039C1AF
:100F8E0007F0B8EC03F000C036F101C037F102C033
:100F9E0038F103C039F10A0E046E35C100F03DEC94
:100FAE0003F008C000F000C001F0000E00BEFF0EFE
:100FBE00026E036E046E013601900236033604365D
:100FCE00013601900236033604361C0E0124F66EED
:100FDE00410E0220F76E000E0320F86E0900F5CFC9
:100FEE0000F00900F5CF01F00900F5CF02F009007D
:100FFE00F5CF03F036C104F037C105F038C106F065
:10100E0039C107F0B8EC03F09FD0800E0A0A006ECB
:10101E00800E3519005C71E20A0E046E35C100F0C7
:10102E003DEC03F0090E0024056E000E00BEFF0E0F
:10103E00066E000E062205C000F006C001F0000E7E
:10104E0006BEFF0E026E036E0036009001360236AB
:10105E000336003600900136023603361C0E00248D
:10106E00F66E410E0120F76E000E0220F86E09009A
:10107E00F5CF36F10900F5CF37F10900F5CF38F18C
:10108E000900F5CF39F10A0E046E35C100F03DECC2
:10109E0003F008C000F000C001F0000E00BEFF0E0D
:1010AE00026E036E046E013601900236033604366C
:1010BE00013601900236033604361C0E0124F66EFC
:1010CE00410E0220F76E000E0320F86E0900F5CFD8
:1010DE0000F00900F5CF01F00900F5CF02F009008C
:1010EE00F5CF03F036C104F037C105F038C106F074
:1010FE0039C107F0B8EC03F027D035C100F0000E6F
:10110E0035BFFF0E016E026E036E00360090013683
:10111E0002360336003600900136023603361C0EB8
:10112E000024F66E410E0120F76E000E0220F86EBE
:10113E000900F5CF00F00900F5CF01F00900F5CF59
:0A114E0002F00900F5CF03F01200D3
:101158000A6A0350D8A40A800750D8A40A820A5001
:10116800D8B40FEF09F0030AD8B4C8EF08F00AB0F2
:10117800C3EF08F006AE0DEF09F00BEF09F002AE71
:101188000BEF09F00DEF09F00250800B0A6E029E7A
:101198000650800B069E0A18D8B4D9EF08F00A50FA
:1011A800D8B40BEF09F00DEF09F00750035CD8B481
:1011B800E3EF08F0D8A0FFEF08F005EF09F00650BC
:1011C800025CD8B4EDEF08F0D8A0FFEF08F005EF07
:1011D80009F00550015CD8B4F7EF08F0D8A0FFEF8C
:1011E80008F005EF09F00450005CD8B40FEF09F0DF
:1011F800D8B005EF09F00A52D8B40DEF09F00BEF9B
:1012080009F00A52D8B40BEF09F00DEF09F0D880B5
:0E1218001200D8901200D880D8841200120064
:08122600067E2DEC01F0120020
:10122E000B6A0A6A096A086A0E6A033408360450A1
:10123E00085E0550D8A0053C095E0650D8A0063CB5
:10124E000A5E0750D8A0073C0B5EE86AD8A0010ED4
:10125E000E5E0336070E0C6E0334083609360A3658
:10126E000B360E36045003A012D0085E0550D8A0DF
:10127E00053C095E0650D8A0063C0A5E0750D8A071
:10128E00073C0B5EE86AD8A0010E0E5E11D0082650
:10129E000550D8B0053C09260650D8B0063C0A26A3
:1012AE000750D8B0073C0B26E86AD8B0010E0E26C0
:1012BE0003360C2ED1D70234083609360A360B36D1
:1012CE000E36045003A012D0085E0550D8A0053C7F
:1012DE00095E0650D8A0063C0A5E0750D8A0073C0F
:1012EE000B5EE86AD8A0010E0E5E11D008260550DE
:1012FE00D8B0053C09260650D8B0063C0A26075041
:10130E00D8B0073C0B26E86AD8B0010E0E2602367E
:10131E00070E0C6E0234083609360A360B360E36B8
:10132E00045002A012D0085E0550D8A0053C095EFC
:10133E000650D8A0063C0A5E0750D8A0073C0B5EAC
:10134E00E86AD8A0010E0E5E11D008260550D8B05E
:10135E00053C09260650D8B0063C0A260750D8B0E0
:10136E00073C0B26E86AD8B0010E0E2602360C2E6C
:10137E00D1D70134083609360A360B360E360450EC
:10138E0002A012D0085E0550D8A0053C095E06509A
:10139E00D8A0063C0A5E0750D8A0073C0B5EE86A50
:1013AE00D8A0010E0E5E11D008260550D8B0053C0F
:1013BE0009260650D8B0063C0A260750D8B0073C7E
:1013CE000B26E86AD8B0010E0E260136070E0C6EFB
:1013DE000134083609360A360B360E36045001A093
:1013EE0012D0085E0550D8A0053C095E0650D8A064
:1013FE00063C0A5E0750D8A0073C0B5EE86AD8A0F0
:10140E00010E0E5E11D008260550D8B0053C0926F7
:10141E000650D8B0063C0A260750D8B0073C0B261B
:10142E00E86AD8B0010E0E2601360C2ED1D7003444
:10143E00083609360A360B360E36045001A012D085
:10144E00085E0550D8A0053C095E0650D8A0063CA3
:10145E000A5E0750D8A0073C0B5EE86AD8A0010EC2
:10146E000E5E11D008260550D8B0053C0926065050
:10147E00D8B0063C0A260750D8B0073C0B26E86ABF
:10148E00D8B0010E0E260036070E0C6E003408364C
:10149E0009360A360B360E36045000A012D0085EFE
:1014AE000550D8A0053C095E0650D8A0063C0A5E41
:1014BE000750D8A0073C0B5EE86AD8A0010E0E5E5E
:1014CE0011D008260550D8B0053C09260650D8B0D4
:1014DE00063C0A260750D8B0073C0B26E86AD8B05F
:1014EE00010E0E2600360C2ED1D700B00ED00450B1
:1014FE0008260550D8B0053C09260650D8B0063C43
:0C150E000A260750D8B0073C0B2612003C
:10151A006E0E0101355DD8A0CAD0640E046E35C1C5
:10152A0000F05DEC04F0120E0024056E066A000E4F
:10153A00062205C000F006C001F0000E06BEFF0E2E
:10154A00026E036E0036009001360236033600360C
:10155A000090013602360336500E0024F66E410E14
:10156A000120F76E000E0220F86E0900F5CF00F098
:10157A000900F5CF01F00900F5CF02F00900F5CF17
:10158A0003F0000E046E000E056E000E066E7E0E4F
:10159A00076EB8EC03F000C036F101C037F102C0A3
:1015AA0038F103C039F1640E046E35C100F05DEC08
:1015BA0004F008C000F00A0E046E5DEC04F0090E97
:1015CA000024056E066A000E062205C000F006C059
:1015DA0001F0000E06BEFF0E026E036E003600908A
:1015EA0001360236033600360090013602360336DB
:1015FA00500E0024F66E410E0120F76E000E0220F6
:10160A00F86E0900F5CF00F00900F5CF01F00900E6
:10161A00F5CF02F00900F5CF03F036C104F037C167
:10162A0005F038C106F039C107F0B8EC03F000C084
:10163A0036F101C037F102C038F103C039F10A0EA0
:10164A00046E35C100F05DEC04F008C000F000C083
:10165A0001F0000E026E036E046E0136019002362E
:10166A000336043601360190023603360436500E2C
:10167A000124F66E410E0220F76E000E0320F86E6A
:10168A000900F5CF00F00900F5CF01F00900F5CF08
:10169A0002F00900F5CF03F036C104F037C105F0B6
:1016AA0038C106F039C107F0B8EC03F0B1D03551B2
:1016BA000A08D8B07ED00A0E046E35C100F05DEC7F
:1016CA0004F0090E0024056E066A000E062205C003
:1016DA0000F006C001F0000E06BEFF0E026E036E99
:1016EA000036009001360236033600360090013685
:1016FA0002360336500E0024F66E410E0120F76EB4
:10170A00000E0220F86E0900F5CF00F00900F5CFAF
:10171A0001F00900F5CF02F00900F5CF03F0000E41
:10172A00046E000E056E000E066E7E0E076EB8EC95
:10173A0003F000C036F101C037F102C038F103C02E
:10174A0039F10A0E046E35C100F05DEC04F008C0F0
:10175A0000F000C001F0000E026E036E046E013646
:10176A0001900236033604360136019002360336FA
:10177A000436500E0124F66E410E0220F76E000E5A
:10178A000320F86E0900F5CF00F00900F5CF01F04B
:10179A000900F5CF02F00900F5CF03F036C104F0D5
:1017AA0037C105F038C106F039C107F0B8EC03F0CB
:1017BA002FD035C100F0000E016E026E036E0036A6
:1017CA0000900136023603360036009001360236A2
:1017DA000336500E0024F66E410E0120F76E000EFD
:1017EA000220F86E0900F5CF00F00900F5CF01F0EC
:1017FA000900F5CF02F00900F5CF03F0000E046EE0
:10180A00000E056E000E066E7E0E076EB8EC03F033
:02181A001200BA
:10181C000B6A0C6A086A0350D8B492EF0CF002C041
:10182C000AF0028E9E0E035E03AE82EF0CF0036C88
:10183C00080E035CD8A04FEF0CF0036E083600C006
:10184C0008F001C000F002C001F0026A080E035C4F
:10185C00D8A04FEF0CF0036E083600C008F001C0A2
:10186C0000F0016A080E035CD8A04FEF0CF0036E79
:10187C00083600C008F0006A080E035CD8A04FEFD1
:10188C000CF0036E0836086A0350D8A4D8905BEFAE
:10189C000CF00350D8B45BEF0CF0D890023201324C
:1018AC0000320832032E53EF0CF00BBC08A06CEF87
:1018BC000CF0D8A06CEF0CF0082AD8B4002AD8B4DD
:1018CC00012AD8B4022A02BE96EF0CF00AAE92EFAF
:1018DC000CF0021E011E001E081E082AD8B4002A95
:1018EC00D8B4012AD8B4022A92EF0CF0026A016A29
:1018FC00006A086A92EF0CF00B800BAE9DEF0CF0B7
:10190C00026A0AAE9DEF0CF0026E016E006E086E5C
:10191C000A3602329DEF0CF00C6A000E9EEF0CF0B2
:10192C00010E0C6E000E4BEC04F09EEF0CF0FF0E53
:10193C000250036E0150026E0050016E0850006E92
:02194C00120087
:10194E000050086E0150006E0250016E0350026E80
:10195E00036A0B6A0C6A9E0E036E0A6A020E0C6E06
:06196E003CEC00F0120049
:101974000B6A0C6A0A6A086A0350D8B442EF0DF085
:10198400028E9E0E035E03BECDEF0CF0D8B4CDEFF5
:101994000CF032EF0DF0036C080E035CD8A0FFEFDF
:1019A4000CF0036E083600C008F001C000F002C05D
:1019B40001F0026A080E035CD8A0FFEF0CF0036E7E
:1019C400083600C008F001C000F0016A080E035C8C
:1019D400D8A0FFEF0CF0036E083600C008F0006AD0
:1019E400080E035CD8A0FFEF0CF0036E0836086AFB
:1019F4000350D8A4D8900BEF0DF00350D8B40BEFDC
:101A04000DF0D8900232013200320832032E03EF77
:101A14000DF00BBC08A01CEF0DF0D8A01CEF0DF0CE
:101A2400082AD8B4002AD8B4012AD8B4022A02BE9B
:101A340046EF0DF00AAE42EF0DF0021E011E001E2D
:101A4400081E082AD8B4002AD8B4012AD8B4022A15
:101A540042EF0DF0026A016A006A086A42EF0DF073
:101A64000B800BAE4CEF0DF0026A0AAE4CEF0DF09A
:101A7400026E016E006E086E0A3602324CEF0DF0F3
:101A8400000E0C6A4DEF0DF0010E0C6E4BEC04F0E1
:101A94004DEF0DF0FF0E0250036E0150026E005028
:081AA400016E0850006E1200F3
:101AAC0001012D6B2E6B216B226B0FC100F010C14D
:101ABC0001F011C102F0010E0F27000E10231123AB
:101ACC0000C0F6FF01C0F7FF02C0F8FF0900F5CF18
:101ADC0000F000C01EF10052D8B464EF1DF01E518E
:101AEC00250A0BE00DC1E1FF0EC1E2FF1EC1E6FFAE
:101AFC000D4B0E2B2D4B2E2BD8D71F6B206B216B28
:101B0C00226B23D02187010E0F27000E10231123E7
:101B1C0059D02181010E0F27000E1023112352D012
:101B2C002183010E0F27000E102311234BD0228787
:101B3C00010E0F27000E1023112344D02185010E16
:101B4C000F27000E102311233DD00FC1F6FF10C13B
:101B5C00F7FF11C1F8FF0900F5CF01F001502D0A74
:101B6C00D1E00FC1F6FF10C1F7FF11C1F8FF09005A
:101B7C00F5CF01F00150200ACCE00FC1F6FF10C1E7
:101B8C00F7FF11C1F8FF0900F5CF01F001502B0A46
:101B9C00C7E00FC1F6FF10C1F7FF11C1F8FF090034
:101BAC00F5CF01F00150230AC2E00FC1F6FF10C1BE
:101BBC00F7FF11C1F8FF0900F5CF01F00150300A11
:101BCC00BDE001D09ED721A301D0219121A701D046
:101BDC0021950FC1F6FF10C1F7FF11C1F8FF0900E5
:101BEC00F5CF00F0000E016E00C035F1CBEC05F026
:101BFC00005236E01F6B206B1FC100F020C101F0BA
:101C0C000A0E046E000E056EA3EC05F00FC1F6FF74
:101C1C0010C1F7FF11C1F8FF0900F5CF02F0025017
:101C2C0000241F6F000E0120206F300E1F5F000E6E
:101C3C00205B010E0F27000E102311230FC1F6FF9E
:101C4C0010C1F7FF11C1F8FF0900F5CF00F0000E2D
:101C5C00016E00C035F1CBEC05F00052CDE133D074
:101C6C000FC1F6FF10C1F7FF11C1F8FF0900F5CF46
:101C7C0001F001502A0A27E112C1E9FF13C1EAFF62
:101C8C00EECF00F0EECF01F000C0E9FF01C0EAFF9B
:101C9C00EECF1FF1EECF20F112C1E9FF13C1EAFF25
:101CAC00020EEE24006E000EEE20016E12C1E1FF5A
:101CBC0013C1E2FF00C0E6FF01C0E6FF010E0F27D3
:101CCC00000E102311230FC1F6FF10C1F7FF11C135
:101CDC00F8FF0900F5CF01F001502E0A70E1010E5A
:101CEC000F27000E102311230FC1F6FF10C1F7FFB1
:101CFC0011C1F8FF0900F5CF01F001502A0A28E1C3
:101D0C0012C1E9FF13C1EAFFEECF00F0EECF01F0F4
:101D1C0000C0E9FF01C0EAFFEECF1CF1EECF1DF1D0
:101D2C0012C1E9FF13C1EAFF020EEE24006E000E91
:101D3C00EE20016E12C1E1FF13C1E2FF00C0E6FF0D
:101D4C0001C0E6FF010E0F27000E1023112336D021
:101D5C001C6B1D6B0FC1F6FF10C1F7FF11C1F8FF13
:101D6C000900F5CF00F0000E016E00C035F1CBEC90
:101D7C0005F0005223E01CC100F01DC101F00A0E59
:101D8C00046E000E056EA3EC05F00FC1F6FF10C13A
:101D9C00F7FF11C1F8FF0900F5CF02F00250002443
:101DAC001C6F000E01201D6F300E1C5F000E1D5BA2
:101DBC00010E0F27000E10231123CCD703D01C6B60
:101DCC001D6B22890FC100F010C101F011C102F08E
:101DDC00010E0F27000E1023112300C0F6FF01C0C7
:101DEC00F7FF02C0F8FF0900F5CF1EF1F9D02DC1A5
:101DFC0000F02EC101F068EF1DF02189E3D7228598
:101E0C002ED1218B22812BD1228329D1218D27D137
:101E1C0026D1218B218F23D112C1E9FF13C1EAFFF7
:101E2C00EECF00F0EECF01F000C0E9FF01C0EAFFF9
:101E3C00EECF29F1EECF2AF112C1E9FF13C1EAFF6F
:101E4C00020EEE24006E000EEE20016E12C1E1FFB8
:101E5C0013C1E2FF00C0E6FF01C0E6FF000E2A1925
:101E6C0002E1000E291904E1B70E296F000E2A6F4A
:101E7C002B6B2C6B2B512925E96E2C512A21EA6EE8
:101E8C00EE520BE0010E2B25006E000E2C21016E84
:101E9C0000C02BF101C02CF1EDD71C511D110AE033
:101EAC002C511D5D02E12B511C5D04E21CC12BF178
:101EBC001DC12CF120512C5D02E11F512B5D05E25F
:101ECC002B511F5F2C51205B02D01F6B206B21B755
:101EDC0016D01FC100F020C101F0010E1F5F000ED3
:101EEC00205B005001100BE00DC1E1FF0EC1E2FFC1
:101EFC00200EE66E0D4B0E2B2D4B2E2BEAD72BC145
:101F0C0002F02CC103F0010E2B5D006E000E2C595B
:101F1C00016E00C02BF101C02CF10250031019E02E
:101F2C0029C1E9FF2AC1EAFF0DC1E1FF0EC1E2FFA1
:101F3C00EECFE6FF0D4B0E2B010E2925006E000E89
:101F4C002A21016E00C029F101C02AF12D4B2E2B44
:101F5C00D6D721A716D01FC100F020C101F0010E69
:101F6C001F5F000E205B005001100BE00DC1E1FF64
:101F7C000EC1E2FF200EE66E0D4B0E2B2D4B2E2BC1
:101F8C00EAD793D512C1E9FF13C1EAFFEECF00F0F7
:101F9C00EECF01F000C0E9FF01C0EAFFEECF1EF169
:101FAC0012C1E9FF13C1EAFF020EEE24006E000E0F
:101FBC00EE20016E12C1E1FF13C1E2FF00C0E6FF8B
:101FCC0001C0E6FF1E0E296F010E2A6F010E2B6F4A
:101FDC00000E2C6F62D7C00E2113000E22133FD0BF
:101FEC001E51000AD8B403D71E516C0AD8B405D7B9
:101FFC001E514C0AD8B401D71E51660AD8B4FFD66C
:10200C001E51450AD8B4FDD61E51650AD8B4FAD66D
:10201C001E51670AD8B4F8D61E516F0AD8B4F6D63A
:10202C001E51640AD8B4F4D61E51690AD8B4F0D63D
:10203C001E51700AD8B4EDD61E51580AD8B4E9D640
:10204C001E51780AD8B4E6D61E51730AD8B4E4D619
:10205C001E51630A97E01E51750ABDE0B3D7000EFE
:10206C002115006E2251070B016E00500110D8B4DF
:10207C000BEF19F022A904D0060E1C6F000E1D6F79
:10208C0012C1E9FF13C1EAFFEECF00F0EECF01F071
:10209C0000C0E9FF01C0EAFFEECF23F1EECF24F13F
:1020AC00EECF25F1EECF26F112C1E9FF13C1EAFF05
:1020BC00040EEE24006E000EEE20016E12C1E1FF44
:1020CC0013C1E2FF00C0E6FF01C0E6FF046A056A27
:1020DC00066A076A23C100F024C101F025C102F091
:1020EC0026C103F0ACEC08F0010ED8B0000E006E67
:1020FC00005205E0257F030E2113000E2213276BDF
:10210C00286B23C100F024C101F025C102F026C1C7
:10211C0003F0046A056A066A076A8CEC05F0000E87
:10212C00D8A4010E006E0052D8B48AD026C100F09B
:10213C00016A026A036AFF0E0016000E01167E0E7B
:10214C00005E000E015A00C027F101C028F1010EFB
:10215C00005E000E015A00C027F101C028F1030EE9
:10216C00046E000E056EA3EC05F000C027F101C053
:10217C0028F10A0E046E000E056E6CEC04F000C023
:10218C0027F101C028F1800E0118026E800E025C4E
:10219C0002E1000E005C05E2010E0101275F000E5A
:1021AC00285B010127510008356FD7EC05F023C1DE
:1021BC0004F024C105F025C106F026C107F0B8ECE7
:1021CC0003F000C029F101C02AF102C02BF103C0B9
:1021DC002CF1000E046E000E056E000E066E7F0EC6
:1021EC00076E29C100F02AC101F02BC102F02CC1ED
:1021FC0003F0ACEC08F0010ED8B0000E006E0052EB
:10220C0005E0010E275F000E285B1AD0000E046E4D
:10221C00000E056E200E066E820E076E29C100F0B0
:10222C002AC101F02BC102F02CC103F0ACEC08F078
:10223C00000ED8B0010E006E005202E0274B282B86
:10224C00800E006E800E2819005C02E127510008F8
:10225C0003E3010E1E6F02D027C11EF122B118D06C
:10226C0022A315D0800E2819006E7F0E005C02E1AF
:10227C00FC0E275D0BE3800E2819006E800E1D19D5
:10228C00005C02E11C51275D01E201D001D0EFD3CB
:10229C001C511D1106E022A304D0010E1C5F000E80
:1022AC001D5B1D51000802E11C51080803E2080ED9
:1022BC001E6F02D01CC11EF123C100F024C101F01D
:1022CC0025C102F026C103F0046A056A066A076A92
:1022DC008CEC05F0000ED8A4010E006E0052D8B4A0
:1022EC004BD127C135F1D7EC05F000C004F001C08B
:1022FC0005F002C006F003C007F023C100F024C1B2
:10230C0001F025C102F026C103F0CFEC04F000C0AF
:10231C0023F101C024F102C025F103C026F1010113
:10232C001E510008356FD7EC05F000C004F001C059
:10233C0005F002C006F003C007F023C100F024C171
:10234C0001F025C102F026C103F0CFEC04F000C06F
:10235C002FF101C030F102C031F103C032F12FC1B5
:10236C0023F130C124F131C125F132C126F12FC145
:10237C0000F030C101F031C102F032C103F0BAEC0F
:10238C000CF0A7EC0CF000C004F001C005F002C08A
:10239C0006F003C007F02FC100F030C101F031C1CD
:1023AC0002F032C103F013EC09F0000E046E000EC3
:1023BC00056E000E066E7E0E076EACEC08F0000E7D
:1023CC00D8B0010E006E00521AE023C100F024C1F7
:1023DC0001F025C102F026C103F0000E046E000EC0
:1023EC00056E000E066E7E0E076E2DEC01F000C021
:1023FC0023F101C024F102C025F103C026F123C151
:10240C0000F024C101F025C102F026C103F0BAECA2
:10241C000CF001011E51010F096E0A6A000E0A220E
:10242C0009C004F00AC005F0000E0ABEFF0E066ECD
:10243C00076E0436049005360636073604360490CB
:10244C00053606360736B40E0424F66E410E05200A
:10245C00F76E000E0620F86E0900F5CF05F00900A6
:10246C00F5CF06F00900F5CF07F00900F5CF08F01D
:10247C000850035C08E10750025C05E10650015C62
:10248C0002E10550005C1EE3010123C100F024C1F0
:10249C0001F025C102F026C103F0CD0E046ECC0E66
:1024AC00056E4C0E066E7B0E076EB8EC03F000C08A
:1024BC0023F101C024F102C025F103C026F1274B02
:1024CC00282B5AD023C100F024C101F025C102F001
:1024DC0026C103F0BAEC0CF01EC104F0000E056E20
:1024EC00066E076E0436049005360636073604363B
:1024FC000490053606360736B40E0424F66E410EEB
:10250C000520F76E000E0620F86E0900F5CF05F0D9
:10251C000900F5CF06F00900F5CF07F00900F5CF5B
:10252C0008F00850035C08E10750025C05E1065016
:10253C00015C02E10550005C1FE2010123C100F0C7
:10254C0024C101F025C102F026C103F0000E046E77
:10255C00000E056E200E066E820E076EB8EC03F0B0
:10256C0000C023F101C024F102C025F103C026F103
:10257C00010E275F000E285B010122A393D022B726
:10258C0091D0800E000A006E800E1D19005C02E1D5
:10259C001C510A0804E20A0E1C6F000E1D6F23C1A9
:1025AC0000F024C101F025C102F026C103F0BAEC01
:1025BC000CF000C029F101C02AF102C02BF103C0BC
:1025CC002CF129512A112B112C1142E00A0E046E08
:1025DC00000E056E066E076E29C100F02AC101F0CF
:1025EC002BC102F02CC103F017EC09F008C000F06D
:1025FC0009C001F00AC002F00BC003F0000E046E1B
:10260C00031808E10450021805E10450011802E116
:10261C000050000A1DE1010E1C5F000E1D5B0A0E2E
:10262C00046E000E056E066E076E29C100F02AC1FD
:10263C0001F02BC102F02CC103F017EC09F000C023
:10264C0029F101C02AF102C02BF103C02CF1B9D73A
:10265C00800E1D19006E800E005C02E11E511C5D87
:10266C0021E21C511E5D356FD7EC05F000C004F063
:10267C0001C005F002C006F003C007F023C100F052
:10268C0024C101F025C102F026C103F0CFEC04F007
:10269C0000C023F101C024F102C025F103C026F1D2
:1026AC001CC11EF1050E01011C25006E000E1D2122
:1026BC00016E00501F5F0150205B1C511D1103E186
:1026CC0022B701D004D0010E1F5F000E205B030E59
:1026DC002115006E22C101F0000E011600500110F0
:1026EC0004E0010E1F5F000E205B21A539D021A351
:1026FC0012D021A103D02D0E146F02D02B0E146F0B
:10270C000DC1E1FF0EC1E2FF14C1E6FF0D4B0E2B14
:10271C002D4B2E2B0CD021A10AD00DC1E1FF0EC1E7
:10272C00E2FF200EE66E0D4B0E2B2D4B2E2B800E4A
:10273C00006E800E2019005C02E11F5100080FE2B0
:10274C000DC1E1FF0EC1E2FF300EE66E0D4B0E2BFC
:10275C002D4B2E2B010E1F5F000E205BE8D73AD0BD
:10276C0021B718D0800E006E800E2019005C02E19B
:10277C001F5100080FE20DC1E1FF0EC1E2FF200E58
:10278C00E66E0D4B0E2B2D4B2E2B010E1F5F000EEC
:10279C00205BE8D721A312D021A103D02D0E156FF9
:1027AC0002D02B0E156F0DC1E1FF0EC1E2FF15C15A
:1027BC00E6FF0D4B0E2B2D4B2E2B0CD021A10AD04E
:1027CC000DC1E1FF0EC1E2FF200EE66E0D4B0E2B8C
:1027DC002D4B2E2B23C100F024C101F025C102F09A
:1027EC0026C103F0BAEC0CF000C029F101C02AF1AB
:1027FC0002C02BF103C02CF11EC100F0000E016EC3
:10280C00026E036E00360090013602360336003637
:10281C000090013602360336B40E0024F66E410EDB
:10282C000120F76E000E0220F86E0900F5CF04F0BF
:10283C000900F5CF05F00900F5CF06F00900F5CF3A
:10284C0007F029C100F02AC101F02BC102F02CC104
:10285C0003F017EC09F0300E00260DC1E1FF0EC19C
:10286C00E2FF00C0E6FF0D4B0E2B2D4B2E2B1C5107
:10287C001D1103E122B701D06FD00DC1E1FF0EC1D4
:10288C00E2FF2E0EE66E0D4B0E2B2D4B2E2B1E51FA
:10289C001C5F000E1D5B1E534DE01E071EC100F099
:1028AC00000E016E026E036E003600900136023689
:1028BC00033600360090013602360336B40E00247F
:1028CC00F66E410E0120F76E000E0220F86E090024
:1028DC00F5CF04F00900F5CF05F00900F5CF06F0AF
:1028EC000900F5CF07F029C100F02AC101F02BC176
:1028FC0002F02CC103F017EC09F00A0E046E000E66
:10290C00056E066E076E17EC09F008C000F009C0E2
:10291C0001F00AC002F00BC003F0300E00260DC10E
:10292C00E1FF0EC1E2FF00C0E6FF0D4B0E2B2D4B5D
:10293C002E2BB1D71C511D110FE00DC1E1FF0EC1A3
:10294C00E2FF300EE66E0D4B0E2B2D4B2E2B010E97
:10295C001C5F000E1D5BEED721AB0BD00DC1E1FF50
:10296C000EC1E2FF450EE66E0D4B0E2B2D4B2E2BA2
:10297C000AD00DC1E1FF0EC1E2FF650EE66E0D4BF4
:10298C000E2B2D4B2E2B800E2819006E800E005C0A
:10299C0002E1000E275D11E227510008276F285134
:1029AC00000E28570DC1E1FF0EC1E2FF2D0EE66EA1
:1029BC000D4B0E2B2D4B2E2B0AD00DC1E1FF0EC152
:1029CC00E2FF2B0EE66E0D4B0E2B2D4B2E2B0A0E13
:1029DC00046E000E056E27C100F028C101F06CECEE
:1029EC0004F0300E00260DC1E1FF0EC1E2FF00C065
:1029FC00E6FF01010D4B0E2B2D4B2E2B0A0E046EF8
:102A0C00000E056E27C100F028C101F06CEC04F03B
:102A1C0008C000F009C001F0300E00260DC1E1FF26
:102A2C000EC1E2FF00C0E6FF01010D4B0E2B2D4B3A
:102A3C002E2B21A71AD0800E006E800E2019005C60
:102A4C0002E11F51000811E20DC1E1FF0EC1E2FFCE
:102A5C00200EE66E0D4B0E2B2D4B2E2B010E1F5FF9
:102A6C00000E205B1F512011EFE15BEF0DF022A354
:102A7C00F3D0800E2819006E800E005C02E1000E6F
:102A8C00275D0AE2010E275D006E000E2859016ECB
:102A9C0000501C5F01501D5B23C100F024C101F0EC
:102AAC0025C102F026C103F0BAEC0CF000C029F1EC
:102ABC0001C02AF102C02BF103C02CF1010E1E6FD4
:102ACC001E510A0A34E01EC100F0000E016E026EA7
:102ADC00036E003600900136023603360036009045
:102AEC00013602360336B40E0024F66E410E012078
:102AFC00F76E000E0220F86E0900F5CF01F0090008
:102B0C00F5CF02F00900F5CF03F00900F5CF04F082
:102B1C0004502C5D08E103502B5D05E102502A5D49
:102B2C0002E10150295D01E202D01E2BC9D71E51D2
:102B3C001C5D336F000E1D59346F33C11CF134C151
:102B4C001DF129C100F02AC101F02BC102F02CC1EA
:102B5C0003F0A7EC0CF000C004F001C005F002C0BB
:102B6C0006F003C007F023C100F024C101F025C119
:102B7C0002F026C103F013EC09F000C02FF101C0E4
:102B8C0030F102C031F103C032F133C135F1D7EC71
:102B9C0005F02FC104F030C105F031C106F032C18F
:102BAC0007F0B8EC03F0000E046E000E056E000E7C
:102BBC00066E7E0E076E2DEC01F0BAEC0CF000C028
:102BCC0029F101C02AF102C02BF103C02CF11C51D8
:102BDC001D1142E00A0E046E000E056E066E076EA5
:102BEC0029C100F02AC101F02BC102F02CC103F065
:102BFC0017EC09F008C000F009C001F00AC002F09F
:102C0C000BC003F0000E046E031808E10450021808
:102C1C0005E10450011802E10050000A1DE10A0E02
:102C2C00046E000E056E066E076E29C100F02AC1F7
:102C3C0001F02BC102F02CC103F017EC09F000C01D
:102C4C0029F101C02AF102C02BF103C02CF1010EB5
:102C5C001C5F000E1D5BBBD7800E006E800E1D1915
:102C6C00005C02E11C510C0816E31CC135F18DEC23
:102C7C000AF023C104F024C105F025C106F026C1D9
:102C8C0007F02DEC01F000C023F101C024F102C0CB
:102C9C0025F103C026F123C100F024C101F025C1A8
:102CAC0002F026C103F0046A056A066A076A8CEC16
:102CBC0005F0000ED8A4010E006E0052D8B477D0E7
:102CCC0023C100F024C101F025C102F026C103F09C
:102CDC00BAEC0CF0000E046E031808E10450021854
:102CEC0005E10450011802E10050000A60E1800E79
:102CFC00006E800E2819005C02E12751010857E292
:102D0C0027C135F1D7EC05F000C004F001C005F087
:102D1C0002C006F003C007F023C100F024C101F08B
:102D2C0025C102F026C103F0CFEC04F05F0E046E57
:102D3C00700E056E090E066E810E076EACEC08F077
:102D4C00010ED8B0000E006E005206E0090E010113
:102D5C00275F000E285B05D00101080E275F000ECF
:102D6C00285B27C135F1D7EC05F000C004F001C099
:102D7C0005F002C006F003C007F023C100F024C127
:102D8C0001F025C102F026C103F0CFEC04F0BAEC3F
:102D9C000CF000C029F101C02AF102C02BF103C0D4
:102DAC002CF10101236B246B256B266B38D023C1CE
:102DBC0000F024C101F025C102F026C103F0BAECE9
:102DCC000CF000C029F101C02AF102C02BF103C0A4
:102DDC002CF129C100F02AC101F02BC102F02CC149
:102DEC0003F0A7EC0CF000C004F001C005F002C029
:102DFC0006F003C007F023C100F024C101F025C187
:102E0C0002F026C103F013EC09F000C023F101C05D
:102E1C0024F102C025F103C026F1276B286B010EAB
:102E2C001E6F1E510A0A34E01EC100F0000E016E26
:102E3C00026E036E00360090013602360336003601
:102E4C000090013602360336B40E0024F66E410EA5
:102E5C000120F76E000E0220F86E0900F5CF01F08C
:102E6C000900F5CF02F00900F5CF03F00900F5CF0A
:102E7C0004F004502C5D08E103502B5D05E1025079
:102E8C002A5D02E10150295D01E202D01E2BC9D757
:102E9C001E511C25006E000E1D21016E27510026AF
:102EAC002851012200501F5F0150205B22B704D033
:102EBC001C511D1101E104D0010E1F5F000E205B9F
:102ECC00030E2115006E22C101F0000E01160050F8
:102EDC00011004E0010E1F5F000E205B21A539D00C
:102EEC0021A312D021A103D02D0E166F02D02B0ED0
:102EFC00166F0DC1E1FF0EC1E2FF16C1E6FF0D4BCF
:102F0C000E2B2D4B2E2B0CD021A10AD00DC1E1FF85
:102F1C000EC1E2FF200EE66E0D4B0E2B2D4B2E2B11
:102F2C00800E006E800E2019005C02E11F5100081B
:102F3C000FE20DC1E1FF0EC1E2FF300EE66E0D4B4C
:102F4C000E2B2D4B2E2B010E1F5F000E205BE8D796
:102F5C003AD021B718D0800E006E800E2019005C7C
:102F6C0002E11F5100080FE20DC1E1FF0EC1E2FFAB
:102F7C00200EE66E0D4B0E2B2D4B2E2B010E1F5FD4
:102F8C00000E205BE8D721A312D021A103D02D0E77
:102F9C00176F02D02B0E176F0DC1E1FF0EC1E2FFB0
:102FAC0017C1E6FF0D4B0E2B2D4B2E2B0CD021A158
:102FBC000AD00DC1E1FF0EC1E2FF200EE66E0D4BF3
:102FCC000E2B2D4B2E2B1EC100F01E0700524CE079
:102FDC001EC100F0000E016E026E036E00360090F2
:102FEC0001360236033600360090013602360336BF
:102FFC00B40E0024F66E410E0120F76E000E022076
:10300C00F86E0900F5CF04F00900F5CF05F00900C2
:10301C00F5CF06F00900F5CF07F029C100F02AC161
:10302C0001F02BC102F02CC103F017EC09F00A0ED1
:10303C00046E000E056E066E076E17EC09F008C0E4
:10304C0000F009C001F00AC002F00BC003F0300E12
:10305C0000260DC1E1FF0EC1E2FF00C0E6FF0D4BE3
:10306C000E2B2D4B2E2BAFD7800E006E800E2819F9
:10307C00005C02E1275100080FE20DC1E1FF0EC117
:10308C00E2FF300EE66E0D4B0E2B2D4B2E2B010E50
:10309C00275F000E285BE8D7800E000A006E800EBA
:1030AC001D19005C02E11C51080803E2080E1E6F9A
:1030BC0002D01CC11EF11E511C5F000E1D5B1E5365
:1030CC0003E122B701D00AD00DC1E1FF0EC1E2FF2E
:1030DC002E0EE66E0D4B0E2B2D4B2E2B1EC135F1ED
:1030EC00D7EC05F023C104F024C105F025C106F08E
:1030FC0026C107F0B8EC03F00EEC0CF000C029F17F
:10310C0001C02AF102C02BF103C02CF11E534DE07B
:10311C001E071EC100F0000E016E026E036E00361B
:10312C000090013602360336003600900136023626
:10313C000336B40E0024F66E410E0120F76E000E1D
:10314C000220F86E0900F5CF04F00900F5CF05F068
:10315C000900F5CF06F00900F5CF07F029C100F002
:10316C002AC101F02BC102F02CC103F017EC09F0BD
:10317C000A0E046E000E056E066E076E17EC09F053
:10318C0008C000F009C001F00AC002F00BC003F047
:10319C00300E00260DC1E1FF0EC1E2FF00C0E6FFBC
:1031AC000D4B0E2B2D4B2E2BB1D71C511D110FE09F
:1031BC000DC1E1FF0EC1E2FF300EE66E0D4B0E2B82
:1031CC002D4B2E2B010E1C5F000E1D5BEED721A785
:1031DC001AD0800E006E800E2019005C02E11F5187
:1031EC00000811E20DC1E1FF0EC1E2FF200EE66EF8
:1031FC000D4B0E2B2D4B2E2B010E1F5F000E205B4B
:10320C001F512011EFE15BEF0DF0C00E2115016E87
:10321C0022C102F0000E0216000E021802E1000E8E
:10322C000118D8A480D021A927D012C1E9FF13C15D
:10323C00EAFFEECF00F0EECF01F000C0E9FF01C0D5
:10324C00EAFFEECF29F1EECF2AF1EECF2BF1EECF44
:10325C002CF112C1E9FF13C1EAFF040EEE24006E3B
:10326C00000EEE20016E12C1E1FF13C1E2FF00C09F
:10327C00E6FF01C0E6FF2FD012C1E9FF13C1EAFF40
:10328C00EECF00F0EECF01F000C0E9FF01C0EAFF85
:10329C00EECF00F0EECF01F0000E01BEFF0E026E7D
:1032AC00036E00C029F101C02AF102C02BF103C04A
:1032BC002CF112C1E9FF13C1EAFF020EEE24006EDD
:1032CC00000EEE20016E12C1E1FF13C1E2FF00C03F
:1032DC00E6FF01C0E6FF800E2C19006E800E005C2C
:1032EC0008E1000E2B5D05E1000E2A5D02E1000EE7
:1032FC00295D18E2030E2113000E2213006A016AE5
:10330C00026A036A2951005E2A51015A2B51025A52
:10331C002C51035A00C029F101C02AF102C02BF133
:10332C0003C02CF14ED021A927D012C1E9FF13C143
:10333C00EAFFEECF00F0EECF01F000C0E9FF01C0D4
:10334C00EAFFEECF29F1EECF2AF1EECF2BF1EECF43
:10335C002CF112C1E9FF13C1EAFF040EEE24006E3A
:10336C00000EEE20016E12C1E1FF13C1E2FF00C09E
:10337C00E6FF01C0E6FF25D012C1E9FF13C1EAFF49
:10338C00EECF00F0EECF01F000C0E9FF01C0EAFF84
:10339C00EECF29F1EECF2AF1000E2B6F2C6F12C15C
:1033AC00E9FF13C1EAFF020EEE24006E000EEE20C0
:1033BC00016E12C1E1FF13C1E2FF00C0E6FF01C0C4
:1033CC00E6FF000E1D1902E1000E1C190FE1000EA4
:1033DC00006E2C1908E100502B1905E100502A1938
:1033EC0002E12951000A02E11C4B1D2BC00E2115D4
:1033FC00006E00C005F0AED0010E1E6F1E510A0A01
:10340C0034E01EC100F0000E016E026E036E003639
:10341C000090013602360336003600900136023633
:10342C000336B40E0024F66E410E0120F76E000E2A
:10343C000220F86E0900F5CF01F00900F5CF02F07B
:10344C000900F5CF03F00900F5CF04F004502C5D12
:10345C0008E103502B5D05E102502A5D02E10150A9
:10346C00295D01E202D01E2BC9D782D0010E1E6F3E
:10347C001E51080A34E01EC100F0000E016E026EEF
:10348C00036E00360090013602360336003600908B
:10349C00013602360336DC0E0024F66E410E012096
:1034AC00F76E000E0220F86E0900F5CF01F009004E
:1034BC00F5CF02F00900F5CF03F00900F5CF04F0C9
:1034CC0004502C5D08E103502B5D05E102502A5D90
:1034DC0002E10150295D01E202D01E2BC9D748D070
:1034EC00010E1E6F1E510C0A34E01EC100F0000EBE
:1034FC00016E026E036E0036009001360236033602
:10350C0000360090013602360336840E0024F66E27
:10351C00410E0120F76E000E0220F86E0900F5CF67
:10352C0001F00900F5CF02F00900F5CF03F0090016
:10353C00F5CF04F004502C5D08E103502B5D05E140
:10354C0002502A5D02E10150295D01E202D01E2BDE
:10355C00C9D70ED00550000AD8B44ED70550C00AB2
:10356C00D8B44AD70550800A81E00550400AB8E02B
:10357C00800E006E800E1D19005C02E11C511E5D58
:10358C0003E21CC11EF10DD0800E1D19006E800EC1
:10359C00005C02E11E511C5D04E21EC11CF1000E18
:1035AC001D6F1F5120110EE0030E2115006E22C15C
:1035BC0001F0000E01160050011004E0010E1F5F17
:1035CC00000E205B800E1D19006E800E2019005C11
:1035DC0002E11F511C5D05E21C511F5F1D51205B58
:1035EC0002D01F6B206BC40E2115016E2251080BEB
:1035FC00026E0250080A02E1400E011808E11F5148
:10360C00201104E0010E1F5F000E205B1CD0C00EC9
:10361C002115016E2251080B026E0250080A02E1BC
:10362C00800E011810E1800E006E800E2019005CD7
:10363C0002E11F51020805E2020E1F5F000E205B23
:10364C0002D01F6B206B21A55DD021A312D021A12C
:10365C0003D02D0E186F02D02B0E186F0DC1E1FF89
:10366C000EC1E2FF18C1E6FF0D4B0E2B2D4B2E2B7E
:10367C0034D021A10BD00DC1E1FF0EC1E2FF200E11
:10368C00E66E0D4B0E2B2D4B2E2B27D0C00E21157D
:10369C00016E2251080B026E0250080A02E1800EE4
:1036AC0001181BE10DC1E1FF0EC1E2FF300EE66E09
:1036BC000D4B0E2B2D4B2E2B21AB03D0580E196F0F
:1036CC0002D0780E196F0DC1E1FF0EC1E2FF19C1D6
:1036DC00E6FF0D4B0E2B2D4B2E2B1F51201111E005
:1036EC000DC1E1FF0EC1E2FF300EE66E0D4B0E2B4D
:1036FC002D4B2E2B010E1F5F000E205B1F51201136
:10370C00EFE174D01F51201113E021B711D00DC17E
:10371C00E1FF0EC1E2FF200EE66E0D4B0E2B2D4B82
:10372C002E2B010E1F5F000E205B1F512011EFE1AD
:10373C0021A312D021A103D02D0E1A6F02D02B0E73
:10374C001A6F0DC1E1FF0EC1E2FF1AC1E6FF0D4B6E
:10375C000E2B2D4B2E2B0CD021A10AD00DC1E1FF2D
:10376C000EC1E2FF200EE66E0D4B0E2B2D4B2E2BB9
:10377C00C00E2115016E2251080B026E0250080A70
:10378C0002E1400E01180BE10DC1E1FF0EC1E2FF99
:10379C00300EE66E0D4B0E2B2D4B2E2B27D0C00E64
:1037AC002115016E2251080B026E0250080A02E12B
:1037BC00800E01181BE10DC1E1FF0EC1E2FF300EBE
:1037CC00E66E0D4B0E2B2D4B2E2B21AB03D0580E32
:1037DC001B6F02D0780E1B6F0DC1E1FF0EC1E2FF13
:1037EC001BC1E6FF0D4B0E2B2D4B2E2B800E006EAE
:1037FC00800E1D19005C02E11C511E5D0BE20DC117
:10380C00E1FF0EC1E2FF300EE66E0D4B0E2B2D4B81
:10381C002E2BECD71CC100F01DC101F0010E1C5F5A
:10382C00000E1D5B00500110D8B42AD1C00E21151A
:10383C00006E00C02FF10AD11CC100F01DC101F0B7
:10384C00000E1DBFFF0E026E036E00360090013697
:10385C000236033600360090013602360336B40EBB
:10386C000024F66E410E0120F76E000E0220F86E59
:10387C000900F5CF04F00900F5CF05F00900F5CFEC
:10388C0006F00900F5CF07F029C100F02AC101F0BC
:10389C002BC102F02CC103F017EC09F00A0E046ED8
:1038AC00000E056E066E076E17EC09F008C000F0EE
:1038BC0009C001F00AC002F00BC003F0300E002466
:1038CC001E6FD3D021AB45D01CC100F01DC101F03F
:1038DC00000E1DBFFF0E026E036E00360090013607
:1038EC000236033600360090013602360336DC0E03
:1038FC000024F66E410E0120F76E000E0220F86EC9
:10390C000900F5CF04F00900F5CF05F00900F5CF5B
:10391C0006F00900F5CF07F029C100F02AC101F02B
:10392C002BC102F02CC103F017EC09F00F0E00169E
:10393C00000E011602160316FC0E0024F66E410E44
:10394C000120F76E000E0220F86E0900F5CF1EF173
:10395C0044D01CC100F01DC101F0000E1DBFFF0EB4
:10396C00026E036E003600900136023603360036C6
:10397C000090013602360336DC0E0024F66E410E42
:10398C000120F76E000E0220F86E0900F5CF04F04E
:10399C000900F5CF05F00900F5CF06F00900F5CFC9
:1039AC0007F029C100F02AC101F02BC102F02CC193
:1039BC0003F017EC09F00F0E0016000E011602169C
:1039CC0003160D0E0024F66E420E0120F76E000E4B
:1039DC000220F86E0900F5CF1EF147D01CC100F093
:1039EC001DC101F0000E1DBFFF0E026E036E0036EE
:1039FC00009001360236033600360090013602364E
:103A0C000336840E0024F66E410E0120F76E000E74
:103A1C000220F86E0900F5CF04F00900F5CF05F08F
:103A2C000900F5CF06F00900F5CF07F029C100F029
:103A3C002AC101F02BC102F02CC103F017EC09F0E4
:103A4C00070E00141E6F300E1E270FD02F51000AC8
:103A5C00D8B4F2D62F51C00AD8B4EED62F51800A62
:103A6C00D8B430D72F51400AB9E00DC1E1FF0EC1D7
:103A7C00E2FF1EC1E6FF0D4B0E2B2D4B2E2BCAD693
:103A8C0021A71AD0800E006E800E2019005C02E176
:103A9C001F51000811E20DC1E1FF0EC1E2FF200E23
:103AAC00E66E0D4B0E2B2D4B2E2B010E1F5F000EB9
:103ABC00205B1F512011EFE15BEF0DF02DC100F0E9
:063ACC002EC101F0120002
:0C3AD2009EB801D0FDD70DC1ADFF120061
:103ADE00ABA202D0AB98AB889EBA01D0FDD7AECFC9
:043AEE0000F01200D2
:103AF20002C1E9FF03C1EAFFEE50000A0BE002C176
:103B0200E9FF03C1EAFFEECF0DF1E2DF0101024B53
:063B1200032BEED71200A8
:103B1800070E01010B6F010E0C6F02C10DF103C1FD
:103B28000EF104C10FF105C110F106C111F10B0E20
:103B3800126F010E136F56EC0DF000C009F101C0B1
:103B48000AF100500225E16E01500321E26EE66A97
:0A3B580009C100F00AC101F01200DB
:103B62000101046B056B066BB9DF0101054B062BE6
:103B720004510225D96E000E0321DA6E0050DE18C0
:103B820002E1042B01D0046B04510225E96E000E00
:103B92000321EA6EEE50000AE7E105C100F006C11A
:043BA20001F012001C
:103BA600040E0C6E3A0E0D6E0D2EFED70C2EFCD7A3
:043BB60000001200F9
:103BBA00AECF01F0ABA202D0AB98AB8801C000F047
:023BCA001200E7
:103BCC00410E0101026F000E036F8DDF0001F853EF
:103BDC0005E0310E01010D6F76DF04D0300E0101CE
:103BEC000D6F71DF3E0E0101026F000E036F7BDF64
:0E3BFC00570E0101026F000E036FADDF1200C5
:103C0A00710E0101026F000E036F6EDF330E0B6E31
:103C1A00BB0E0C6EDF0E0D6E0D2EFED70C2EFCD7D2
:0A3C2A000B2EFAD700000000120074
:0E3C3400ACB202D00000FCD7F8C0ADFF120009
:103C42000900F5CFE6FF0006FBE10106F9E11200EB
:103C5200340E0001ED6F3C0EEE6FF80EEF6F000EAA
:103C6200F06FBA0EF16F3B0EF26F000EF36F000EA3
:103C7200F46FFF0EE96FFF0EEA6F000EEB6F000E9E
:103C8200EC6FFF0EE56FFF0EE66F000EE76F000EA2
:103C9200E86FAC8A900EAB6E948E949C9EAA03D071
:083CA200AECF00F0FBD71200C9
:103CAA00BE0E0101026F000E036F1EDFB40E01018A
:103CBA00026F000E036F50DFAE0E026F000E036F2D
:043CCA004BDF1200BA
:103CCE00750E0101026F000E036F0CDF830E0101F2
:0A3CDE00026F000E036F3EDF1200BC
:103CE8000001FE6BFAC001F0010E006E015004E005
:103CF80000360090FF0FFBD700C0FDF0F8C0E9FFC9
:103D0800F9C0EAFF0050EE14016E0152010ED8A46A
:103D1800000E006EFC51001A18E0FB51000804E286
:103D28003EDF3DDFFB07F9D7F8C0E9FFF9C0EAFF3E
:103D3800FD51EE14016E0152010ED8A4000E006E62
:103D4800FC51001A02E0FF0EFE6FFEC000F01200E8
:103D58002B0E0101026F000E036FC7DE300E00014B
:103D6800F82501010D6FB1DE280E0101026F000E6A
:103D7800036FBBDE9B0E0101026F000E036FEDDEC9
:023D8800120027
:103D8A001A0E0101026F000E036FAEDE170E01015B
:103D9A00026F000E036FA8DE370E0101026F000EDC
:103DAA00036FDADE97DE00503E0A01E0FBD712000D
:103DBA00C70E0101026F000E036F96DE300E00017E
:103DCA00F82501010D6F80DED20E0101026F000E8F
:103DDA00036F8ADED50E0101026F000E036FBCDE8F
:023DEA001200C5
:103DEC00A90E0101026F000E036F7DDE450E01016D
:0A3DFC00026F000E036FAFDE12002D
:103E06000001FD6BFE6BFF6B0101006B016B8D0EFC
:103E1600026F000E036F6ADE0001F851010A07E126
:103E2600890E0101026F000E036F60DE06D0A50E3B
:103E36000101026F000E036F59DEA10E0101026F30
:103E4600000E036F53DEF9C002F1FAC003F14EDE35
:103E56009E0E0101026F000E036F48DEFD0E01018A
:103E6600026F000E036F1E0E046F420E056F000EEA
:103E7600066FFBC007F1FCC008F14BDEFD0E026FBA
:103E8600000E036F33DE860E0101026F000E036F14
:103E96002DDE6E0E0101026F000E036F5FDE120053
:103EA6004C0E0101026F000E036F20DEF8C002F116
:103EB600F9C003F11BDE480E0101026F000E036F0D
:103EC60015DEFAC002F1FBC003F110DE3A0E010165
:103ED600026F000E036F0ADE250E0101026F000E4F
:063EE600036F3CDE120038
:103EEC0011EC21F00F0EC112070EB412816A8A6A0E
:103EFC009380846A8D6A96909692826A8B6A94906B
:103F0C00B886B06A2A0EAF6EAC849DDE030E0B6EC3
:103F1C008A0E0C6E550E0D6E0D2EFED70C2EFCD788
:103F2C000B2EFAD7000000008290030E0B6E8A0E47
:103F3C000C6E550E0D6E0D2EFED70C2EFCD70B2EC7
:103F4C00FAD70000000082801A0E0B6E5E0E0C6E0B
:103F5C006E0E0D6E0D2EFED70C2EFCD70B2EFAD737
:103F6C0000009DDE0001F86B2BDE3ADF010E000134
:103F7C00F86F1DDF5A0E0001F86F000EF96F650E19
:103F8C00FA6F000EFB6F89DF010E0001F86FD80E7F
:103F9C00F96F000EFA6F400EFB6F1F0EFC6F2DDFDA
:103FAC008480010E0001F86FD1DEE9DE9E9A9D8AB5
:103FBC00F28EF28C810E0001F86F0F0EF96FFA6B16
:103FCC000A0EFB6FFC6B8ADE005211E0810EF86F5B
:103FDC000F0EF96FFA6B0A0EFB6FFC6B7FDE005253
:103FEC0001E0F4D7530EF76F530EF86F1DDE00018E
:103FFC00F6A125D0F691DBDD00C0F5F00050400AAB
:10400C0008E18D824F0E0001F76F4F0EF86F0CDE3A
:10401C0016D00001F551240A07E18D92460EF76F78
:10402C00460EF86F01DE0BD00001F5515A0A07E17C
:10403C00F29E8490E4DD0001F86B88DE42DEBAD794
:02404C00FFD79C
:1042220010EE17F0CE0E006E010E016E4E0EF66EFF
:0E423200400EF76E000EF86E21EC1EF012002A
:03404E000D0A0058
:0B40510041542B43495053454E44009E
:03405C004F4B00C7
:03405F000D0A0047
:0C40620041542B4349504D4F44453D0054
:03406E004F4B00B5
:04407100220D0A0012
:034075000D0A0031
:04407800415445006A
:03407C004F4B00A7
:04407F00222C2200CD
:0B40830041542B43574A41503D22009E
:03408E004F4B0095
:0B409100494F545F4149204C41420060
:09409C00724337594E55714D0075
:0340A5004F4B007E
:0440A8002B2B2B0093
:0E40AC0041542B434950434C4F53450D0A00DD
:0340BA004F4B0069
:0340BD000D0A00E9
:0440C0005443500015
:0E40C40041542B43495053544152543D220065
:0340D2004F4B0051
:0340D500222C009A
:0440D800222C220074
:0440DC0055445000F7
:0540E00041540D0A002F
:0640E500726561647900C0
:0340EB004F4B0038
:0740EE00286E756C6C2900BF
:0940F50041542B5253540D0A00F2
:0B40FE0041542B43574D4F44453D00FB
:034109000D0A009C
:03410C004F4B0016
:0D410F003139322E3136382E312E34390040
:10411C000000007F000020820000488500007A88A3
:10412C0000401C8C0050438F00247492809618968B
:10413C0020BC3E99286B6E9CF90215A0EC782DC121
:04414C00CAF249E288
:104150000000007FCDCC4C7B0AD723786F1203750B
:1041600017B75171ACC5276EBD37066B95BF566743
:1041700077CC2B645F700961FFE65B5D08E53C3C32
:044180006042221B5C
:1041840001000000080000004000000000020000E0
:104194000010000000800000000004000000200067
:1041A40000000001000000080000004000000000C2
:1041B400010000000A00000064000000E8030000A1
:1041C40010270000A086010040420F00809698004E
:0841D40000E1F50500CA9A3B69
:1041DC0001000000100000000001000000100000B1
:1041EC0000000100000010000000000100000010A1
:1041FC003031323334353637383941424344454611
:01420C0000B1
:10420D00303132333435363738396162636465663F
:01421D0000A0
:03421E0025750003
:020000040030CA
:0E000000240C1E1EFF8081FF0FC00FE00F407A
:00000001FF
