:0400000047EF20F0B6
:1000080000C019F001C018F00BC017F00CC016F0B2
:100018000DC015F0F5CF1DF0F8CF1AF0F7CF1BF093
:10002800F6CF1CF0F2A21AD0F292344A352AE70E23
:100038000001F66F000EF76FA20EF86F420EF96F0F
:10004800000EFA6F34C0FBF035C0FCF0B8EC1FF0BE
:10005800E70EF66F000EF76F2CEC20F0F0A01AD028
:100068000001F090304A312AE70EF66F000EF76F64
:10007800B20EF86F420EF96F000EFA6F30C0FBF047
:1000880031C0FCF0B8EC1FF0E70EF66F000EF76F0A
:100098002CEC20F0F0A21AD00001F092324A332A58
:1000A800E70EF66F000EF76FAA0EF86F420EF96FA3
:1000B800000EFA6F32C0FBF033C0FCF0B8EC1FF052
:1000C800E70EF66F000EF76F2CEC20F09EAA38D1E1
:1000D8009E9ADFEC1FF000C0CBF000501F180DE116
:1000E8001E6ACBC0CAF0DD0EE16E000EE26E1E5035
:1000F800E126D8B0E22ACBC0E6FF0001CB51201898
:100108000CE1CBC0CCF0DD0EE16E000EE26E1E50AD
:10011800E126D8B0E22ACBC0E6FFCA511F1809E190
:10012800CC51201806E1010E2F6E1E6ACA6BCC6BEB
:100138000FD0DD0EE16E000EE26E1E50E126D8B043
:10014800E22ACBC0E6FF1E2A1E500A08D8A01E6A63
:100158002F50010AD8A4F4D0DD0EF66F000EF76F09
:10016800210EF86F000EF96FE8EC1FF000C001F1E6
:1001780001C002F1280E0101036F000E046F060E84
:10018800056F10EC0FF0000E011802E1000E0018C8
:1001980009E18D80930E0001F66F000EF76F2CECCD
:1001A80020F0CAD00001DD0EF66F000EF76F9D0E2D
:1001B800F86F000EF96FE8EC1FF000C001F101C004
:1001C80002F1810E0101036F000E046F060E056F28
:1001D80010EC0FF0000E011802E1000E001809E102
:1001E8008D90880E0001F66F000EF76F2CEC20F052
:1001F800A3D00001DD0EF66F000EF76FA40EF86FA6
:10020800000EF96FE8EC1FF000C001F101C002F127
:10021800B90E0101036F000E046F060E056F10EC96
:100228000FF0000E011802E1000E001809E18D829E
:10023800C00E0001F66F000EF76F2CEC20F07CD09A
:100248000001DD0EF66F000EF76FAB0EF86F000EB3
:10025800F96FE8EC1FF000C001F101C002F1B20E25
:100268000101036F000E046F060E056F10EC0FF00E
:10027800000E011802E1000E001809E18D92470EE8
:100288000001F66F000EF76F2CEC20F055D000013E
:10029800DD0EF66F000EF76F520EF86F000EF96F55
:1002A800E8EC1FF000C001F101C002F1360E0101B7
:1002B800036F000E046F060E056F10EC0FF0000EB2
:1002C800011802E1000E001809E18D843D0E0001BD
:1002D800F66F000EF76F2CEC20F02ED00001DD0E2B
:1002E800F66F000EF76F590EF86F000EF96FE8EC15
:1002F8001FF000C001F101C002F16F0E0101036F90
:10030800000E046F060E056F10EC0FF0000E0118BA
:1003180002E1000E001809E18D94760E0001F66FD7
:10032800000EF76F2CEC20F007D00001600EF66F7E
:10033800000EF76F2CEC20F02F6A1E6A74EC1FF089
:100348001DC0F5FF1AC0F8FF1BC0F7FF1CC0F6FF61
:1003580019C000F018C001F017C00BF016C00CF05F
:0603680015C00DF01100AC
:08036E000AAE029E000E12000F
:100376000B840BAEC6EF01F0010E036E026A016A32
:0A038600006A0A360232FF0E120070
:0E039000026A016A006A086A036A000E12001F
:10039E000B820BAED9EF01F00368026801680068AA
:0803AE000A360232FF0E1200B4
:1003B6000CB01DEF02F00CA2C3EF02F00E6A000EA5
:1003C600026434EF02F0F00E0214D8A4FFEF01F03D
:1003D600023A01380F0B02260138F00B016E003885
:1003E6000F0B01260038F00B006E08380F0B0026A5
:1003F6000838F00B086E0E84D89002BE18EF02F093
:1004060008360036013602360E2A02BE18EF02F012
:1004160008360036013602360E2A02BE18EF02F002
:1004260008360036013602360E2A0E500364B9EF3E
:1004360002F0035E0BBC08AEBEEF02F0D880800E61
:1004460008640030000E002201220222D8A0BEEF6E
:1004560002F0023201320032034AC3EF02F0BEEF6D
:1004660002F001C002F000C001F008C000F0086A06
:10047600000E0E8602646BEF02F0F00E0214D8A492
:1004860053EF02F0023A01380F0B02260138F00B47
:10049600016E00380F0B01260038F00B006E0E843B
:1004A600D89002BE18EF02F00036013602360E2A48
:1004B60002BE18EF02F00036013602360E2A02BEE0
:1004C60018EF02F00036013602360E2A18EF02F057
:1004D60001C002F000C001F0006A000E0E960E8800
:1004E600026498EF02F0F00E0214D8A483EF02F033
:1004F600023A01380F0B02260138F00B016E0E840A
:10050600D89002BE18EF02F0013602360E2A02BE5D
:1005160018EF02F0013602360E2A02BE18EF02F07C
:10052600013602360E2A18EF02F001C002F0016A07
:10053600000E0E860264C8EF02F0F00E0214D8A474
:10054600A7EF02F0023A0E84D89002BE18EF02F02E
:1005560002360E2A02BE18EF02F002360E2A02BE3C
:1005660018EF02F002360E2A18EF02F0010E0C6E9A
:10057600FFDECBEF02F0020E0C6EF6DECBEF02F0E2
:10058600040E0C6E09DFCBEF02F0080E0C6EFDDEDA
:02059600120051
:10059800086A080E0C6E003408360450085ED8B09D
:0E05A80002D00826D89000360C2EF5D712008F
:0805B6000B6A0B86FF0E120018
:1005BE000B800BAEEBEF02F0026A0AAEFF0E026E7C
:0C05CE00016E006E0A360232FF0E1200B1
:1005DA00086A096A000E0762036472EF03F00250A8
:1005EA0006180A6E075003267E0ED8A003EF03F002
:1005FA00035ED8B076EF03F007EF03F0035ED8A0EE
:10060A007AEF03F0028E068E02C00EF001C00BF0E4
:10061A0000C00DF000500402F4CF0CF001500502A6
:10062A00F4CF00F0F3CF08F00402F3500C26F45094
:10063A000822000E00220D500502F3500C26F45039
:10064A000822000E002202500402F3500826F45039
:10065A00002202500502016A000E0122F350002610
:10066A00F45001220D500602F3500826F4500022DD
:10067A00026A000E012202220B500602F3500026E3
:10068A00F4500122000E02220E500602F3500126F7
:10069A00F450022202BE5AEF03F008360036013641
:1006AA0002360306D8B47AEF03F06DEF03F0D88070
:1006BA00800E08640030000E002201220222D8A017
:1006CA006DEF03F0023201320032034A76EF03F093
:1006DA000AAE029E000E7CEF03F0010E54DE7CEFA0
:1006EA0003F0020E57DE7CEF03F0040E3FDE120029
:1006FA00025006180E6E086A096A0B6A03500764EC
:10070A0070EF04F006500A6E068E028E03500B6ECE
:10071A000750036E000E0B64C0EF03F00B50075E28
:10072A00D8B461EF04F0070E07642FEF04F0075EF8
:10073A0000C008F001C000F002C001F0026A074ED2
:10074A0061EF04F0076404EF04F0075E00C008F0EC
:10075A0001C000F0016A074E61EF04F00764E2EF9E
:10076A0003F0075E00C008F0006A074E61EF04F06C
:10077A000764C9EF03F00AC002F005C001F004C023
:10078A0000F0086A8AEF05F0030E0764D4EF03F05D
:10079A00075E08380F0B086E074E61EF04F0D89019
:1007AA000832074E61EF04F0D8900832074E61EF25
:1007BA0004F0D890083261EF04F0030E0764F3EFF7
:1007CA0003F0075E08380F0B086E0038F00B082696
:1007DA0000380F0B006E074E61EF04F0D89000321C
:1007EA000832074E61EF04F0D89000320832074E03
:1007FA0061EF04F0D8900032083261EF04F0030E82
:10080A0007641BEF04F0075E08380F0B086E003808
:10081A00F00B082600380F0B006E0138F00B00268B
:10082A0001380F0B016E074E61EF04F0D8900132C8
:10083A0000320832074E61EF04F0D89001320032DC
:10084A000832074E61EF04F0D890013200320832C4
:10085A0061EF04F0030E07644CEF04F0075E0838FA
:10086A000F0B086E0038F00B082600380F0B006ECD
:10087A000138F00B002601380F0B016E0238F00B1D
:10088A00012602380F0B026E074E61EF04F0D89072
:10089A000232013200320832074E61EF04F0D8907A
:1008AA000232013200320832074E61EF04F0D8906A
:1008BA000232013200320832096A000E0EAE55EFDA
:1008CA0005F0081E001E011E021E082A002201222F
:1008DA00022255EF05F00750D8A476EF04F08AEF0C
:1008EA0005F0096A02C00AF0028E068E0750035C00
:1008FA00076ED8B448EF05F0070E076416EF05F047
:10090A00075E0450096E0550046E0650056E066AAD
:10091A00074E48EF05F0070E0764EBEF04F0075E99
:10092A000450096E0550046E056A074E48EF05F03B
:10093A00070E0764C9EF04F0075E0450096E046AE3
:10094A00074E48EF05F0070E0764B0EF04F00AC03F
:10095A0002F08AEF05F0030E0764BBEF04F0075EAE
:10096A0009380F0B096E074E48EF05F0D890093287
:10097A00074E48EF05F0D8900932074E48EF05F0C8
:10098A00D890093248EF05F0030E0764DAEF04F055
:10099A00075E09380F0B096E0438F00B0926043874
:1009AA000F0B046E074E48EF05F0D8900432093257
:1009BA00074E48EF05F0D89004320932074E48EF47
:1009CA0005F0D8900432093248EF05F0030E0764A7
:1009DA0002EF05F0075E09380F0B096E0438F00BB9
:1009EA00092604380F0B046E0538F00B0426053867
:1009FA000F0B056E074E48EF05F0D890053204320A
:100A0A000932074E48EF05F0D89005320432093210
:100A1A00074E48EF05F0D89005320432093248EF04
:100A2A0005F0030E076433EF05F0075E09380F0B74
:100A3A00096E0438F00B092604380F0B046E0538CA
:100A4A00F00B042605380F0B056E0638F00B052649
:100A5A0006380F0B066E074E48EF05F0D89006329F
:100A6A00053204320932074E48EF05F0D8900632B3
:100A7A00053204320932074E48EF05F0D8900632A3
:100A8A00053204320932086A000E0EAE55EF05F03F
:100A9A00091E041E051E061E092A04220522062214
:100AAA00095008260450002205500122065002224D
:100ABA000EBE6CEF05F0D8A07BEF05F002320132D2
:100ACA0000320832033E7BEF05F085EF05F0D8B01F
:100ADA0080EF05F0000E081E001E011E021E082AE5
:100AEA000022012202220A7E80EF05F0010E0C6E1E
:100AFA005DDC8CEF05F0020E0C6E58DC8CEF05F015
:100B0A00040E0C6E47DC8CEF05F0000E0C6E120022
:100B1A000134083609360450085E0550D8A0053C51
:100B2A00095E003601360F0E0C6E0134083609369E
:100B3A00045000A006D0085E0550D8A0053C095E06
:100B4A0005D008260550D8B0053C092600360136DE
:100B5A000C2EEBD700B006D0045008260550D8B0AA
:080B6A00053C09260000120001
:100B72000D6A086A0050D8B4000C04180A6E0ABE46
:100B82000D1E0B6A04AE02D0041E042A00AE02D06F
:100B9200001E002A005004100A6E0ABE1FD0045024
:100BA200085E003600340836045008260036060E69
:100BB2000C6E00340836045000B0085E00A008260F
:100BC20000360C2EF6D700A008260BB015D00DAEBD
:100BD200000C001E002A081E082A000C04AE09D0D0
:100BE20000BE04D00050086E006AF1D7006A002AE5
:100BF200000C001E0B2AD3D7082A0450085CD8A484
:0E0C0200E6D7086A002A00AEE2D7FF0C120007
:100C10000050086E0150006E0250016E0350026ECB
:100C2000036A0B6A0C6A9E0E036E0A6A020E0C6E51
:060C3000DBEC01F01200F4
:100C36000B6A0A6A096A086A0E6A0334083604509F
:100C4600085E0550D8A0053C095E0650D8A0063CB3
:100C56000A5E0750D8A0073C0B5EE86AD8A0010ED2
:100C66000E5E0336070E0C6E0334083609360A3656
:100C76000B360E36045003A012D0085E0550D8A0DD
:100C8600053C095E0650D8A0063C0A5E0750D8A06F
:100C9600073C0B5EE86AD8A0010E0E5E11D008264E
:100CA6000550D8B0053C09260650D8B0063C0A26A1
:100CB6000750D8B0073C0B26E86AD8B0010E0E26BE
:100CC60003360C2ED1D70234083609360A360B36CF
:100CD6000E36045003A012D0085E0550D8A0053C7D
:100CE600095E0650D8A0063C0A5E0750D8A0073C0D
:100CF6000B5EE86AD8A0010E0E5E11D008260550DC
:100D0600D8B0053C09260650D8B0063C0A2607503E
:100D1600D8B0073C0B26E86AD8B0010E0E2602367C
:100D2600070E0C6E0234083609360A360B360E36B6
:100D3600045002A012D0085E0550D8A0053C095EFA
:100D46000650D8A0063C0A5E0750D8A0073C0B5EAA
:100D5600E86AD8A0010E0E5E11D008260550D8B05C
:100D6600053C09260650D8B0063C0A260750D8B0DE
:100D7600073C0B26E86AD8B0010E0E2602360C2E6A
:100D8600D1D70134083609360A360B360E360450EA
:100D960002A012D0085E0550D8A0053C095E065098
:100DA600D8A0063C0A5E0750D8A0073C0B5EE86A4E
:100DB600D8A0010E0E5E11D008260550D8B0053C0D
:100DC60009260650D8B0063C0A260750D8B0073C7C
:100DD6000B26E86AD8B0010E0E260136070E0C6EF9
:100DE6000134083609360A360B360E36045001A091
:100DF60012D0085E0550D8A0053C095E0650D8A062
:100E0600063C0A5E0750D8A0073C0B5EE86AD8A0ED
:100E1600010E0E5E11D008260550D8B0053C0926F5
:100E26000650D8B0063C0A260750D8B0073C0B2619
:100E3600E86AD8B0010E0E2601360C2ED1D7003442
:100E4600083609360A360B360E36045001A012D083
:100E5600085E0550D8A0053C095E0650D8A0063CA1
:100E66000A5E0750D8A0073C0B5EE86AD8A0010EC0
:100E76000E5E11D008260550D8B0053C092606504E
:100E8600D8B0063C0A260750D8B0073C0B26E86ABD
:100E9600D8B0010E0E260036070E0C6E003408364A
:100EA60009360A360B360E36045000A012D0085EFC
:100EB6000550D8A0053C095E0650D8A0063C0A5E3F
:100EC6000750D8A0073C0B5EE86AD8A0010E0E5E5C
:100ED60011D008260550D8B0053C09260650D8B0D2
:100EE600063C0A260750D8B0073C0B26E86AD8B05D
:100EF600010E0E2600360C2ED1D700B00ED00450AF
:100F060008260550D8B0053C09260650D8B0063C40
:0C0F16000A260750D8B0073C0B2612003A
:100F2200800E01012919006E800E000A005CD8B003
:100F320067D129510008016E01C029F1800E011804
:100F4200006E800E6E0A005CD8A0BCD0640E046EE7
:100F520029C100F00DDE120E0024056E000E00BE47
:100F6200FF0E066E000E062205C000F006C001F05C
:100F7200000E06BEFF0E026E036E003600900136B2
:100F82000236033600360090013602360336D40E9E
:100F92000024F66E410E0120F76E000E0220F86E5C
:100FA2000900F5CF2AF10900F5CF2BF10900F5CFA1
:100FB2002CF10900F5CF2DF1640E046E29C100F069
:100FC200D7DD08C000F00A0E046ED2DD090E00243F
:100FD200056E000E00BEFF0E066E000E062205C054
:100FE20000F006C001F0000E06BEFF0E026E036E98
:100FF2000036009001360236033600360090013684
:1010020002360336D40E0024F66E410E0120F76E2E
:10101200000E0220F86E0900F5CF00F00900F5CFAE
:1010220001F00900F5CF02F00900F5CF03F02AC163
:1010320004F02BC105F02CC106F02DC107F0EDEC38
:1010420002F000C02AF101C02BF102C02CF103C052
:101052002DF10A0E046E29C100F08ADD08C000F0ED
:1010620000C001F0000E00BEFF0E026E036E046EA1
:1010720001360190023603360436013601900236FB
:1010820003360436D40E0124F66E410E0220F76EAA
:10109200000E0320F86E0900F5CF00F00900F5CF2D
:1010A20001F00900F5CF02F00900F5CF03F02AC1E3
:1010B20004F02BC105F02CC106F02DC107F0EDECB8
:1010C20002F001D2800E0A0A006E800E2919005C1D
:1010D2006FE20A0E046E29C100F04ADD090E0024F7
:1010E200056E000E00BEFF0E066E000E062205C043
:1010F20000F006C001F0000E06BEFF0E026E036E87
:101102000036009001360236033600360090013672
:1011120002360336D40E0024F66E410E0120F76E1D
:10112200000E0220F86E0900F5CF2AF10900F5CF72
:101132002BF10900F5CF2CF10900F5CF2DF10A0EA4
:10114200046E29C100F014DD08C000F000C001F0F7
:10115200000E00BEFF0E026E036E046E0136019099
:10116200023603360436013601900236033604365F
:10117200D40E0124F66E410E0220F76E000E0320FB
:10118200F86E0900F5CF00F00900F5CF01F0090073
:10119200F5CF02F00900F5CF03F02AC104F02BC10C
:1011A20005F02CC106F02DC107F0EDEC02F08BD159
:1011B20029C100F0000E29BFFF0E016E026E036E00
:1011C20000360090013602360336003600900136B2
:1011D20002360336D40E0024F66E410E0120F76E5D
:1011E200000E0220F86E0900F5CF00F00900F5CFDD
:1011F20001F00900F5CF02F00900F5CF03F063D149
:10120200800E2919006E800E6E0A005CD8A0BCD038
:10121200640E046E29C100F0ABDC120E0024056ED0
:10122200000E00BEFF0E066E000E062205C000F084
:1012320006C001F0000E06BEFF0E026E036E0036FF
:10124200009001360236033600360090013602362F
:101252000336A00E0024F66E410E0120F76E000E3A
:101262000220F86E0900F5CF2AF10900F5CF2BF123
:101272000900F5CF2CF10900F5CF2DF1640E046EB3
:1012820029C100F075DC08C000F00A0E046E70DCA3
:10129200090E0024056E000E00BEFF0E066E000E43
:1012A200062205C000F006C001F0000E06BEFF0EC9
:1012B200026E036E003600900136023603360036A7
:1012C2000090013602360336A00E0024F66E410E5F
:1012D2000120F76E000E0220F86E0900F5CF00F033
:1012E2000900F5CF01F00900F5CF02F00900F5CFB2
:1012F20003F02AC104F02BC105F02CC106F02DC168
:1013020007F0EDEC02F000C02AF101C02BF102C09F
:101312002CF103C02DF10A0E046E29C100F028DC65
:1013220008C000F000C001F0000E00BEFF0E026E09
:10133200036E046E0136019002360336043601361E
:101342000190023603360436A00E0124F66E410ED9
:101352000220F76E000E0320F86E0900F5CF00F0B0
:101362000900F5CF01F00900F5CF02F00900F5CF31
:1013720003F02AC104F02BC105F02CC106F02DC1E7
:1013820007F0EDEC02F09FD0800E0A0A006E800E8C
:101392002919005C71E20A0E046E29C100F0B9EC51
:1013A20005F0090E0024056E000E00BEFF0E066E4B
:1013B200000E062205C000F006C001F0000E06BEB7
:1013C200FF0E026E036E00360090013602360336BF
:1013D20000360090013602360336A00E0024F66E67
:1013E200410E0120F76E000E0220F86E0900F5CFC3
:1013F2002AF10900F5CF2BF10900F5CF2CF10900F4
:10140200F5CF2DF10A0E046E29C100F0B9EC05F0FA
:1014120008C000F000C001F0000E00BEFF0E026E18
:10142200036E046E0136019002360336043601362D
:101432000190023603360436A00E0124F66E410EE8
:101442000220F76E000E0320F86E0900F5CF00F0BF
:101452000900F5CF01F00900F5CF02F00900F5CF40
:1014620003F02AC104F02BC105F02CC106F02DC1F6
:1014720007F0EDEC02F027D029C100F0000E29BFE1
:10148200FF0E016E026E036E0036009001360236C8
:10149200033600360090013602360336A00E0024D1
:1014A200F66E410E0120F76E000E0220F86E090062
:1014B200F5CF00F00900F5CF01F00900F5CF02F0F9
:0814C2000900F5CF03F0120050
:0814CA00067E7DEC03F0120028
:1014D2000B6A0C6A086A0350D8B4EDEF0AF002C036
:1014E2000AF0028E9E0E035E03AEDDEF0AF0036C7D
:1014F200080E035CD8A0AAEF0AF0036E083600C0FB
:1015020008F001C000F002C001F0026A080E035C9C
:10151200D8A0AAEF0AF0036E083600C008F001C096
:1015220000F0016A080E035CD8A0AAEF0AF0036E6D
:10153200083600C008F0006A080E035CD8A0AAEFC3
:101542000AF0036E0836086A0350D8A4D890B6EFA2
:101552000AF00350D8B4B6EF0AF0D8900232013242
:1015620000320832032EAEEF0AF00BBC08A0C7EF20
:101572000AF0D8A0C7EF0AF0082AD8B4002AD8B4D3
:10158200012AD8B4022A02BEF1EF0AF00AAEEDEF48
:101592000AF0021E011E001E081E082AD8B4002AE4
:1015A200D8B4012AD8B4022AEDEF0AF0026A016A1D
:1015B200006A086AEDEF0AF00B800BAEF8EF0AF052
:1015C200026A0AAEF8EF0AF0026E016E006E086E51
:1015D2000A360232F8EF0AF00C6A000EF9EF0AF04E
:1015E200010E0C6E000EDFEC02F0F9EF0AF0FF0EB6
:1015F2000250036E0150026E0050016E0850006EE0
:021602001200D4
:101604006E0E0101295DD8A0CAD0640E046E29C1F2
:1016140000F0CCEC02F0120E0024056E066A000EF7
:10162400062205C000F006C001F0000E06BEFF0E43
:10163400026E036E00360090013602360336003621
:101644000090013602360336D40E0024F66E410EA5
:101654000120F76E000E0220F86E0900F5CF00F0AD
:101664000900F5CF01F00900F5CF02F00900F5CF2C
:1016740003F0000E046E000E056E000E066E7E0E64
:10168400076EEDEC02F000C02AF101C02BF102C09C
:101694002CF103C02DF1640E046E29C100F0CCECD2
:1016A40002F008C000F00A0E046ECCEC02F0090E41
:1016B4000024056E066A000E062205C000F006C06E
:1016C40001F0000E06BEFF0E026E036E003600909F
:1016D40001360236033600360090013602360336F0
:1016E400D40E0024F66E410E0120F76E000E022087
:1016F400F86E0900F5CF00F00900F5CF01F00900FC
:10170400F5CF02F00900F5CF03F02AC104F02BC194
:1017140005F02CC106F02DC107F0EDEC02F000C07D
:101724002AF101C02BF102C02CF103C02DF10A0EE5
:10173400046E29C100F0CCEC02F008C000F000C037
:1017440001F0000E026E036E046E01360190023643
:101754000336043601360190023603360436D40EBD
:101764000124F66E410E0220F76E000E0320F86E7F
:101774000900F5CF00F00900F5CF01F00900F5CF1D
:1017840002F00900F5CF03F02AC104F02BC105F0E3
:101794002CC106F02DC107F0EDEC02F0B1D02951B7
:1017A4000A08D8B07ED00A0E046E29C100F0CCEC31
:1017B40002F0090E0024056E066A000E062205C01A
:1017C40000F006C001F0000E06BEFF0E026E036EAE
:1017D400003600900136023603360036009001369A
:1017E40002360336D40E0024F66E410E0120F76E45
:1017F400000E0220F86E0900F5CF00F00900F5CFC5
:1018040001F00900F5CF02F00900F5CF03F0000E56
:10181400046E000E056E000E066E7E0E076EEDEC75
:1018240002F000C02AF101C02BF102C02CF103C068
:101834002DF10A0E046E29C100F0CCEC02F008C0B0
:1018440000F000C001F0000E026E036E046E01365B
:10185400019002360336043601360190023603360F
:101864000436D40E0124F66E410E0220F76E000EEB
:101874000320F86E0900F5CF00F00900F5CF01F060
:101884000900F5CF02F00900F5CF03F02AC104F0F6
:101894002BC105F02CC106F02DC107F0EDEC02F0D0
:1018A4002FD029C100F0000E016E026E036E0036C7
:1018B40000900136023603360036009001360236B7
:1018C4000336D40E0024F66E410E0120F76E000E8E
:1018D4000220F86E0900F5CF00F00900F5CF01F001
:1018E4000900F5CF02F00900F5CF03F0000E046EF5
:1018F400000E056E000E066E7E0E076EEDEC02F015
:021904001200CF
:101906000450000A08E10550000A05E1FF0E006ECA
:101916007F0E016E58D00D6A096A086A01500010E0
:10192600D8B4000C015005180A6E0ABE0D1E0B6ACB
:1019360005AE05D0041E051E042AD8B4052A01AE3C
:1019460005D0001E011E002AD8B4012A0150051038
:101956000A6E0ABE10D08DEC05F00BB020D00DAE8D
:10196600000C001E011E002AD8B4012A081E091EFA
:10197600082AD8B4092A000C05AE0DD001BE07D03E
:101986000150096E0050086E016A006AE8D7016AC4
:10199600006A002A000C011E001E0B2ADDD7082A49
:1019A600D8B4092A0450085CD8A4D9D70550095CD4
:1019B600D8A4D5D7096A086A002AD8B4012A01AE84
:0819C600CED70000FF0C120057
:1019CE000450000A12E10550000A0FE10650000A09
:1019DE000CE10750000A09E1FF0E006EFF0E016ECA
:1019EE007F0E026EFF0E036EA8D0086A096A0750BA
:1019FE00D8B492EF0DF00350D8B497EF0DF002501B
:101A0E0006180A6E028E068E0E6A02C008F001C01B
:101A1E000CF000C00DF004500D5E0550D8A0053C32
:101A2E000C5E0650D8A0063C085E086A0C6A0D6A69
:101A3E00D8A029EF0DF0D8900232013200320832D0
:101A4E00010E0E6E0750035ED8A036EF0DF07E0E1F
:101A5E000E240326D8B09CEF0DF03CEF0DF07E0E59
:101A6E000E240326D8A0A1EF0DF0180E0B6E0D3626
:101A7E000C3608360036013602360E360450005E3D
:101A8E000550D8A0053C015E0650D8A0063C025E6B
:101A9E0006340E120EA057EF0DF00D8062EF0DF012
:101AAE00045000260550D8B0053C01260650D8B08B
:101ABE00062802260D900B2E3EEF0DF088EF0DF04E
:101ACE00D8900036013602360E360450005E0550B0
:101ADE00D8A0053C015E0650D8A0063C025E063436
:101AEE000E10010B0D26D8B00C2AD8B4082AD8A493
:101AFE0088EF0DF008320C320D32032AD8B49CEF69
:101B0E000DF00AAE089E0850026E0C50016E0D507C
:101B1E00006EA4EF0DF0010EDBEC02F0A4EF0DF061
:101B2E00020EC8EC01F0A4EF0DF0040ECFEC01F0A4
:0C1B3E00A4EF0DF0080EBBEC01F012004B
:101B4A0003500718D8A4B9EF0DF002500618D8A40C
:101B5A00B9EF0DF001500518D8A4B9EF0DF00050F7
:0E1B6A000418D8B4D8841200D89412001200C7
:101B780001012951390806E3300E295D03E3010EFE
:081B8800006E01D0006A12009A
:101B90000B6A0A6A096A00500402F4CF09F0F3CF15
:101BA00008F001500502F4CF0BF0F3CF0AF000501B
:101BB0000502F3500926F4500A22E86A0B2201506C
:101BC0000402F3500926F4500A22E86A0B2208C0E6
:101BD00000F009C001F00AC002F00BC003F01200CF
:101BE0000A6A0350D8A40A800750D8A40A820A506F
:101BF000D8B453EF0EF0030AD8B40CEF0EF00AB0CD
:101C000007EF0EF006AE51EF0EF04FEF0EF002AE02
:101C10004FEF0EF051EF0EF00250800B0A6E029E55
:101C20000650800B069E0A18D8B41DEF0EF00A501D
:101C3000D8B44FEF0EF051EF0EF00750035CD8B45C
:101C400027EF0EF0D8A043EF0EF049EF0EF006504C
:101C5000025CD8B431EF0EF0D8A043EF0EF049EF9C
:101C60000EF00550015CD8B43BEF0EF0D8A043EF66
:101C70000EF049EF0EF00450005CD8B453EF0EF0B4
:101C8000D8B049EF0EF00A52D8B451EF0EF04FEF32
:101C90000EF00A52D8B44FEF0EF051EF0EF0D8808C
:0E1CA0001200D8901200D880D88412001200D2
:101CAE000B6A0C6A0A6A086A0350D8B4DFEF0EF0AA
:101CBE00028E9E0E035E03BE6AEF0EF0D8B46AEF7C
:101CCE000EF0CFEF0EF0036C080E035CD8A09CEF65
:101CDE000EF0036E083600C008F001C000F002C01E
:101CEE0001F0026A080E035CD8A09CEF0EF0036EA2
:101CFE00083600C008F001C000F0016A080E035C4F
:101D0E00D8A09CEF0EF0036E083600C008F0006AF3
:101D1E00080E035CD8A09CEF0EF0036E0836086A1E
:101D2E000350D8A4D890A8EF0EF00350D8B4A8EF63
:101D3E000EF0D8900232013200320832032EA0EF9C
:101D4E000EF00BBC08A0B9EF0EF0D8A0B9EF0EF054
:101D5E00082AD8B4002AD8B4012AD8B4022A02BE5E
:101D6E00E3EF0EF00AAEDFEF0EF0021E011E001EB4
:101D7E00081E082AD8B4002AD8B4012AD8B4022AD8
:101D8E00DFEF0EF0026A016A006A086ADFEF0EF0FA
:101D9E000B800BAEE9EF0EF0026A0AAEE9EF0EF021
:101DAE00026E016E006E086E0A360232E9EF0EF018
:101DBE00000E0C6AEAEF0EF0010E0C6EDFEC02F074
:101DCE00EAEF0EF0FF0E0250036E0150026E00504D
:081DDE00016E0850006E1200B6
:101DE60001C102F002C103F002C000F003C001F01D
:101DF600024A032A00C0E9FF01C0EAFFEE5201E0F1
:101E0600F3D701010151025C006E02510358016EC5
:0A1E1600010E005E000E015A1200DA
:101E200005C100F001010507005228E001C1E9FFEA
:101E300002C1EAFFEE50000A0CE001C1E9FF02C155
:101E4000EAFF03C1D9FF04C1DAFFEE50DE1801E159
:101E50000FD001C1E9FF02C1EAFF03C1D9FF04C1EC
:101E6000DAFFDE50EE5C006E016A000E015A08D007
:101E70000101014B022B034B042BD2D7006A016AEC
:021E800012004E
:101E820001C1E9FF02C1EAFFEE500101031905E1B8
:101E920001C100F002C101F010D001C100F002C185
:101EA20001F0014B022B00C0E9FF01C0EAFFEECFB7
:0C1EB20000F00052E5E1006A016A120035
:0E1EBE00ACB202D00000FCD701C1ADFF120093
:101ECC000101216B226B156B166B03C100F004C171
:101EDC0001F005C102F0010E0327000E04230523B7
:101EEC0000C0F6FF01C0F7FF02C0F8FF0900F5CFF4
:101EFC0000F000C012F10052D8B46FEF1FF0125175
:101F0C00250A0BE001C1E1FF02C1E2FF12C1E6FFAD
:101F1C00014B022B214B222BD8D7136B146B156B57
:101F2C00166B23D01587010E0327000E04230523FF
:101F3C0059D01581010E0327000E0423052352D01E
:101F4C001583010E0327000E042305234BD016879F
:101F5C00010E0327000E0423052344D01585010E22
:101F6C000327000E042305233DD003C1F6FF04C153
:101F7C00F7FF05C1F8FF0900F5CF01F001502D0A5C
:101F8C00D1E003C1F6FF04C1F7FF05C1F8FF09005A
:101F9C00F5CF01F00150200ACCE003C1F6FF04C1DB
:101FAC00F7FF05C1F8FF0900F5CF01F001502B0A2E
:101FBC00C7E003C1F6FF04C1F7FF05C1F8FF090034
:101FCC00F5CF01F00150230AC2E003C1F6FF04C1B2
:101FDC00F7FF05C1F8FF0900F5CF01F00150300AF9
:101FEC00BDE001D09ED715A301D0159115A701D046
:101FFC00159503C1F6FF04C1F7FF05C1F8FF0900F1
:10200C00F5CF00F0000E016E00C029F1AFDD0052DB
:10201C0034E0136B146B13C100F014C101F00A0E01
:10202C00046E000E056EAEDD03C1F6FF04C1F7FFB2
:10203C0005C1F8FF0900F5CF02F002500024136F20
:10204C00000E0120146F300E135F000E145B010E96
:10205C000327000E0423052303C1F6FF04C1F7FF79
:10206C0005C1F8FF0900F5CF00F0000E016E00C0AD
:10207C0029F17CDD0052CFE133D003C1F6FF04C15E
:10208C00F7FF05C1F8FF0900F5CF01F001502A0A4E
:10209C0027E106C1E9FF07C1EAFFEECF00F0EECF62
:1020AC0001F000C0E9FF01C0EAFFEECF13F1EECF63
:1020BC0014F106C1E9FF07C1EAFF020EEE24006E1F
:1020CC00000EEE20016E06C1E1FF07C1E2FF00C069
:1020DC00E6FF01C0E6FF010E0327000E04230523D3
:1020EC0003C1F6FF04C1F7FF05C1F8FF0900F5CFE6
:1020FC0001F001502E0A6EE1010E0327000E04239D
:10210C00052303C1F6FF04C1F7FF05C1F8FF090061
:10211C00F5CF01F001502A0A28E106C1E9FF07C1F9
:10212C00EAFFEECF00F0EECF01F000C0E9FF01C0F6
:10213C00EAFFEECF10F1EECF11F106C1E9FF07C1B6
:10214C00EAFF020EEE24006E000EEE20016E06C1B8
:10215C00E1FF07C1E2FF00C0E6FF01C0E6FF010E90
:10216C000327000E0423052334D0106B116B03C11D
:10217C00F6FF04C1F7FF05C1F8FF0900F5CF00F029
:10218C00000E016E00C029F1F1DC005222E010C1FA
:10219C0000F011C101F00A0E046E000E056EF2DCA7
:1021AC0003C1F6FF04C1F7FF05C1F8FF0900F5CF25
:1021BC0002F002500024106F000E0120116F300E3F
:1021CC00105F000E115B010E0327000E0423052384
:1021DC00CED703D0106B116B168903C100F004C16C
:1021EC0001F005C102F0010E0327000E04230523A4
:1021FC0000C0F6FF01C0F7FF02C0F8FF0900F5CFE1
:10220C0012F1F9D021C100F022C101F073EF1FF0DF
:10221C001589E3D716852ED1158B16812BD11683F4
:10222C0029D1158D27D126D1158B158F23D106C118
:10223C00E9FF07C1EAFFEECF00F0EECF01F000C0DE
:10224C00E9FF01C0EAFFEECF1DF1EECF1EF106C192
:10225C00E9FF07C1EAFF020EEE24006E000EEE202D
:10226C00016E06C1E1FF07C1E2FF00C0E6FF01C03D
:10227C00E6FF000E1E1902E1000E1D1904E1680EA6
:10228C001D6F000E1E6F1F6B206B1F511D25E96EFD
:10229C0020511E21EA6EEE520BE0010E1F25006E3E
:1022AC00000E2021016E00C01FF101C020F1EDD7FE
:1022BC00105111110AE02051115D02E11F51105D06
:1022CC0004E210C11FF111C120F11451205D02E193
:1022DC0013511F5D05E21F51135F2051145B02D097
:1022EC00136B146B15B716D013C100F014C101F0A9
:1022FC00010E135F000E145B005001100BE001C1C6
:10230C00E1FF02C1E2FF200EE66E014B022B214BD6
:10231C00222BEAD71FC102F020C103F0010E1F5D72
:10232C00006E000E2059016E00C01FF101C020F19B
:10233C000250031019E01DC1E9FF1EC1EAFF01C1E3
:10234C00E1FF02C1E2FFEECFE6FF014B022B010ED3
:10235C001D25006E000E1E21016E00C01DF101C076
:10236C001EF1214B222BD6D715A716D013C100F086
:10237C0014C101F0010E135F000E145B005001102C
:10238C000BE001C1E1FF02C1E2FF200EE66E014B42
:10239C00022B214B222BEAD798D506C1E9FF07C1A6
:1023AC00EAFFEECF00F0EECF01F000C0E9FF01C074
:1023BC00EAFFEECF12F106C1E9FF07C1EAFF020EF8
:1023CC00EE24006E000EEE20016E06C1E1FF07C187
:1023DC00E2FF00C0E6FF01C0E6FF120E1D6F010E0A
:1023EC001E6F010E1F6F000E206F62D7C00E1513EB
:1023FC00000E16133FD01251000AD8B403D7125155
:10240C006C0AD8B405D712514C0AD8B401D7125162
:10241C00660AD8B4FFD61251450AD8B4FDD612516B
:10242C00650AD8B4FAD61251670AD8B4F8D6125144
:10243C006F0AD8B4F6D61251640AD8B4F4D6125135
:10244C00690AD8B4F0D61251700AD8B4EDD612512C
:10245C00580AD8B4E9D61251780AD8B4E6D6125133
:10246C00730AD8B4E4D61251630A97E01251750A74
:10247C00BDE0B3D7000E1515006E1651070B016E9B
:10248C0000500110D8B416EF1BF016A904D0060E9C
:10249C00106F000E116F06C1E9FF07C1EAFFEECF06
:1024AC0000F0EECF01F000C0E9FF01C0EAFFEECF73
:1024BC0017F1EECF18F1EECF19F1EECF1AF106C1EC
:1024CC00E9FF07C1EAFF040EEE24006E000EEE20B9
:1024DC00016E06C1E1FF07C1E2FF00C0E6FF01C0CB
:1024EC00E6FF046A056A066A076A17C100F018C19C
:1024FC0001F019C102F01AC103F0F0EC0DF0010E5D
:10250C00D8B0000E006E005205E0197F030E1513B3
:10251C00000E16131B6B1C6B17C100F018C101F0D9
:10252C0019C102F01AC103F0046A056A066A076A47
:10253C00A5EC0DF0000ED8A4010E006E0052D8B41C
:10254C008AD01AC100F0016A026A036AFF0E0016F3
:10255C00000E01167E0E005E000E015A00C01BF12B
:10256C0001C01CF1010E005E000E015A00C01BF1EF
:10257C0001C01CF1030E046E000E056EC8EC0DF0CC
:10258C0000C01BF101C01CF10A0E046E000E056E9A
:10259C0083EC0CF000C01BF101C01CF1800E011883
:1025AC00026E800E025C02E1000E005C05E2010E80
:1025BC0001011B5F000E1C5B01011B510008296F00
:1025CC0091EC07F017C104F018C105F019C106F021
:1025DC001AC107F0EDEC02F000C01DF101C01EF1B4
:1025EC0002C01FF103C020F1000E046E000E056E38
:1025FC00000E066E7F0E076E1DC100F01EC101F0AD
:10260C001FC102F020C103F0F0EC0DF0010ED8B0A8
:10261C00000E006E005205E0010E1B5F000E1C5BED
:10262C001AD0000E046E000E056E200E066E820E81
:10263C00076E1DC100F01EC101F01FC102F020C1C8
:10264C0003F0F0EC0DF0000ED8B0010E006E00524D
:10265C0002E01B4B1C2B800E006E800E1C19005CC4
:10266C0002E11B51000803E3010E126F02D01BC1E3
:10267C0012F116B118D016A315D0800E1C19006ECD
:10268C007F0E005C02E1FC0E1B5D0BE3800E1C193F
:10269C00006E800E1119005C02E110511B5D01E20D
:1026AC0001D001D0EFD31051111106E016A304D0C4
:1026BC00010E105F000E115B1151000802E1105168
:1026CC00080803E2080E126F02D010C112F117C1F4
:1026DC0000F018C101F019C102F01AC103F0046A2C
:1026EC00056A066A076AA5EC0DF0000ED8A4010E67
:1026FC00006E0052D8B44BD11BC129F191EC07F0FC
:10270C0000C004F001C005F002C006F003C007F0E1
:10271C0017C100F018C101F019C102F01AC103F081
:10272C00E7EC0CF000C017F101C018F102C019F170
:10273C0003C01AF1010112510008296F91EC07F046
:10274C0000C004F001C005F002C006F003C007F0A1
:10275C0017C100F018C101F019C102F01AC103F041
:10276C00E7EC0CF000C023F101C024F102C025F10C
:10277C0003C026F123C117F124C118F125C119F1A9
:10278C0026C11AF123C100F024C101F025C102F0C9
:10279C0026C103F057EC0EF008EC06F000C004F074
:1027AC0001C005F002C006F003C007F023C100F021
:1027BC0024C101F025C102F026C103F065EC0AF03A
:1027CC00000E046E000E056E000E066E7E0E076E79
:1027DC00F0EC0DF0000ED8B0010E006E00521AE0B5
:1027EC0017C100F018C101F019C102F01AC103F0B1
:1027FC00000E046E000E056E000E066E7E0E076E49
:10280C007DEC03F000C017F101C018F102C019F102
:10281C0003C01AF117C100F018C101F019C102F080
:10282C001AC103F057EC0EF001011251010F096EA1
:10283C000A6A000E0A2209C004F00AC005F0000E54
:10284C000ABEFF0E066E076E043604900536063679
:10285C00073604360490053606360736380E04243F
:10286C00F66E420E0520F76E000E0620F86E09007B
:10287C00F5CF05F00900F5CF06F00900F5CF07F00C
:10288C000900F5CF08F00850035C08E10750025C22
:10289C0005E10650015C02E10550005C1EE30101FC
:1028AC0017C100F018C101F019C102F01AC103F0F0
:1028BC00CD0E046ECC0E056E4C0E066E7B0E076EA6
:1028CC00EDEC02F000C017F101C018F102C019F1D3
:1028DC0003C01AF11B4B1C2B5AD017C100F018C1A6
:1028EC0001F019C102F01AC103F057EC0EF012C13D
:1028FC0004F0000E056E066E076E04360490053665
:10290C000636073604360490053606360736380E7A
:10291C000424F66E420E0520F76E000E0620F86EAB
:10292C000900F5CF05F00900F5CF06F00900F5CF49
:10293C0007F00900F5CF08F00850035C08E10750D8
:10294C00025C05E10650015C02E10550005C1FE2EF
:10295C00010117C100F018C101F019C102F01AC130
:10296C0003F0000E046E000E056E200E066E820E35
:10297C00076EEDEC02F000C017F101C018F102C0B7
:10298C0019F103C01AF1010E1B5F000E1C5B010153
:10299C0016A393D016B791D0800E000A006E800E4D
:1029AC001119005C02E110510A0804E20A0E106FC2
:1029BC00000E116F17C100F018C101F019C102F01F
:1029CC001AC103F057EC0EF000C01DF101C01EF14E
:1029DC0002C01FF103C020F11D511E111F11201147
:1029EC0042E00A0E046E000E056E066E076E1DC1E7
:1029FC0000F01EC101F01FC102F020C103F01BEC5E
:102A0C0006F008C000F009C001F00AC002F00BC0CB
:102A1C0003F0000E046E031808E10450021805E1DF
:102A2C000450011802E10050000A1DE1010E105F74
:102A3C00000E115B0A0E046E000E056E066E076E1C
:102A4C001DC100F01EC101F01FC102F020C103F036
:102A5C001BEC06F000C01DF101C01EF102C01FF1FD
:102A6C0003C020F1B9D7800E1119006E800E005CE6
:102A7C0002E11251105D21E21051125D296F91ECAF
:102A8C0007F000C004F001C005F002C006F003C05E
:102A9C0007F017C100F018C101F019C102F01AC1FA
:102AAC0003F0E7EC0CF000C017F101C018F102C004
:102ABC0019F103C01AF110C112F1050E0101102514
:102ACC00006E000E1121016E0050135F0150145B5B
:102ADC001051111103E116B701D004D0010E135F90
:102AEC00000E145B030E1515006E16C101F0000EDE
:102AFC0001160050011004E0010E135F000E145B70
:102B0C0015A539D015A312D015A103D02D0E086F21
:102B1C0002D02B0E086F01C1E1FF02C1E2FF08C118
:102B2C00E6FF014B022B214B222B0CD015A10AD016
:102B3C0001C1E1FF02C1E2FF200EE66E014B022B48
:102B4C00214B222B800E006E800E1419005C02E1CA
:102B5C00135100080FE201C1E1FF02C1E2FF300E88
:102B6C00E66E014B022B214B222B010E135F000E44
:102B7C00145BE8D73AD015B718D0800E006E800ED3
:102B8C001419005C02E1135100080FE201C1E1FFCE
:102B9C0002C1E2FF200EE66E014B022B214B222BD1
:102BAC00010E135F000E145BE8D715A312D015A10C
:102BBC0003D02D0E096F02D02B0E096F01C1E1FF5E
:102BCC0002C1E2FF09C1E6FF014B022B214B222B74
:102BDC000CD015A10AD001C1E1FF02C1E2FF200E09
:102BEC00E66E014B022B214B222B17C100F018C1B2
:102BFC0001F019C102F01AC103F057EC0EF000C03D
:102C0C001DF101C01EF102C01FF103C020F112C161
:102C1C0000F0000E016E026E036E0036009001365D
:102C2C000236033600360090013602360336380E73
:102C3C000024F66E420E0120F76E000E0220F86E94
:102C4C000900F5CF04F00900F5CF05F00900F5CF28
:102C5C0006F00900F5CF07F01DC100F01EC101F010
:102C6C001FC102F020C103F01BEC06F0300E002651
:102C7C0001C1E1FF02C1E2FF00C0E6FF014B022BE4
:102C8C00214B222B1051111103E116B701D06FD03B
:102C9C0001C1E1FF02C1E2FF2E0EE66E014B022BD9
:102CAC00214B222B1251105F000E115B12534DE081
:102CBC00120712C100F0000E016E026E036E003698
:102CCC00009001360236033600360090013602368B
:102CDC000336380E0024F66E420E0120F76E000EFD
:102CEC000220F86E0900F5CF04F00900F5CF05F0CD
:102CFC000900F5CF06F00900F5CF07F01DC100F073
:102D0C001EC101F01FC102F020C103F01BEC06F044
:102D1C000A0E046E000E056E066E076E1BEC06F0B6
:102D2C0008C000F009C001F00AC002F00BC003F0AB
:102D3C00300E002601C1E1FF02C1E2FF00C0E6FF38
:102D4C00014B022B214B222BB1D7105111110FE04B
:102D5C0001C1E1FF02C1E2FF300EE66E014B022B16
:102D6C00214B222B010E105F000E115BEED715AB21
:102D7C000BD001C1E1FF02C1E2FF450EE66E014B33
:102D8C00022B214B222B0AD001C1E1FF02C1E2FF31
:102D9C00650EE66E014B022B214B222B800E1C196B
:102DAC00006E800E005C02E1000E1B5D11E21B51F7
:102DBC0000081B6F1C51000E1C5701C1E1FF02C122
:102DCC00E2FF2D0EE66E014B022B214B222B0AD07B
:102DDC0001C1E1FF02C1E2FF2B0EE66E014B022B9B
:102DEC00214B222B0A0E046E000E056E1BC100F047
:102DFC001CC101F083EC0CF0300E002601C1E1FF88
:102E0C0002C1E2FF00C0E6FF0101014B022B214B86
:102E1C00222B0A0E046E000E056E1BC100F01CC1A5
:102E2C0001F083EC0CF008C000F009C001F0300E8A
:102E3C00002601C1E1FF02C1E2FF00C0E6FF010173
:102E4C00014B022B214B222B15A71AD0800E006EA2
:102E5C00800E1419005C02E11351000811E201C14B
:102E6C00E1FF02C1E2FF200EE66E014B022B214B6B
:102E7C00222B010E135F000E145B13511411EFE1A2
:102E8C006BEF0FF016A3F3D0800E1C19006E800EA2
:102E9C00005C02E1000E1B5D0AE2010E1B5D006E80
:102EAC00000E1C59016E0050105F0150115B17C1D0
:102EBC0000F018C101F019C102F01AC103F057EC6F
:102ECC000EF000C01DF101C01EF102C01FF103C0C5
:102EDC0020F1010E126F12510A0A34E012C100F0F7
:102EEC00000E016E026E036E003600900136023643
:102EFC00033600360090013602360336380E0024B5
:102F0C00F66E420E0120F76E000E0220F86E0900DC
:102F1C00F5CF01F00900F5CF02F00900F5CF03F071
:102F2C000900F5CF04F00450205D08E103501F5D4B
:102F3C0005E102501E5D02E101501D5D01E202D06F
:102F4C00122BC9D71251105D276F000E1159286F23
:102F5C0027C110F128C111F11DC100F01EC101F0F3
:102F6C001FC102F020C103F008EC06F000C004F011
:102F7C0001C005F002C006F003C007F017C100F055
:102F8C0018C101F019C102F01AC103F065EC0AF086
:102F9C0000C023F101C024F102C025F103C026F1C9
:102FAC0027C129F191EC07F023C104F024C105F0ED
:102FBC0025C106F026C107F0EDEC02F0000E046E00
:102FCC00000E056E000E066E7E0E076E7DEC03F095
:102FDC0057EC0EF000C01DF101C01EF102C01FF134
:102FEC0003C020F11051111142E00A0E046E000EC4
:102FFC00056E066E076E1DC100F01EC101F01FC1EB
:10300C0002F020C103F01BEC06F008C000F009C070
:10301C0001F00AC002F00BC003F0000E046E03189E
:10302C0008E10450021805E10450011802E10050B7
:10303C00000A1DE10A0E046E000E056E066E076E88
:10304C001DC100F01EC101F01FC102F020C103F030
:10305C001BEC06F000C01DF101C01EF102C01FF1F7
:10306C0003C020F1010E105F000E115BBBD7800E68
:10307C00006E800E1119005C02E110510C0816E371
:10308C0010C129F102EC0BF017C104F018C105F0C6
:10309C0019C106F01AC107F07DEC03F000C017F15E
:1030AC0001C018F102C019F103C01AF117C100F0E8
:1030BC0018C101F019C102F01AC103F0046A056AC3
:1030CC00066A076AA5EC0DF0000ED8A4010E006E7E
:1030DC000052D8B477D017C100F018C101F019C153
:1030EC0002F01AC103F057EC0EF0000E046E031838
:1030FC0008E10450021805E10450011802E10050E7
:10310C00000A60E1800E006E800E1C19005C02E16A
:10311C001B51010857E21BC129F191EC07F000C0CB
:10312C0004F001C005F002C006F003C007F017C19F
:10313C0000F018C101F019C102F01AC103F0E7EC5C
:10314C000CF05F0E046E700E056E090E066E810E8D
:10315C00076EF0EC0DF0010ED8B0000E006E0052B0
:10316C0006E0090E01011B5F000E1C5B05D001017E
:10317C00080E1B5F000E1C5B1BC129F191EC07F0C4
:10318C0000C004F001C005F002C006F003C007F057
:10319C0017C100F018C101F019C102F01AC103F0F7
:1031AC00E7EC0CF057EC0EF000C01DF101C01EF165
:1031BC0002C01FF103C020F10101176B186B196BD2
:1031CC001A6B38D017C100F018C101F019C102F008
:1031DC001AC103F057EC0EF000C01DF101C01EF136
:1031EC0002C01FF103C020F11DC100F01EC101F08F
:1031FC001FC102F020C103F008EC06F000C004F07F
:10320C0001C005F002C006F003C007F017C100F0C2
:10321C0018C101F019C102F01AC103F065EC0AF0F3
:10322C0000C017F101C018F102C019F103C01AF166
:10323C001B6B1C6B010E126F12510A0A34E012C187
:10324C0000F0000E016E026E036E00360090013627
:10325C000236033600360090013602360336380E3D
:10326C000024F66E420E0120F76E000E0220F86E5E
:10327C000900F5CF01F00900F5CF02F00900F5CFF8
:10328C0003F00900F5CF04F00450205D08E1035071
:10329C001F5D05E102501E5D02E101501D5D01E262
:1032AC0002D0122BC9D712511025006E000E11211D
:1032BC00016E1B5100261C5101220050135F01505E
:1032CC00145B16B704D01051111101E104D0010E9A
:1032DC00135F000E145B030E1515006E16C101F082
:1032EC00000E01160050011004E0010E135F000ED9
:1032FC00145B15A539D015A312D015A103D02D0E32
:10330C000A6F02D02B0E0A6F01C1E1FF02C1E2FF6E
:10331C000AC1E6FF014B022B214B222B0CD015A12D
:10332C000AD001C1E1FF02C1E2FF200EE66E014BA3
:10333C00022B214B222B800E006E800E1419005C88
:10334C0002E1135100080FE201C1E1FF02C1E2FFEB
:10335C00300EE66E014B022B214B222B010E135F1C
:10336C00000E145BE8D73AD015B718D0800E006E5B
:10337C00800E1419005C02E1135100080FE201C128
:10338C00E1FF02C1E2FF200EE66E014B022B214B46
:10339C00222B010E135F000E145BE8D715A312D07D
:1033AC0015A103D02D0E0B6F02D02B0E0B6F01C18C
:1033BC00E1FF02C1E2FF0BC1E6FF014B022B214BE7
:1033CC00222B0CD015A10AD001C1E1FF02C1E2FFF2
:1033DC00200EE66E014B022B214B222B12C100F06A
:1033EC00120700524CE012C100F0000E016E026E8A
:1033FC00036E00360090013602360336003600901C
:10340C00013602360336380E0024F66E420E0120C9
:10341C00F76E000E0220F86E0900F5CF04F00900DB
:10342C00F5CF05F00900F5CF06F00900F5CF07F050
:10343C001DC100F01EC101F01FC102F020C103F03C
:10344C001BEC06F00A0E046E000E056E066E076E7F
:10345C001BEC06F008C000F009C001F00AC002F035
:10346C000BC003F0300E002601C1E1FF02C1E2FFE8
:10347C0000C0E6FF014B022B214B222BAFD7800E55
:10348C00006E800E1C19005C02E11B5100080FE25B
:10349C0001C1E1FF02C1E2FF300EE66E014B022BCF
:1034AC00214B222B010E1B5F000E1C5BE8D7800EFC
:1034BC00000A006E800E1119005C02E11051080820
:1034CC0003E2080E126F02D010C112F11251105FFC
:1034DC00000E115B125303E116B701D00AD001C1E3
:1034EC00E1FF02C1E2FF2E0EE66E014B022B214BD7
:1034FC00222B12C129F191EC07F017C104F018C16D
:10350C0005F019C106F01AC107F0EDEC02F069ECF8
:10351C000AF000C01DF101C01EF102C01FF103C072
:10352C0020F112534DE0120712C100F0000E016E93
:10353C00026E036E003600900136023603360036FA
:10354C000090013602360336380E0024F66E420E19
:10355C000120F76E000E0220F86E0900F5CF04F082
:10356C000900F5CF05F00900F5CF06F00900F5CFFD
:10357C0007F01DC100F01EC101F01FC102F020C1F7
:10358C0003F01BEC06F00A0E046E000E056E066EC0
:10359C00076E1BEC06F008C000F009C001F00AC071
:1035AC0002F00BC003F0300E002601C1E1FF02C196
:1035BC00E2FF00C0E6FF014B022B214B222BB1D7BF
:1035CC00105111110FE001C1E1FF02C1E2FF300EF9
:1035DC00E66E014B022B214B222B010E105F000ECD
:1035EC00115BEED715A71AD0800E006E800E141941
:1035FC00005C02E11351000811E201C1E1FF02C1BC
:10360C00E2FF200EE66E014B022B214B222B010E0A
:10361C00135F000E145B13511411EFE16BEF0FF0FD
:10362C00C00E1515016E16C102F0000E0216000E2A
:10363C00021802E1000E0118D8A480D015A927D0D9
:10364C0006C1E9FF07C1EAFFEECF00F0EECF01F0B3
:10365C0000C0E9FF01C0EAFFEECF1DF1EECF1EF175
:10366C00EECF1FF1EECF20F106C1E9FF07C1EAFF53
:10367C00040EEE24006E000EEE20016E06C1E1FF7A
:10368C0007C1E2FF00C0E6FF01C0E6FF2FD006C174
:10369C00E9FF07C1EAFFEECF00F0EECF01F000C06A
:1036AC00E9FF01C0EAFFEECF00F0EECF01F0000E13
:1036BC0001BEFF0E026E036E00C01DF101C01EF1B3
:1036CC0002C01FF103C020F106C1E9FF07C1EAFFE8
:1036DC00020EEE24006E000EEE20016E06C1E1FF1C
:1036EC0007C1E2FF00C0E6FF01C0E6FF800E201913
:1036FC00006E800E005C08E1000E1F5D05E1000EFF
:10370C001E5D02E1000E1D5D18E2030E1513000E86
:10371C001613006A016A026A036A1D51005E1E518B
:10372C00015A1F51025A2051035A00C01DF101C009
:10373C001EF102C01FF103C020F14ED015A927D0F5
:10374C0006C1E9FF07C1EAFFEECF00F0EECF01F0B2
:10375C0000C0E9FF01C0EAFFEECF1DF1EECF1EF174
:10376C00EECF1FF1EECF20F106C1E9FF07C1EAFF52
:10377C00040EEE24006E000EEE20016E06C1E1FF79
:10378C0007C1E2FF00C0E6FF01C0E6FF25D006C17D
:10379C00E9FF07C1EAFFEECF00F0EECF01F000C069
:1037AC00E9FF01C0EAFFEECF1DF1EECF1EF1000ED6
:1037BC001F6F206F06C1E9FF07C1EAFF020EEE245E
:1037CC00006E000EEE20016E06C1E1FF07C1E2FFA4
:1037DC0000C0E6FF01C0E6FF000E111902E1000E69
:1037EC0010190FE1000E006E201908E100501F198E
:1037FC0005E100501E1902E11D51000A02E1104BB7
:10380C00112BC00E1515006E00C005F0AED0010EC8
:10381C00126F12510A0A34E012C100F0000E016E50
:10382C00026E036E00360090013602360336003607
:10383C000090013602360336380E0024F66E420E26
:10384C000120F76E000E0220F86E0900F5CF01F092
:10385C000900F5CF02F00900F5CF03F00900F5CF10
:10386C0004F00450205D08E103501F5D05E1025097
:10387C001E5D02E101501D5D01E202D0122BC9D781
:10388C0082D0010E126F1251080A34E012C100F0FE
:10389C00000E016E026E036E003600900136023689
:1038AC00033600360090013602360336600E0024D3
:1038BC00F66E420E0120F76E000E0220F86E090023
:1038CC00F5CF01F00900F5CF02F00900F5CF03F0B8
:1038DC000900F5CF04F00450205D08E103501F5D92
:1038EC0005E102501E5D02E101501D5D01E202D0B6
:1038FC00122BC9D748D0010E126F12510C0A34E0AA
:10390C0012C100F0000E016E026E036E00360090C4
:10391C000136023603360036009001360236033685
:10392C00080E0024F66E420E0120F76E000E0220E7
:10393C00F86E0900F5CF01F00900F5CF02F009008F
:10394C00F5CF03F00900F5CF04F00450205D08E139
:10395C0003501F5D05E102501E5D02E101501D5D2B
:10396C0001E202D0122BC9D70ED00550000AD8B4F0
:10397C004ED70550C00AD8B44AD70550800A81E00A
:10398C000550400AB8E0800E006E800E1119005CE4
:10399C0002E11051125D03E210C112F10DD0800E44
:1039AC001119006E800E005C02E11251105D04E2F0
:1039BC0012C110F1000E116F135114110EE0030E11
:1039CC001515006E16C101F0000E01160050011005
:1039DC0004E0010E135F000E145B800E1119006ED3
:1039EC00800E1419005C02E11351105D05E21051B8
:1039FC00135F1151145B02D0136B146BC40E1515AD
:103A0C00016E1651080B026E0250080A02E1400EBC
:103A1C00011808E11351141104E0010E135F000E9C
:103A2C00145B1CD0C00E1515016E1651080B026EDE
:103A3C000250080A02E1800E011810E1800E006E9F
:103A4C00800E1419005C02E11351020805E2020E0B
:103A5C00135F000E145B02D0136B146B15A55DD0B5
:103A6C0015A312D015A103D02D0E0C6F02D02B0E66
:103A7C000C6F01C1E1FF02C1E2FF0CC1E6FF014B7B
:103A8C00022B214B222B34D015A10BD001C1E1FF0D
:103A9C0002C1E2FF200EE66E014B022B214B222BC2
:103AAC0027D0C00E1515016E1651080B026E025070
:103ABC00080A02E1800E01181BE101C1E1FF02C1FD
:103ACC00E2FF300EE66E014B022B214B222B15AB85
:103ADC0003D0580E0D6F02D0780E0D6F01C1E1FFAF
:103AEC0002C1E2FF0DC1E6FF014B022B214B222B41
:103AFC001351141111E001C1E1FF02C1E2FF300EBC
:103B0C00E66E014B022B214B222B010E135F000E94
:103B1C00145B13511411EFE174D01351141113E011
:103B2C0015B711D001C1E1FF02C1E2FF200EE66E14
:103B3C00014B022B214B222B010E135F000E145B49
:103B4C0013511411EFE115A312D015A103D02D0EB2
:103B5C000E6F02D02B0E0E6F01C1E1FF02C1E2FF0E
:103B6C000EC1E6FF014B022B214B222B0CD015A1D1
:103B7C000AD001C1E1FF02C1E2FF200EE66E014B4B
:103B8C00022B214B222BC00E1515016E1651080B62
:103B9C00026E0250080A02E1400E01180BE101C14D
:103BAC00E1FF02C1E2FF300EE66E014B022B214B0E
:103BBC00222B27D0C00E1515016E1651080B026E64
:103BCC000250080A02E1800E01181BE101C1E1FF5D
:103BDC0002C1E2FF300EE66E014B022B214B222B71
:103BEC0015AB03D0580E0F6F02D0780E0F6F01C1BA
:103BFC00E1FF02C1E2FF0FC1E6FF014B022B214B9B
:103C0C00222B800E006E800E1119005C02E1105107
:103C1C00125D0BE201C1E1FF02C1E2FF300EE66E64
:103C2C00014B022B214B222BECD710C100F011C100
:103C3C0001F0010E105F000E115B00500110D8B4A2
:103C4C002AD1C00E1515006E00C023F10AD110C187
:103C5C0000F011C101F0000E11BFFF0E026E036ED9
:103C6C0000360090013602360336003600900136DD
:103C7C0002360336380E0024F66E420E0120F76E23
:103C8C00000E0220F86E0900F5CF04F00900F5CF04
:103C9C0005F00900F5CF06F00900F5CF07F01DC1BE
:103CAC0000F01EC101F01FC102F020C103F01BEC9B
:103CBC0006F00A0E046E000E056E066E076E1BEC07
:103CCC0006F008C000F009C001F00AC002F00BC0F9
:103CDC0003F0300E0024126FD3D015AB45D010C1B9
:103CEC0000F011C101F0000E11BFFF0E026E036E49
:103CFC00003600900136023603360036009001364D
:103D0C0002360336600E0024F66E420E0120F76E6A
:103D1C00000E0220F86E0900F5CF04F00900F5CF73
:103D2C0005F00900F5CF06F00900F5CF07F01DC12D
:103D3C0000F01EC101F01FC102F020C103F01BEC0A
:103D4C0006F00F0E0016000E011602160316800E5A
:103D5C000024F66E420E0120F76E000E0220F86E63
:103D6C000900F5CF12F144D010C100F011C101F0DF
:103D7C00000E11BFFF0E026E036E0036009001366E
:103D8C000236033600360090013602360336600EDA
:103D9C000024F66E420E0120F76E000E0220F86E23
:103DAC000900F5CF04F00900F5CF05F00900F5CFB7
:103DBC0006F00900F5CF07F01DC100F01EC101F09F
:103DCC001FC102F020C103F01BEC06F00F0E001611
:103DDC00000E011602160316910E0024F66E420E0A
:103DEC000120F76E000E0220F86E0900F5CF12F1DB
:103DFC0047D010C100F011C101F0000E11BFFF0E31
:103E0C00026E036E00360090013602360336003621
:103E1C000090013602360336080E0024F66E420E70
:103E2C000120F76E000E0220F86E0900F5CF04F0A9
:103E3C000900F5CF05F00900F5CF06F00900F5CF24
:103E4C0007F01DC100F01EC101F01FC102F020C11E
:103E5C0003F01BEC06F0070E0014126F300E122745
:103E6C000FD02351000AD8B4F2D62351C00AD8B4CB
:103E7C00EED62351800AD8B430D72351400AB9E08A
:103E8C0001C1E1FF02C1E2FF12C1E6FF014B022BAF
:103E9C00214B222BCAD615A71AD0800E006E800E8D
:103EAC001419005C02E11351000811E201C1E1FF99
:103EBC0002C1E2FF200EE66E014B022B214B222B9E
:103ECC00010E135F000E145B13511411EFE16BEF35
:0C3EDC000FF021C100F022C101F0120023
:103EE800016A01500A080BE3DD0EE16E000EE26E76
:103EF8000150E126D8B0E22AE66A012AF2D7120078
:103F0800BE0E0001D56F1E0ED66F010ED76F010EC3
:103F1800D86FBE0ED96F3F0EDA6F000EDB6F000E42
:103F2800DC6FFF0ECD6FFF0ECE6F000ECF6F000E51
:103F3800D06FFF0ED16FFF0ED26F000ED36F000E41
:103F4800D46FAC8A900EAB6E948E949C9EAA03D0CC
:083F5800AECF00F0FBD7120010
:103F60000900F5CFE6FF0006FBE10106F9E11200CA
:103F7000FB0E0001FF6F000E0101006FF6C001F1A2
:103F8000F7C002F1F8C003F1F9C004F1FAC005F17D
:103F9000FF0E066F000E076F66EC0FF000C0FDF01D
:103FA00001C0FEF000500001F625E16E0150F7213E
:0E3FB000E26EE66AFDC000F0FEC001F01200F5
:103FBE00AECF01F0ABA202D0AB98AB8801C000F03F
:023FCE001200DF
:103FD000000E0001F71902E1000EF6193AE0F6C0F2
:103FE000E9FFF7C0EAFFEE5234E0F8C001F1F9C092
:103FF00002F1F3EC0EF000C005F1F6C001F1F7C0DC
:1040000002F1F8C003F1F9C004F110EC0FF0000E5A
:10401000011802E1000E001805E1F6C000F0F7C03B
:1040200001F019D0010E0001F6250101016F000E0B
:104030000001F7210101026FF8C0E9FFF9C0EAFFB2
:10404000EECF03F141EC0FF000C0F6F001C0F7F045
:08405000BFD7006A016A1200EB
:104058000001F96BF6C0E9FFF7C0EAFFEECFF8F010
:10406800F851000A0FE0F8C001F15FEC0FF0000111
:10407800F92BF951F625E96E000EF721EA6EEECF1D
:06408800F8F0EED7120073
:10408E005DEC21F00F0EC112070EB412816A8A6A1E
:10409E00938093829384846A8D6A96929690969476
:1040AE00F292F090F092F288F086F088F18CF18A1C
:1040BE00F1889E9A9D8AF28EF28CB886B06A810E35
:1040CE00AF6EAC841ADF030E0B6E8A0E0C6E550E9D
:1040DE000D6E0D2EFED70C2EFCD70B2EFAD7000030
:0640EE000000FFD7FFD720
:1042BA0010EE1EF0AC0E006E010E016EF40EF66EDC
:0E42CA00400EF76E000EF86EB0EC1FF0120002
:0140F40000CB
:0140F500408A
:0140F60026A3
:0740F7006C65305F6F6E0085
:0740FE006C65305F6F6E007E
:0141050000B9
:024106000000B7
:024108000000B5
:02410A000000B3
:07410C006C65325F6F6E006D
:0A411300404C6C65325F6F6E2600B1
:0B411D00404C6C65315F6F6666260049
:074128006C65325F6F6E0051
:07412F006C65325F6F660052
:08413600404572726F72260011
:07413E00286E756C6C29006E
:074145006C65325F6F66003C
:0B414C00404C6C65325F6F6666260019
:074157006C65305F6F66002C
:0B415E00404C6C65305F6F6666260009
:0A416900404C6C65305F6F6E26005D
:074173006C65305F6F660010
:07417A006C65315F6F6E0000
:074181006C65315F6F660001
:074188006C65315F6F6600FA
:07418F006C65315F6F6E00EB
:0A419600404C6C65315F6F6E26002F
:1041A0000000007F000020820000488500007A881F
:1041B00000401C8C0050438F002474928096189607
:1041C00020BC3E99286B6E9CF90215A0EC782DC19D
:0441D000CAF249E204
:1041D4000000007FCDCC4C7B0AD723786F12037587
:1041E40017B75171ACC5276EBD37066B95BF5667BF
:1041F40077CC2B645F700961FFE65B5D08E53C3CAE
:044204006042221BD7
:10420800010000000800000040000000000200005B
:1042180000100000008000000000040000002000E2
:10422800000000010000000800000040000000003D
:10423800010000000A00000064000000E80300001C
:1042480010270000A086010040420F0080969800C9
:0842580000E1F50500CA9A3BE4
:10426000010000001000000000010000001000002C
:10427000000001000000100000000001000000101C
:10428000303132333435363738394142434445468C
:01429000002D
:1042910030313233343536373839616263646566BB
:0142A100001C
:0842A2004053305F2564260043
:0842AA004053325F2564260039
:0842B2004053315F2564260032
:00000001FF
