:0400000043EF20F0BA
:1000080000C019F001C018F00BC017F00CC016F0B2
:100018000DC015F0F5CF1DF0F8CF1AF0F7CF1BF093
:10002800F6CF1CF0F2A21AD0F292364A372AF30E13
:100038000101026F000E036FA80E046F420E056FD8
:10004800000E066F36C007F137C008F1B9EC1FF093
:10005800F30E026F000E036F28EC20F0F0A01AD008
:100068000101F090324A332AF30E026F000E036F3B
:10007800B80E046F420E056F000E066F32C007F10E
:1000880033C008F1B9EC1FF0F30E026F000E036FD6
:1000980028EC20F0F0A21AD00101F092344A352A57
:1000A800F30E026F000E036FB00E046F420E056F61
:1000B800000E066F34C007F135C008F1B9EC1FF027
:1000C800F30E026F000E036F28EC20F09EAA39D1C0
:1000D8009E9ADEEC1FF000C0D7F000501F180DE10B
:1000E8001E6AD7C0D6F0E90EE16E000EE26E1E5011
:1000F800E126D8B0E22AD7C0E6FF0001D751201880
:100108000CE1D7C0D8F0E90EE16E000EE26E1E5089
:10011800E126D8B0E22AD7C0E6FFD6511F1809E178
:10012800D851201806E1010E316E1E6AD66BD86BC5
:100138000FD0E90EE16E000EE26E1E50E126D8B037
:10014800E22AD7C0E6FF1E2A1E500A08D8A01E6A57
:100158003150010AD8A4F5D0E90E0101026F000E52
:10016800036F210E046F000E056FE7EC1FF000C04F
:100178000DF101C00EF1290E01010F6F000E106F75
:10018800060E116F11EC0FF0000E011802E1000EBF
:10019800001809E18D809A0E0101026F000E036FAD
:1001A80028EC20F0CAD00101E90E026F000E036F9F
:1001B800A40E046F000E056FE7EC1FF000C00DF1F0
:1001C80001C00EF1870E01010F6F000E106F060EB1
:1001D800116F11EC0FF0000E011802E1000E00186B
:1001E80009E18D908F0E0101026F000E036F28EC5C
:1001F80020F0A3D00101E90E026F000E036FAC0ED0
:10020800046F000E056FE7EC1FF000C00DF101C090
:100218000EF1C40E01010F6F000E106F060E116F64
:1002280011EC0FF0000E011802E1000E001809E1B0
:100238008D82CC0E0101026F000E036F28EC20F0B6
:100248007CD00101E90E026F000E036FB40E046F3B
:10025800000E056FE7EC1FF000C00DF101C00EF1B4
:10026800BC0E01010F6F000E106F060E116F11EC1E
:100278000FF0000E011802E1000E001809E18D923E
:100288004A0E0101026F000E036F28EC20F055D0D2
:100298000101E90E026F000E036F550E046F000E88
:1002A800056FE7EC1FF000C00DF101C00EF1380E2C
:1002B80001010F6F000E106F060E116F11EC0FF099
:1002C800000E011802E1000E001809E18D84400EAD
:1002D8000101026F000E036F28EC20F02ED00101FF
:1002E800E90E026F000E036F5D0E046F000E056FBE
:1002F800E7EC1FF000C00DF101C00EF1740E010112
:100308000F6F000E106F060E116F11EC0FF0000E3C
:10031800011802E1000E001809E18D947C0E01011C
:10032800026F000E036F28EC20F007D00101650E64
:10033800026F000E036F28EC20F0316A1E6A75EC1C
:100348001FF01DC0F5FF1AC0F8FF1BC0F7FF1CC047
:10035800F6FF19C000F018C001F017C00BF016C066
:080368000CF015C00DF01100AE
:080370000AAE029E000E12000D
:100378000B840BAEC7EF01F0010E036E026A016A2F
:0A038800006A0A360232FF0E12006E
:0E039200026A016A006A086A036A000E12001D
:1003A0000B820BAEDAEF01F00368026801680068A7
:0803B0000A360232FF0E1200B2
:1003B8000CB01EEF02F00CA2C4EF02F00E6A000EA1
:1003C800026435EF02F0F00E0214D8A400EF02F038
:1003D800023A01380F0B02260138F00B016E003883
:1003E8000F0B01260038F00B006E08380F0B0026A3
:1003F8000838F00B086E0E84D89002BE19EF02F090
:1004080008360036013602360E2A02BE19EF02F00F
:1004180008360036013602360E2A02BE19EF02F0FF
:1004280008360036013602360E2A0E500364BAEF3B
:1004380002F0035E0BBC08AEBFEF02F0D880800E5E
:1004480008640030000E002201220222D8A0BFEF6B
:1004580002F0023201320032034AC4EF02F0BFEF69
:1004680002F001C002F000C001F008C000F0086A04
:10047800000E0E8602646CEF02F0F00E0214D8A48F
:1004880054EF02F0023A01380F0B02260138F00B44
:10049800016E00380F0B01260038F00B006E0E8439
:1004A800D89002BE19EF02F00036013602360E2A45
:1004B80002BE19EF02F00036013602360E2A02BEDD
:1004C80019EF02F00036013602360E2A19EF02F053
:1004D80001C002F000C001F0006A000E0E960E88FE
:1004E800026499EF02F0F00E0214D8A484EF02F02F
:1004F800023A01380F0B02260138F00B016E0E8408
:10050800D89002BE19EF02F0013602360E2A02BE5A
:1005180019EF02F0013602360E2A02BE19EF02F078
:10052800013602360E2A19EF02F001C002F0016A04
:10053800000E0E860264C9EF02F0F00E0214D8A471
:10054800A8EF02F0023A0E84D89002BE19EF02F02A
:1005580002360E2A02BE19EF02F002360E2A02BE39
:1005680019EF02F002360E2A19EF02F0010E0C6E96
:10057800FFDECCEF02F0020E0C6EF6DECCEF02F0DE
:10058800040E0C6E09DFCCEF02F0080E0C6EFDDED7
:0205980012004F
:10059A00086A080E0C6E003408360450085ED8B09B
:0E05AA0002D00826D89000360C2EF5D712008D
:0805B8000B6A0B86FF0E120016
:1005C0000B800BAEECEF02F0026A0AAEFF0E026E79
:0C05D000016E006E0A360232FF0E1200AF
:1005DC00086A096A000E0762036473EF03F00250A5
:1005EC0006180A6E075003267E0ED8A004EF03F0FF
:1005FC00035ED8B077EF03F008EF03F0035ED8A0EA
:10060C007BEF03F0028E068E02C00EF001C00BF0E1
:10061C0000C00DF000500402F4CF0CF001500502A4
:10062C00F4CF00F0F3CF08F00402F3500C26F45092
:10063C000822000E00220D500502F3500C26F45037
:10064C000822000E002202500402F3500826F45037
:10065C00002202500502016A000E0122F35000260E
:10066C00F45001220D500602F3500826F4500022DB
:10067C00026A000E012202220B500602F3500026E1
:10068C00F4500122000E02220E500602F3500126F5
:10069C00F450022202BE5BEF03F00836003601363E
:1006AC0002360306D8B47BEF03F06EEF03F0D8806C
:1006BC00800E08640030000E002201220222D8A015
:1006CC006EEF03F0023201320032034A77EF03F08F
:1006DC000AAE029E000E7DEF03F0010E54DE7DEF9C
:1006EC0003F0020E57DE7DEF03F0040E3FDE120026
:1006FC00025006180E6E086A096A0B6A03500764EA
:10070C0071EF04F006500A6E068E028E03500B6ECB
:10071C000750036E000E0B64C1EF03F00B50075E25
:10072C00D8B462EF04F0070E076430EF04F0075EF4
:10073C0000C008F001C000F002C001F0026A074ED0
:10074C0062EF04F0076405EF04F0075E00C008F0E8
:10075C0001C000F0016A074E62EF04F00764E3EF9A
:10076C0003F0075E00C008F0006A074E62EF04F069
:10077C000764CAEF03F00AC002F005C001F004C020
:10078C0000F0086A8BEF05F0030E0764D5EF03F059
:10079C00075E08380F0B086E074E62EF04F0D89016
:1007AC000832074E62EF04F0D8900832074E62EF21
:1007BC0004F0D890083262EF04F0030E0764F4EFF3
:1007CC0003F0075E08380F0B086E0038F00B082694
:1007DC0000380F0B006E074E62EF04F0D890003219
:1007EC000832074E62EF04F0D89000320832074E00
:1007FC0062EF04F0D8900032083262EF04F0030E7E
:10080C0007641CEF04F0075E08380F0B086E003805
:10081C00F00B082600380F0B006E0138F00B002689
:10082C0001380F0B016E074E62EF04F0D8900132C5
:10083C0000320832074E62EF04F0D89001320032D9
:10084C000832074E62EF04F0D890013200320832C1
:10085C0062EF04F0030E07644DEF04F0075E0838F6
:10086C000F0B086E0038F00B082600380F0B006ECB
:10087C000138F00B002601380F0B016E0238F00B1B
:10088C00012602380F0B026E074E62EF04F0D8906F
:10089C000232013200320832074E62EF04F0D89077
:1008AC000232013200320832074E62EF04F0D89067
:1008BC000232013200320832096A000E0EAE56EFD7
:1008CC0005F0081E001E011E021E082A002201222D
:1008DC00022256EF05F00750D8A477EF04F08BEF07
:1008EC0005F0096A02C00AF0028E068E0750035CFE
:1008FC00076ED8B449EF05F0070E076417EF05F043
:10090C00075E0450096E0550046E0650056E066AAB
:10091C00074E49EF05F0070E0764ECEF04F0075E95
:10092C000450096E0550046E056A074E49EF05F038
:10093C00070E0764CAEF04F0075E0450096E046AE0
:10094C00074E49EF05F0070E0764B1EF04F00AC03B
:10095C0002F08BEF05F0030E0764BCEF04F0075EAA
:10096C0009380F0B096E074E49EF05F0D890093284
:10097C00074E49EF05F0D8900932074E49EF05F0C4
:10098C00D890093249EF05F0030E0764DBEF04F051
:10099C00075E09380F0B096E0438F00B0926043872
:1009AC000F0B046E074E49EF05F0D8900432093254
:1009BC00074E49EF05F0D89004320932074E49EF43
:1009CC0005F0D8900432093249EF05F0030E0764A4
:1009DC0003EF05F0075E09380F0B096E0438F00BB6
:1009EC00092604380F0B046E0538F00B0426053865
:1009FC000F0B056E074E49EF05F0D8900532043207
:100A0C000932074E49EF05F0D8900532043209320D
:100A1C00074E49EF05F0D89005320432093249EF00
:100A2C0005F0030E076434EF05F0075E09380F0B71
:100A3C00096E0438F00B092604380F0B046E0538C8
:100A4C00F00B042605380F0B056E0638F00B052647
:100A5C0006380F0B066E074E49EF05F0D89006329C
:100A6C00053204320932074E49EF05F0D8900632B0
:100A7C00053204320932074E49EF05F0D8900632A0
:100A8C00053204320932086A000E0EAE56EF05F03C
:100A9C00091E041E051E061E092A04220522062212
:100AAC00095008260450002205500122065002224B
:100ABC000EBE6DEF05F0D8A07CEF05F002320132CE
:100ACC0000320832033E7CEF05F086EF05F0D8B01B
:100ADC0081EF05F0000E081E001E011E021E082AE2
:100AEC000022012202220A7E81EF05F0010E0C6E1B
:100AFC005DDC8DEF05F0020E0C6E58DC8DEF05F011
:100B0C00040E0C6E47DC8DEF05F0000E0C6E12001F
:100B1C000134083609360450085E0550D8A0053C4F
:100B2C00095E003601360F0E0C6E0134083609369C
:100B3C00045000A006D0085E0550D8A0053C095E04
:100B4C0005D008260550D8B0053C092600360136DC
:100B5C000C2EEBD700B006D0045008260550D8B0A8
:080B6C00053C092600001200FF
:100B74000D6A086A0050D8B4000C04180A6E0ABE44
:100B84000D1E0B6A04AE02D0041E042A00AE02D06D
:100B9400001E002A005004100A6E0ABE1FD0045022
:100BA400085E003600340836045008260036060E67
:100BB4000C6E00340836045000B0085E00A008260D
:100BC40000360C2EF6D700A008260BB015D00DAEBB
:100BD400000C001E002A081E082A000C04AE09D0CE
:100BE40000BE04D00050086E006AF1D7006A002AE3
:100BF400000C001E0B2AD3D7082A0450085CD8A482
:0E0C0400E6D7086A002A00AEE2D7FF0C120005
:100C12000050086E0150006E0250016E0350026EC9
:100C2200036A0B6A0C6A9E0E036E0A6A020E0C6E4F
:060C3200DCEC01F01200F1
:100C38000B6A0A6A096A086A0E6A0334083604509D
:100C4800085E0550D8A0053C095E0650D8A0063CB1
:100C58000A5E0750D8A0073C0B5EE86AD8A0010ED0
:100C68000E5E0336070E0C6E0334083609360A3654
:100C78000B360E36045003A012D0085E0550D8A0DB
:100C8800053C095E0650D8A0063C0A5E0750D8A06D
:100C9800073C0B5EE86AD8A0010E0E5E11D008264C
:100CA8000550D8B0053C09260650D8B0063C0A269F
:100CB8000750D8B0073C0B26E86AD8B0010E0E26BC
:100CC80003360C2ED1D70234083609360A360B36CD
:100CD8000E36045003A012D0085E0550D8A0053C7B
:100CE800095E0650D8A0063C0A5E0750D8A0073C0B
:100CF8000B5EE86AD8A0010E0E5E11D008260550DA
:100D0800D8B0053C09260650D8B0063C0A2607503C
:100D1800D8B0073C0B26E86AD8B0010E0E2602367A
:100D2800070E0C6E0234083609360A360B360E36B4
:100D3800045002A012D0085E0550D8A0053C095EF8
:100D48000650D8A0063C0A5E0750D8A0073C0B5EA8
:100D5800E86AD8A0010E0E5E11D008260550D8B05A
:100D6800053C09260650D8B0063C0A260750D8B0DC
:100D7800073C0B26E86AD8B0010E0E2602360C2E68
:100D8800D1D70134083609360A360B360E360450E8
:100D980002A012D0085E0550D8A0053C095E065096
:100DA800D8A0063C0A5E0750D8A0073C0B5EE86A4C
:100DB800D8A0010E0E5E11D008260550D8B0053C0B
:100DC80009260650D8B0063C0A260750D8B0073C7A
:100DD8000B26E86AD8B0010E0E260136070E0C6EF7
:100DE8000134083609360A360B360E36045001A08F
:100DF80012D0085E0550D8A0053C095E0650D8A060
:100E0800063C0A5E0750D8A0073C0B5EE86AD8A0EB
:100E1800010E0E5E11D008260550D8B0053C0926F3
:100E28000650D8B0063C0A260750D8B0073C0B2617
:100E3800E86AD8B0010E0E2601360C2ED1D7003440
:100E4800083609360A360B360E36045001A012D081
:100E5800085E0550D8A0053C095E0650D8A0063C9F
:100E68000A5E0750D8A0073C0B5EE86AD8A0010EBE
:100E78000E5E11D008260550D8B0053C092606504C
:100E8800D8B0063C0A260750D8B0073C0B26E86ABB
:100E9800D8B0010E0E260036070E0C6E0034083648
:100EA80009360A360B360E36045000A012D0085EFA
:100EB8000550D8A0053C095E0650D8A0063C0A5E3D
:100EC8000750D8A0073C0B5EE86AD8A0010E0E5E5A
:100ED80011D008260550D8B0053C09260650D8B0D0
:100EE800063C0A260750D8B0073C0B26E86AD8B05B
:100EF800010E0E2600360C2ED1D700B00ED00450AD
:100F080008260550D8B0053C09260650D8B0063C3E
:0C0F18000A260750D8B0073C0B26120038
:100F2400800E01013519006E800E000A005CD8B0F5
:100F340067D135510008016E01C035F1800E0118EA
:100F4400006E800E6E0A005CD8A0BCD0640E046EE5
:100F540035C100F00DDE120E0024056E000E00BE39
:100F6400FF0E066E000E062205C000F006C001F05A
:100F7400000E06BEFF0E026E036E003600900136B0
:100F84000236033600360090013602360336DA0E96
:100F94000024F66E410E0120F76E000E0220F86E5A
:100FA4000900F5CF36F10900F5CF37F10900F5CF87
:100FB40038F10900F5CF39F1640E046E35C100F043
:100FC400D7DD08C000F00A0E046ED2DD090E00243D
:100FD400056E000E00BEFF0E066E000E062205C052
:100FE40000F006C001F0000E06BEFF0E026E036E96
:100FF4000036009001360236033600360090013682
:1010040002360336DA0E0024F66E410E0120F76E26
:10101400000E0220F86E0900F5CF00F00900F5CFAC
:1010240001F00900F5CF02F00900F5CF03F036C155
:1010340004F037C105F038C106F039C107F0EEEC11
:1010440002F000C036F101C037F102C038F103C02C
:1010540039F10A0E046E35C100F08ADD08C000F0D3
:1010640000C001F0000E00BEFF0E026E036E046E9F
:1010740001360190023603360436013601900236F9
:1010840003360436DA0E0124F66E410E0220F76EA2
:10109400000E0320F86E0900F5CF00F00900F5CF2B
:1010A40001F00900F5CF02F00900F5CF03F036C1D5
:1010B40004F037C105F038C106F039C107F0EEEC91
:1010C40002F001D2800E0A0A006E800E3519005C0F
:1010D4006FE20A0E046E35C100F04ADD090E0024E9
:1010E400056E000E00BEFF0E066E000E062205C041
:1010F40000F006C001F0000E06BEFF0E026E036E85
:101104000036009001360236033600360090013670
:1011140002360336DA0E0024F66E410E0120F76E15
:10112400000E0220F86E0900F5CF36F10900F5CF64
:1011340037F10900F5CF38F10900F5CF39F10A0E7E
:10114400046E35C100F014DD08C000F000C001F0E9
:10115400000E00BEFF0E026E036E046E0136019097
:10116400023603360436013601900236033604365D
:10117400DA0E0124F66E410E0220F76E000E0320F3
:10118400F86E0900F5CF00F00900F5CF01F0090071
:10119400F5CF02F00900F5CF03F036C104F037C1F2
:1011A40005F038C106F039C107F0EEEC02F08BD13E
:1011B40035C100F0000E35BFFF0E016E026E036EE6
:1011C40000360090013602360336003600900136B0
:1011D40002360336DA0E0024F66E410E0120F76E55
:1011E400000E0220F86E0900F5CF00F00900F5CFDB
:1011F40001F00900F5CF02F00900F5CF03F063D147
:10120400800E3519006E800E6E0A005CD8A0BCD02A
:10121400640E046E35C100F0ABDC120E0024056EC2
:10122400000E00BEFF0E066E000E062205C000F082
:1012340006C001F0000E06BEFF0E026E036E0036FD
:10124400009001360236033600360090013602362D
:101254000336A60E0024F66E410E0120F76E000E32
:101264000220F86E0900F5CF36F10900F5CF37F109
:101274000900F5CF38F10900F5CF39F1640E046E99
:1012840035C100F075DC08C000F00A0E046E70DC95
:10129400090E0024056E000E00BEFF0E066E000E41
:1012A400062205C000F006C001F0000E06BEFF0EC7
:1012B400026E036E003600900136023603360036A5
:1012C4000090013602360336A60E0024F66E410E57
:1012D4000120F76E000E0220F86E0900F5CF00F031
:1012E4000900F5CF01F00900F5CF02F00900F5CFB0
:1012F40003F036C104F037C105F038C106F039C136
:1013040007F0EEEC02F000C036F101C037F102C084
:1013140038F103C039F10A0E046E35C100F028DC3F
:1013240008C000F000C001F0000E00BEFF0E026E07
:10133400036E046E0136019002360336043601361C
:101344000190023603360436A60E0124F66E410ED1
:101354000220F76E000E0320F86E0900F5CF00F0AE
:101364000900F5CF01F00900F5CF02F00900F5CF2F
:1013740003F036C104F037C105F038C106F039C1B5
:1013840007F0EEEC02F09FD0800E0A0A006E800E89
:101394003519005C71E20A0E046E35C100F0BAEC36
:1013A40005F0090E0024056E000E00BEFF0E066E49
:1013B400000E062205C000F006C001F0000E06BEB5
:1013C400FF0E026E036E00360090013602360336BD
:1013D40000360090013602360336A60E0024F66E5F
:1013E400410E0120F76E000E0220F86E0900F5CFC1
:1013F40036F10900F5CF37F10900F5CF38F10900CE
:10140400F5CF39F10A0E046E35C100F0BAEC05F0DF
:1014140008C000F000C001F0000E00BEFF0E026E16
:10142400036E046E0136019002360336043601362B
:101434000190023603360436A60E0124F66E410EE0
:101444000220F76E000E0320F86E0900F5CF00F0BD
:101454000900F5CF01F00900F5CF02F00900F5CF3E
:1014640003F036C104F037C105F038C106F039C1C4
:1014740007F0EEEC02F027D035C100F0000E35BFC6
:10148400FF0E016E026E036E0036009001360236C6
:10149400033600360090013602360336A60E0024C9
:1014A400F66E410E0120F76E000E0220F86E090060
:1014B400F5CF00F00900F5CF01F00900F5CF02F0F7
:0814C4000900F5CF03F012004E
:0814CC00067E7EEC03F0120025
:1014D4000B6A0C6A086A0350D8B4EEEF0AF002C033
:1014E4000AF0028E9E0E035E03AEDEEF0AF0036C7A
:1014F400080E035CD8A0ABEF0AF0036E083600C0F8
:1015040008F001C000F002C001F0026A080E035C9A
:10151400D8A0ABEF0AF0036E083600C008F001C093
:1015240000F0016A080E035CD8A0ABEF0AF0036E6A
:10153400083600C008F0006A080E035CD8A0ABEFC0
:101544000AF0036E0836086A0350D8A4D890B7EF9F
:101554000AF00350D8B4B7EF0AF0D890023201323F
:1015640000320832032EAFEF0AF00BBC08A0C8EF1C
:101574000AF0D8A0C8EF0AF0082AD8B4002AD8B4D0
:10158400012AD8B4022A02BEF2EF0AF00AAEEEEF44
:101594000AF0021E011E001E081E082AD8B4002AE2
:1015A400D8B4012AD8B4022AEEEF0AF0026A016A1A
:1015B400006A086AEEEF0AF00B800BAEF9EF0AF04E
:1015C400026A0AAEF9EF0AF0026E016E006E086E4E
:1015D4000A360232F9EF0AF00C6A000EFAEF0AF04A
:1015E400010E0C6E000EE0EC02F0FAEF0AF0FF0EB2
:1015F4000250036E0150026E0050016E0850006EDE
:021604001200D2
:101606006E0E0101355DD8A0CAD0640E046E35C1D8
:1016160000F0CDEC02F0120E0024056E066A000EF4
:10162600062205C000F006C001F0000E06BEFF0E41
:10163600026E036E0036009001360236033600361F
:101646000090013602360336DA0E0024F66E410E9D
:101656000120F76E000E0220F86E0900F5CF00F0AB
:101666000900F5CF01F00900F5CF02F00900F5CF2A
:1016760003F0000E046E000E056E000E066E7E0E62
:10168600076EEEEC02F000C036F101C037F102C081
:1016960038F103C039F1640E046E35C100F0CDECAB
:1016A60002F008C000F00A0E046ECDEC02F0090E3E
:1016B6000024056E066A000E062205C000F006C06C
:1016C60001F0000E06BEFF0E026E036E003600909D
:1016D60001360236033600360090013602360336EE
:1016E600DA0E0024F66E410E0120F76E000E02207F
:1016F600F86E0900F5CF00F00900F5CF01F00900FA
:10170600F5CF02F00900F5CF03F036C104F037C17A
:1017160005F038C106F039C107F0EEEC02F000C062
:1017260036F101C037F102C038F103C039F10A0EB3
:10173600046E35C100F0CDEC02F008C000F000C028
:1017460001F0000E026E036E046E01360190023641
:101756000336043601360190023603360436DA0EB5
:101766000124F66E410E0220F76E000E0320F86E7D
:101776000900F5CF00F00900F5CF01F00900F5CF1B
:1017860002F00900F5CF03F036C104F037C105F0C9
:1017960038C106F039C107F0EEEC02F0B1D0355190
:1017A6000A08D8B07ED00A0E046E35C100F0CDEC22
:1017B60002F0090E0024056E066A000E062205C018
:1017C60000F006C001F0000E06BEFF0E026E036EAC
:1017D6000036009001360236033600360090013698
:1017E60002360336DA0E0024F66E410E0120F76E3D
:1017F600000E0220F86E0900F5CF00F00900F5CFC3
:1018060001F00900F5CF02F00900F5CF03F0000E54
:10181600046E000E056E000E066E7E0E076EEEEC72
:1018260002F000C036F101C037F102C038F103C042
:1018360039F10A0E046E35C100F0CDEC02F008C095
:1018460000F000C001F0000E026E036E046E013659
:10185600019002360336043601360190023603360D
:101866000436DA0E0124F66E410E0220F76E000EE3
:101876000320F86E0900F5CF00F00900F5CF01F05E
:101886000900F5CF02F00900F5CF03F036C104F0E8
:1018960037C105F038C106F039C107F0EEEC02F0A9
:1018A6002FD035C100F0000E016E026E036E0036B9
:1018B60000900136023603360036009001360236B5
:1018C6000336DA0E0024F66E410E0120F76E000E86
:1018D6000220F86E0900F5CF00F00900F5CF01F0FF
:1018E6000900F5CF02F00900F5CF03F0000E046EF3
:1018F600000E056E000E066E7E0E076EEEEC02F012
:021906001200CD
:101908000450000A08E10550000A05E1FF0E006EC8
:101918007F0E016E58D00D6A096A086A01500010DE
:10192800D8B4000C015005180A6E0ABE0D1E0B6AC9
:1019380005AE05D0041E051E042AD8B4052A01AE3A
:1019480005D0001E011E002AD8B4012A0150051036
:101958000A6E0ABE10D08EEC05F00BB020D00DAE8A
:10196800000C001E011E002AD8B4012A081E091EF8
:10197800082AD8B4092A000C05AE0DD001BE07D03C
:101988000150096E0050086E016A006AE8D7016AC2
:10199800006A002A000C011E001E0B2ADDD7082A47
:1019A800D8B4092A0450085CD8A4D9D70550095CD2
:1019B800D8A4D5D7096A086A002AD8B4012A01AE82
:0819C800CED70000FF0C120055
:1019D0000450000A12E10550000A0FE10650000A07
:1019E0000CE10750000A09E1FF0E006EFF0E016EC8
:1019F0007F0E026EFF0E036EA8D0086A096A0750B8
:101A0000D8B493EF0DF00350D8B498EF0DF0025016
:101A100006180A6E028E068E0E6A02C008F001C019
:101A20000CF000C00DF004500D5E0550D8A0053C30
:101A30000C5E0650D8A0063C085E086A0C6A0D6A67
:101A4000D8A02AEF0DF0D8900232013200320832CD
:101A5000010E0E6E0750035ED8A037EF0DF07E0E1C
:101A60000E240326D8B09DEF0DF03DEF0DF07E0E55
:101A70000E240326D8A0A2EF0DF0180E0B6E0D3623
:101A80000C3608360036013602360E360450005E3B
:101A90000550D8A0053C015E0650D8A0063C025E69
:101AA00006340E120EA058EF0DF00D8063EF0DF00E
:101AB000045000260550D8B0053C01260650D8B089
:101AC000062802260D900B2E3FEF0DF089EF0DF04A
:101AD000D8900036013602360E360450005E0550AE
:101AE000D8A0053C015E0650D8A0063C025E063434
:101AF0000E10010B0D26D8B00C2AD8B4082AD8A491
:101B000089EF0DF008320C320D32032AD8B49DEF64
:101B10000DF00AAE089E0850026E0C50016E0D507A
:101B2000006EA5EF0DF0010EDCEC02F0A5EF0DF05C
:101B3000020EC9EC01F0A5EF0DF0040ED0EC01F09F
:0C1B4000A5EF0DF0080EBCEC01F0120047
:101B4C0003500718D8A4BAEF0DF002500618D8A409
:101B5C00BAEF0DF001500518D8A4BAEF0DF00050F3
:0E1B6C000418D8B4D8841200D89412001200C5
:101B7A0001013551390806E3300E355D03E3010EE4
:081B8A00006E01D0006A120098
:101B92000B6A0A6A096A00500402F4CF09F0F3CF13
:101BA20008F001500502F4CF0BF0F3CF0AF0005019
:101BB2000502F3500926F4500A22E86A0B2201506A
:101BC2000402F3500926F4500A22E86A0B2208C0E4
:101BD20000F009C001F00AC002F00BC003F01200CD
:101BE2000A6A0350D8A40A800750D8A40A820A506D
:101BF200D8B454EF0EF0030AD8B40DEF0EF00AB0C9
:101C020008EF0EF006AE52EF0EF050EF0EF002AEFD
:101C120050EF0EF052EF0EF00250800B0A6E029E51
:101C22000650800B069E0A18D8B41EEF0EF00A501A
:101C3200D8B450EF0EF052EF0EF00750035CD8B458
:101C420028EF0EF0D8A044EF0EF04AEF0EF0065047
:101C5200025CD8B432EF0EF0D8A044EF0EF04AEF97
:101C62000EF00550015CD8B43CEF0EF0D8A044EF62
:101C72000EF04AEF0EF00450005CD8B454EF0EF0B0
:101C8200D8B04AEF0EF00A52D8B452EF0EF050EF2D
:101C92000EF00A52D8B450EF0EF052EF0EF0D88088
:0E1CA2001200D8901200D880D88412001200D0
:101CB0000B6A0C6A0A6A086A0350D8B4E0EF0EF0A7
:101CC000028E9E0E035E03BE6BEF0EF0D8B46BEF78
:101CD0000EF0D0EF0EF0036C080E035CD8A09DEF61
:101CE0000EF0036E083600C008F001C000F002C01C
:101CF00001F0026A080E035CD8A09DEF0EF0036E9F
:101D0000083600C008F001C000F0016A080E035C4C
:101D1000D8A09DEF0EF0036E083600C008F0006AF0
:101D2000080E035CD8A09DEF0EF0036E0836086A1B
:101D30000350D8A4D890A9EF0EF00350D8B4A9EF5F
:101D40000EF0D8900232013200320832032EA1EF99
:101D50000EF00BBC08A0BAEF0EF0D8A0BAEF0EF050
:101D6000082AD8B4002AD8B4012AD8B4022A02BE5C
:101D7000E4EF0EF00AAEE0EF0EF0021E011E001EB0
:101D8000081E082AD8B4002AD8B4012AD8B4022AD6
:101D9000E0EF0EF0026A016A006A086AE0EF0EF0F6
:101DA0000B800BAEEAEF0EF0026A0AAEEAEF0EF01D
:101DB000026E016E006E086E0A360232EAEF0EF015
:101DC000000E0C6AEBEF0EF0010E0C6EE0EC02F070
:101DD000EBEF0EF0FF0E0250036E0150026E00504A
:081DE000016E0850006E1200B4
:101DE8000DC102F00EC103F002C000F003C001F003
:101DF800024A032A00C0E9FF01C0EAFFEE5201E0EF
:101E0800F3D701010D51025C006E0E510358016EAB
:0A1E1800010E005E000E015A1200D8
:101E220011C100F001011107005228E00DC1E9FFC4
:101E32000EC1EAFFEE50000A0CE00DC1E9FF0EC12F
:101E4200EAFF0FC1D9FF10C1DAFFEE50DE1801E13F
:101E52000FD00DC1E9FF0EC1EAFF0FC1D9FF10C1BA
:101E6200DAFFDE50EE5C006E016A000E015A08D005
:101E720001010D4B0E2B0F4B102BD2D7006A016ABA
:021E820012004C
:101E84000DC1E9FF0EC1EAFFEE5001010F1905E192
:101E94000DC100F00EC101F010D00DC100F00EC153
:101EA40001F00D4B0E2B00C0E9FF01C0EAFFEECF9D
:0C1EB40000F00052E5E1006A016A120033
:0E1EC000ACB202D00000FCD70DC1ADFF120085
:101ECE0001012D6B2E6B216B226B0FC100F010C127
:101EDE0001F011C102F0010E0F27000E1023112385
:101EEE0000C0F6FF01C0F7FF02C0F8FF0900F5CFF2
:101EFE0000F000C01EF10052D8B470EF1FF01E515A
:101F0E00250A0BE00DC1E1FF0EC1E2FF1EC1E6FF87
:101F1E000D4B0E2B2D4B2E2BD8D71F6B206B216B01
:101F2E00226B23D02187010E0F27000E10231123C1
:101F3E0059D02181010E0F27000E1023112352D0EC
:101F4E002183010E0F27000E102311234BD0228761
:101F5E00010E0F27000E1023112344D02185010EF0
:101F6E000F27000E102311233DD00FC1F6FF10C115
:101F7E00F7FF11C1F8FF0900F5CF01F001502D0A4E
:101F8E00D1E00FC1F6FF10C1F7FF11C1F8FF090034
:101F9E00F5CF01F00150200ACCE00FC1F6FF10C1C1
:101FAE00F7FF11C1F8FF0900F5CF01F001502B0A20
:101FBE00C7E00FC1F6FF10C1F7FF11C1F8FF09000E
:101FCE00F5CF01F00150230AC2E00FC1F6FF10C198
:101FDE00F7FF11C1F8FF0900F5CF01F00150300AEB
:101FEE00BDE001D09ED721A301D0219121A701D020
:101FFE0021950FC1F6FF10C1F7FF11C1F8FF0900BF
:10200E00F5CF00F0000E016E00C035F1AFDD0052CD
:10201E0034E01F6B206B1FC100F020C101F00A0ECF
:10202E00046E000E056EAEDD0FC1F6FF10C1F7FF98
:10203E0011C1F8FF0900F5CF02F0025000241F6F06
:10204E00000E0120206F300E1F5F000E205B010E70
:10205E000F27000E102311230FC1F6FF10C1F7FF3B
:10206E0011C1F8FF0900F5CF00F0000E016E00C09F
:10207E0035F17CDD0052CFE133D00FC1F6FF10C138
:10208E00F7FF11C1F8FF0900F5CF01F001502A0A40
:10209E0027E112C1E9FF13C1EAFFEECF00F0EECF48
:1020AE0001F000C0E9FF01C0EAFFEECF1FF1EECF55
:1020BE0020F112C1E9FF13C1EAFF020EEE24006EF9
:1020CE00000EEE20016E12C1E1FF13C1E2FF00C04F
:1020DE00E6FF01C0E6FF010E0F27000E10231123AD
:1020EE000FC1F6FF10C1F7FF11C1F8FF0900F5CFC0
:1020FE0001F001502E0A6EE1010E0F27000E102383
:10210E0011230FC1F6FF10C1F7FF11C1F8FF09002F
:10211E00F5CF01F001502A0A28E112C1E9FF13C1DF
:10212E00EAFFEECF00F0EECF01F000C0E9FF01C0F4
:10213E00EAFFEECF1CF1EECF1DF112C1E9FF13C184
:10214E00EAFF020EEE24006E000EEE20016E12C1AA
:10215E00E1FF13C1E2FF00C0E6FF01C0E6FF010E82
:10216E000F27000E1023112334D01C6B1D6B0FC1D3
:10217E00F6FF10C1F7FF11C1F8FF0900F5CF00F00F
:10218E00000E016E00C035F1F1DC005222E01CC1E0
:10219E0000F01DC101F00A0E046E000E056EF2DC99
:1021AE000FC1F6FF10C1F7FF11C1F8FF0900F5CFFF
:1021BE0002F0025000241C6F000E01201D6F300E25
:1021CE001C5F000E1D5B010E0F27000E1023112346
:1021DE00CED703D01C6B1D6B22890FC100F010C12E
:1021EE0001F011C102F0010E0F27000E1023112372
:1021FE0000C0F6FF01C0F7FF02C0F8FF0900F5CFDF
:10220E001EF1F9D02DC100F02EC101F074EF1FF0B8
:10221E002189E3D722852ED1218B22812BD12283B6
:10222E0029D1218D27D126D1218B218F23D112C1E6
:10223E00E9FF13C1EAFFEECF00F0EECF01F000C0D0
:10224E00E9FF01C0EAFFEECF29F1EECF2AF112C16C
:10225E00E9FF13C1EAFF020EEE24006E000EEE201F
:10226E00016E12C1E1FF13C1E2FF00C0E6FF01C023
:10227E00E6FF000E2A1902E1000E291904E16D0E87
:10228E00296F000E2A6F2B6B2C6B2B512925E96EB3
:10229E002C512A21EA6EEE520BE0010E2B25006E18
:1022AE00000E2C21016E00C02BF101C02CF1EDD7D8
:1022BE001C511D110AE02C511D5D02E12B511C5DBC
:1022CE0004E21CC12BF11DC12CF120512C5D02E149
:1022DE001F512B5D05E22B511F5F2C51205B02D04D
:1022EE001F6B206B21B716D01FC100F020C101F06B
:1022FE00010E1F5F000E205B005001100BE00DC1A0
:10230E00E1FF0EC1E2FF200EE66E0D4B0E2B2D4BA4
:10231E002E2BEAD72BC102F02CC103F0010E2B5D40
:10232E00006E000E2C59016E00C02BF101C02CF175
:10233E000250031019E029C1E9FF2AC1EAFF0DC1BD
:10234E00E1FF0EC1E2FFEECFE6FF0D4B0E2B010EAD
:10235E002925006E000E2A21016E00C029F101C050
:10236E002AF12D4B2E2BD6D721A716D01FC100F048
:10237E0020C101F0010E1F5F000E205B0050011006
:10238E000BE00DC1E1FF0EC1E2FF200EE66E0D4B1C
:10239E000E2B2D4B2E2BEAD798D512C1E9FF13C168
:1023AE00EAFFEECF00F0EECF01F000C0E9FF01C072
:1023BE00EAFFEECF1EF112C1E9FF13C1EAFF020ED2
:1023CE00EE24006E000EEE20016E12C1E1FF13C16D
:1023DE00E2FF00C0E6FF01C0E6FF1E0E296F010EF0
:1023EE002A6F010E2B6F000E2C6F62D7C00E2113B9
:1023FE00000E22133FD01E51000AD8B403D71E512F
:10240E006C0AD8B405D71E514C0AD8B401D71E5148
:10241E00660AD8B4FFD61E51450AD8B4FDD61E5151
:10242E00650AD8B4FAD61E51670AD8B4F8D61E512A
:10243E006F0AD8B4F6D61E51640AD8B4F4D61E511B
:10244E00690AD8B4F0D61E51700AD8B4EDD61E5112
:10245E00580AD8B4E9D61E51780AD8B4E6D61E5119
:10246E00730AD8B4E4D61E51630A97E01E51750A5A
:10247E00BDE0B3D7000E2115006E2251070B016E81
:10248E0000500110D8B417EF1BF022A904D0060E8D
:10249E001C6F000E1D6F12C1E9FF13C1EAFFEECFD4
:1024AE0000F0EECF01F000C0E9FF01C0EAFFEECF71
:1024BE0023F1EECF24F1EECF25F1EECF26F112C1AE
:1024CE00E9FF13C1EAFF040EEE24006E000EEE20AB
:1024DE00016E12C1E1FF13C1E2FF00C0E6FF01C0B1
:1024EE00E6FF046A056A066A076A23C100F024C182
:1024FE0001F025C102F026C103F0F1EC0DF0010E42
:10250E00D8B0000E006E005205E0257F030E211399
:10251E00000E2213276B286B23C100F024C101F09B
:10252E0025C102F026C103F0046A056A066A076A2D
:10253E00A6EC0DF0000ED8A4010E006E0052D8B419
:10254E008AD026C100F0016A026A036AFF0E0016E5
:10255E00000E01167E0E005E000E015A00C027F11D
:10256E0001C028F1010E005E000E015A00C027F1D5
:10257E0001C028F1030E046E000E056EC9EC0DF0BD
:10258E0000C027F101C028F10A0E046E000E056E80
:10259E0084EC0CF000C027F101C028F1800E011868
:1025AE00026E800E025C02E1000E005C05E2010E7E
:1025BE000101275F000E285B010127510008356FCE
:1025CE0092EC07F023C104F024C105F025C106F0FA
:1025DE0026C107F0EEEC02F000C029F101C02AF18D
:1025EE0002C02BF103C02CF1000E046E000E056E1E
:1025FE00000E066E7F0E076E29C100F02AC101F093
:10260E002BC102F02CC103F0F1EC0DF0010ED8B08D
:10261E00000E006E005205E0010E275F000E285BD3
:10262E001AD0000E046E000E056E200E066E820E7F
:10263E00076E29C100F02AC101F02BC102F02CC196
:10264E0003F0F1EC0DF0000ED8B0010E006E00524A
:10265E0002E0274B282B800E006E800E2819005C9E
:10266E0002E12751000803E3010E1E6F02D027C1BD
:10267E001EF122B118D022A315D0800E2819006E9B
:10268E007F0E005C02E1FC0E275D0BE3800E281925
:10269E00006E800E1D19005C02E11C51275D01E2E7
:1026AE0001D001D0EFD31C511D1106E022A304D09E
:1026BE00010E1C5F000E1D5B1D51000802E11C5136
:1026CE00080803E2080E1E6F02D01CC11EF123C1C2
:1026DE0000F024C101F025C102F026C103F0046A06
:1026EE00056A066A076AA6EC0DF0000ED8A4010E64
:1026FE00006E0052D8B44BD127C135F192EC07F0E1
:10270E0000C004F001C005F002C006F003C007F0DF
:10271E0023C100F024C101F025C102F026C103F04F
:10272E00E8EC0CF000C023F101C024F102C025F149
:10273E0003C026F101011E510008356F92EC07F01F
:10274E0000C004F001C005F002C006F003C007F09F
:10275E0023C100F024C101F025C102F026C103F00F
:10276E00E8EC0CF000C02FF101C030F102C031F1E5
:10277E0003C032F12FC123F130C124F131C125F153
:10278E0032C126F12FC100F030C101F031C102F08B
:10279E0032C103F058EC0EF009EC06F000C004F064
:1027AE0001C005F002C006F003C007F02FC100F013
:1027BE0030C101F031C102F032C103F066EC0AF013
:1027CE00000E046E000E056E000E066E7E0E076E77
:1027DE00F1EC0DF0000ED8B0010E006E00521AE0B2
:1027EE0023C100F024C101F025C102F026C103F07F
:1027FE00000E046E000E056E000E066E7E0E076E47
:10280E007EEC03F000C023F101C024F102C025F1DB
:10281E0003C026F123C100F024C101F025C102F04E
:10282E0026C103F058EC0EF001011E51010F096E86
:10283E000A6A000E0A2209C004F00AC005F0000E52
:10284E000ABEFF0E066E076E043604900536063677
:10285E000736043604900536063607363E0E042437
:10286E00F66E420E0520F76E000E0620F86E090079
:10287E00F5CF05F00900F5CF06F00900F5CF07F00A
:10288E000900F5CF08F00850035C08E10750025C20
:10289E0005E10650015C02E10550005C1EE30101FA
:1028AE0023C100F024C101F025C102F026C103F0BE
:1028BE00CD0E046ECC0E056E4C0E066E7B0E076EA4
:1028CE00EEEC02F000C023F101C024F102C025F1AC
:1028DE0003C026F1274B282B5AD023C100F024C168
:1028EE0001F025C102F026C103F058EC0EF01EC116
:1028FE0004F0000E056E066E076E04360490053663
:10290E0006360736043604900536063607363E0E72
:10291E000424F66E420E0520F76E000E0620F86EA9
:10292E000900F5CF05F00900F5CF06F00900F5CF47
:10293E0007F00900F5CF08F00850035C08E10750D6
:10294E00025C05E10650015C02E10550005C1FE2ED
:10295E00010123C100F024C101F025C102F026C1FE
:10296E0003F0000E046E000E056E200E066E820E33
:10297E00076EEEEC02F000C023F101C024F102C09C
:10298E0025F103C026F1010E275F000E285B010121
:10299E0022A393D022B791D0800E000A006E800E33
:1029AE001D19005C02E11C510A0804E20A0E1C6F9C
:1029BE00000E1D6F23C100F024C101F025C102F0ED
:1029CE0026C103F058EC0EF000C029F101C02AF127
:1029DE0002C02BF103C02CF129512A112B112C11FD
:1029EE0042E00A0E046E000E056E066E076E29C1D9
:1029FE0000F02AC101F02BC102F02CC103F01CEC37
:102A0E0006F008C000F009C001F00AC002F00BC0C9
:102A1E0003F0000E046E031808E10450021805E1DD
:102A2E000450011802E10050000A1DE1010E1C5F66
:102A3E00000E1D5B0A0E046E000E056E066E076E0E
:102A4E0029C100F02AC101F02BC102F02CC103F004
:102A5E001CEC06F000C029F101C02AF102C02BF1D6
:102A6E0003C02CF1B9D7800E1D19006E800E005CCC
:102A7E0002E11E511C5D21E21C511E5D356F92EC70
:102A8E0007F000C004F001C005F002C006F003C05C
:102A9E0007F023C100F024C101F025C102F026C1C8
:102AAE0003F0E8EC0CF000C023F101C024F102C0E9
:102ABE0025F103C026F11CC11EF1050E01011C25D6
:102ACE00006E000E1D21016E00501F5F0150205B35
:102ADE001C511D1103E122B701D004D0010E1F5F5E
:102AEE00000E205B030E2115006E22C101F0000EB8
:102AFE0001160050011004E0010E1F5F000E205B56
:102B0E0021A539D021A312D021A103D02D0E146FEF
:102B1E0002D02B0E146F0DC1E1FF0EC1E2FF14C1E6
:102B2E00E6FF0D4B0E2B2D4B2E2B0CD021A10AD0D8
:102B3E000DC1E1FF0EC1E2FF200EE66E0D4B0E2B16
:102B4E002D4B2E2B800E006E800E2019005C02E1A4
:102B5E001F5100080FE20DC1E1FF0EC1E2FF300E62
:102B6E00E66E0D4B0E2B2D4B2E2B010E1F5F000E06
:102B7E00205BE8D73AD021B718D0800E006E800EB9
:102B8E002019005C02E11F5100080FE20DC1E1FFA8
:102B9E000EC1E2FF200EE66E0D4B0E2B2D4B2E2B93
:102BAE00010E1F5F000E205BE8D721A312D021A1DA
:102BBE0003D02D0E156F02D02B0E156F0DC1E1FF38
:102BCE000EC1E2FF15C1E6FF0D4B0E2B2D4B2E2B2A
:102BDE000CD021A10AD00DC1E1FF0EC1E2FF200EE3
:102BEE00E66E0D4B0E2B2D4B2E2B23C100F024C168
:102BFE0001F025C102F026C103F058EC0EF000C022
:102C0E0029F101C02AF102C02BF103C02CF11EC123
:102C1E0000F0000E016E026E036E0036009001365B
:102C2E0002360336003600900136023603363E0E6B
:102C3E000024F66E420E0120F76E000E0220F86E92
:102C4E000900F5CF04F00900F5CF05F00900F5CF26
:102C5E0006F00900F5CF07F029C100F02AC101F0F6
:102C6E002BC102F02CC103F01CEC06F0300E002636
:102C7E000DC1E1FF0EC1E2FF00C0E6FF0D4B0E2BB2
:102C8E002D4B2E2B1C511D1103E122B701D06FD0FD
:102C9E000DC1E1FF0EC1E2FF2E0EE66E0D4B0E2BA7
:102CAE002D4B2E2B1E511C5F000E1D5B1E534DE037
:102CBE001E071EC100F0000E016E026E036E00367E
:102CCE000090013602360336003600900136023689
:102CDE0003363E0E0024F66E420E0120F76E000EF5
:102CEE000220F86E0900F5CF04F00900F5CF05F0CB
:102CFE000900F5CF06F00900F5CF07F029C100F065
:102D0E002AC101F02BC102F02CC103F01CEC06F01D
:102D1E000A0E046E000E056E066E076E1CEC06F0B3
:102D2E0008C000F009C001F00AC002F00BC003F0A9
:102D3E00300E00260DC1E1FF0EC1E2FF00C0E6FF1E
:102D4E000D4B0E2B2D4B2E2BB1D71C511D110FE001
:102D5E000DC1E1FF0EC1E2FF300EE66E0D4B0E2BE4
:102D6E002D4B2E2B010E1C5F000E1D5BEED721ABE3
:102D7E000BD00DC1E1FF0EC1E2FF450EE66E0D4B0D
:102D8E000E2B2D4B2E2B0AD00DC1E1FF0EC1E2FFF3
:102D9E00650EE66E0D4B0E2B2D4B2E2B800E28192D
:102DAE00006E800E005C02E1000E275D11E22751DD
:102DBE000008276F2851000E28570DC1E1FF0EC1E4
:102DCE00E2FF2D0EE66E0D4B0E2B2D4B2E2B0AD049
:102DDE000DC1E1FF0EC1E2FF2B0EE66E0D4B0E2B69
:102DEE002D4B2E2B0A0E046E000E056E27C100F021
:102DFE0028C101F084EC0CF0300E00260DC1E1FF6D
:102E0E000EC1E2FF00C0E6FF01010D4B0E2B2D4B54
:102E1E002E2B0A0E046E000E056E27C100F028C17F
:102E2E0001F084EC0CF008C000F009C001F0300E87
:102E3E0000260DC1E1FF0EC1E2FF00C0E6FF010159
:102E4E000D4B0E2B2D4B2E2B21A71AD0800E006E64
:102E5E00800E2019005C02E11F51000811E20DC125
:102E6E00E1FF0EC1E2FF200EE66E0D4B0E2B2D4B39
:102E7E002E2B010E1F5F000E205B1F512011EFE164
:102E8E006CEF0FF022A3F3D0800E2819006E800E87
:102E9E00005C02E1000E275D0AE2010E275D006E66
:102EAE00000E2859016E00501C5F01501D5B23C19E
:102EBE0000F024C101F025C102F026C103F058EC48
:102ECE000EF000C029F101C02AF102C02BF103C09F
:102EDE002CF1010E1E6F1E510A0A34E01EC100F0C5
:102EEE00000E016E026E036E003600900136023641
:102EFE000336003600900136023603363E0E0024AD
:102F0E00F66E420E0120F76E000E0220F86E0900DA
:102F1E00F5CF01F00900F5CF02F00900F5CF03F06F
:102F2E000900F5CF04F004502C5D08E103502B5D31
:102F3E0005E102502A5D02E10150295D01E202D055
:102F4E001E2BC9D71E511C5D336F000E1D59346FD9
:102F5E0033C11CF134C11DF129C100F02AC101F0A9
:102F6E002BC102F02CC103F009EC06F000C004F0F6
:102F7E0001C005F002C006F003C007F023C100F047
:102F8E0024C101F025C102F026C103F066EC0AF05F
:102F9E0000C02FF101C030F102C031F103C032F197
:102FAE0033C135F192EC07F02FC104F030C105F0BA
:102FBE0031C106F032C107F0EEEC02F0000E046EE5
:102FCE00000E056E000E066E7E0E076E7EEC03F092
:102FDE0058EC0EF000C029F101C02AF102C02BF10D
:102FEE0003C02CF11C511D1142E00A0E046E000E9E
:102FFE00056E066E076E29C100F02AC101F02BC1C5
:10300E0002F02CC103F01CEC06F008C000F009C061
:10301E0001F00AC002F00BC003F0000E046E03189C
:10302E0008E10450021805E10450011802E10050B5
:10303E00000A1DE10A0E046E000E056E066E076E86
:10304E0029C100F02AC101F02BC102F02CC103F0FE
:10305E001CEC06F000C029F101C02AF102C02BF1D0
:10306E0003C02CF1010E1C5F000E1D5BBBD7800E42
:10307E00006E800E1D19005C02E11C510C0816E357
:10308E001CC135F103EC0BF023C104F024C105F093
:10309E0025C106F026C107F07EEC03F000C023F137
:1030AE0001C024F102C025F103C026F123C100F0B6
:1030BE0024C101F025C102F026C103F0046A056A9D
:1030CE00066A076AA6EC0DF0000ED8A4010E006E7B
:1030DE000052D8B477D023C100F024C101F025C12D
:1030EE0002F026C103F058EC0EF0000E046E031829
:1030FE0008E10450021805E10450011802E10050E5
:10310E00000A60E1800E006E800E2819005C02E15C
:10311E002751010857E227C135F192EC07F000C0A4
:10312E0004F001C005F002C006F003C007F023C191
:10313E0000F024C101F025C102F026C103F0E8EC35
:10314E000CF05F0E046E700E056E090E066E810E8B
:10315E00076EF1EC0DF0010ED8B0000E006E0052AD
:10316E0006E0090E0101275F000E285B05D0010164
:10317E00080E275F000E285B27C135F192EC07F091
:10318E0000C004F001C005F002C006F003C007F055
:10319E0023C100F024C101F025C102F026C103F0C5
:1031AE00E8EC0CF058EC0EF000C029F101C02AF149
:1031BE0002C02BF103C02CF10101236B246B256B94
:1031CE00266B38D023C100F024C101F025C102F0D6
:1031DE0026C103F058EC0EF000C029F101C02AF10F
:1031EE0002C02BF103C02CF129C100F02AC101F05D
:1031FE002BC102F02CC103F009EC06F000C004F064
:10320E0001C005F002C006F003C007F023C100F0B4
:10321E0024C101F025C102F026C103F066EC0AF0CC
:10322E0000C023F101C024F102C025F103C026F134
:10323E00276B286B010E1E6F1E510A0A34E01EC149
:10324E0000F0000E016E026E036E00360090013625
:10325E0002360336003600900136023603363E0E35
:10326E000024F66E420E0120F76E000E0220F86E5C
:10327E000900F5CF01F00900F5CF02F00900F5CFF6
:10328E0003F00900F5CF04F004502C5D08E1035063
:10329E002B5D05E102502A5D02E10150295D01E23C
:1032AE0002D01E2BC9D71E511C25006E000E1D21EB
:1032BE00016E275100262851012200501F5F015038
:1032CE00205B22B704D01C511D1101E104D0010E68
:1032DE001F5F000E205B030E2115006E22C101F050
:1032EE00000E01160050011004E0010E1F5F000ECB
:1032FE00205B21A539D021A312D021A103D02D0E00
:10330E00166F02D02B0E166F0DC1E1FF0EC1E2FF3C
:10331E0016C1E6FF0D4B0E2B2D4B2E2B0CD021A1E3
:10332E000AD00DC1E1FF0EC1E2FF200EE66E0D4B7D
:10333E000E2B2D4B2E2B800E006E800E2019005C56
:10334E0002E11F5100080FE20DC1E1FF0EC1E2FFC5
:10335E00300EE66E0D4B0E2B2D4B2E2B010E1F5FDE
:10336E00000E205BE8D73AD021B718D0800E006E41
:10337E00800E2019005C02E11F5100080FE20DC102
:10338E00E1FF0EC1E2FF200EE66E0D4B0E2B2D4B14
:10339E002E2B010E1F5F000E205BE8D721A312D04B
:1033AE0021A103D02D0E176F02D02B0E176F0DC15A
:1033BE00E1FF0EC1E2FF17C1E6FF0D4B0E2B2D4BA9
:1033CE002E2B0CD021A10AD00DC1E1FF0EC1E2FFC0
:1033DE00200EE66E0D4B0E2B2D4B2E2B1EC100F02C
:1033EE001E0700524CE01EC100F0000E016E026E70
:1033FE00036E00360090013602360336003600901A
:10340E000136023603363E0E0024F66E420E0120C1
:10341E00F76E000E0220F86E0900F5CF04F00900D9
:10342E00F5CF05F00900F5CF06F00900F5CF07F04E
:10343E0029C100F02AC101F02BC102F02CC103F00A
:10344E001CEC06F00A0E046E000E056E066E076E7C
:10345E001CEC06F008C000F009C001F00AC002F032
:10346E000BC003F0300E00260DC1E1FF0EC1E2FFCE
:10347E0000C0E6FF0D4B0E2B2D4B2E2BAFD7800E23
:10348E00006E800E2819005C02E1275100080FE241
:10349E000DC1E1FF0EC1E2FF300EE66E0D4B0E2B9D
:1034AE002D4B2E2B010E275F000E285BE8D7800ECA
:1034BE00000A006E800E1D19005C02E11C51080806
:1034CE0003E2080E1E6F02D01CC11EF11E511C5FBE
:1034DE00000E1D5B1E5303E122B701D00AD00DC1B1
:1034EE00E1FF0EC1E2FF2E0EE66E0D4B0E2B2D4BA5
:1034FE002E2B1EC135F192EC07F023C104F024C12E
:10350E0005F025C106F026C107F0EEEC02F06AECDC
:10351E000AF000C029F101C02AF102C02BF103C04C
:10352E002CF11E534DE01E071EC100F0000E016E61
:10353E00026E036E003600900136023603360036F8
:10354E0000900136023603363E0E0024F66E420E11
:10355E000120F76E000E0220F86E0900F5CF04F080
:10356E000900F5CF05F00900F5CF06F00900F5CFFB
:10357E0007F029C100F02AC101F02BC102F02CC1C5
:10358E0003F01CEC06F00A0E046E000E056E066EBD
:10359E00076E1CEC06F008C000F009C001F00AC06E
:1035AE0002F00BC003F0300E00260DC1E1FF0EC17C
:1035BE00E2FF00C0E6FF0D4B0E2B2D4B2E2BB1D78D
:1035CE001C511D110FE00DC1E1FF0EC1E2FF300EC7
:1035DE00E66E0D4B0E2B2D4B2E2B010E1C5F000E8F
:1035EE001D5BEED721A71AD0800E006E800E20191B
:1035FE00005C02E11F51000811E20DC1E1FF0EC196
:10360E00E2FF200EE66E0D4B0E2B2D4B2E2B010ED8
:10361E001F5F000E205B1F512011EFE16CEF0FF0CA
:10362E00C00E2115016E22C102F0000E0216000E10
:10363E00021802E1000E0118D8A480D021A927D0CB
:10364E0012C1E9FF13C1EAFFEECF00F0EECF01F099
:10365E0000C0E9FF01C0EAFFEECF29F1EECF2AF15B
:10366E00EECF2BF1EECF2CF112C1E9FF13C1EAFF21
:10367E00040EEE24006E000EEE20016E12C1E1FF6C
:10368E0013C1E2FF00C0E6FF01C0E6FF2FD012C15A
:10369E00E9FF13C1EAFFEECF00F0EECF01F000C05C
:1036AE00E9FF01C0EAFFEECF00F0EECF01F0000E11
:1036BE0001BEFF0E026E036E00C029F101C02AF199
:1036CE0002C02BF103C02CF112C1E9FF13C1EAFFB6
:1036DE00020EEE24006E000EEE20016E12C1E1FF0E
:1036EE0013C1E2FF00C0E6FF01C0E6FF800E2C19F9
:1036FE00006E800E005C08E1000E2B5D05E1000EF1
:10370E002A5D02E1000E295D18E2030E2113000E60
:10371E002213006A016A026A036A2951005E2A5165
:10372E00015A2B51025A2C51035A00C029F101C0E3
:10373E002AF102C02BF103C02CF14ED021A927D0C3
:10374E0012C1E9FF13C1EAFFEECF00F0EECF01F098
:10375E0000C0E9FF01C0EAFFEECF29F1EECF2AF15A
:10376E00EECF2BF1EECF2CF112C1E9FF13C1EAFF20
:10377E00040EEE24006E000EEE20016E12C1E1FF6B
:10378E0013C1E2FF00C0E6FF01C0E6FF25D012C163
:10379E00E9FF13C1EAFFEECF00F0EECF01F000C05B
:1037AE00E9FF01C0EAFFEECF29F1EECF2AF1000EBC
:1037BE002B6F2C6F12C1E9FF13C1EAFF020EEE242C
:1037CE00006E000EEE20016E12C1E1FF13C1E2FF8A
:1037DE0000C0E6FF01C0E6FF000E1D1902E1000E5B
:1037EE001C190FE1000E006E2C1908E100502B1968
:1037FE0005E100502A1902E12951000A02E11C4B91
:10380E001D2BC00E2115006E00C005F0AED0010EAE
:10381E001E6F1E510A0A34E01EC100F0000E016E2A
:10382E00026E036E00360090013602360336003605
:10383E0000900136023603363E0E0024F66E420E1E
:10384E000120F76E000E0220F86E0900F5CF01F090
:10385E000900F5CF02F00900F5CF03F00900F5CF0E
:10386E0004F004502C5D08E103502B5D05E102507D
:10387E002A5D02E10150295D01E202D01E2BC9D75B
:10388E0082D0010E1E6F1E51080A34E01EC100F0D8
:10389E00000E016E026E036E003600900136023687
:1038AE00033600360090013602360336660E0024CB
:1038BE00F66E420E0120F76E000E0220F86E090021
:1038CE00F5CF01F00900F5CF02F00900F5CF03F0B6
:1038DE000900F5CF04F004502C5D08E103502B5D78
:1038EE0005E102502A5D02E10150295D01E202D09C
:1038FE001E2BC9D748D0010E1E6F1E510C0A34E084
:10390E001EC100F0000E016E026E036E00360090B6
:10391E000136023603360036009001360236033683
:10392E000E0E0024F66E420E0120F76E000E0220DF
:10393E00F86E0900F5CF01F00900F5CF02F009008D
:10394E00F5CF03F00900F5CF04F004502C5D08E12B
:10395E0003502B5D05E102502A5D02E10150295D05
:10396E0001E202D01E2BC9D70ED00550000AD8B4E2
:10397E004ED70550C00AD8B44AD70550800A81E008
:10398E000550400AB8E0800E006E800E1D19005CD6
:10399E0002E11C511E5D03E21CC11EF10DD0800E12
:1039AE001D19006E800E005C02E11E511C5D04E2CA
:1039BE001EC11CF1000E1D6F1F5120110EE0030ED3
:1039CE002115006E22C101F0000E011600500110EB
:1039DE0004E0010E1F5F000E205B800E1D19006EAD
:1039EE00800E2019005C02E11F511C5D05E21C5186
:1039FE001F5F1D51205B02D01F6B206BC40E211563
:103A0E00016E2251080B026E0250080A02E1400EAE
:103A1E00011808E11F51201104E0010E1F5F000E76
:103A2E00205B1CD0C00E2115016E2251080B026EB8
:103A3E000250080A02E1800E011810E1800E006E9D
:103A4E00800E2019005C02E11F51020805E2020EF1
:103A5E001F5F000E205B02D01F6B206B21A55DD077
:103A6E0021A312D021A103D02D0E186F02D02B0E40
:103A7E00186F0DC1E1FF0EC1E2FF18C1E6FF0D4B3D
:103A8E000E2B2D4B2E2B34D021A10BD00DC1E1FFCF
:103A9E000EC1E2FF200EE66E0D4B0E2B2D4B2E2B84
:103AAE0027D0C00E2115016E2251080B026E025056
:103ABE00080A02E1800E01181BE10DC1E1FF0EC1E3
:103ACE00E2FF300EE66E0D4B0E2B2D4B2E2B21AB47
:103ADE0003D0580E196F02D0780E196F0DC1E1FF89
:103AEE000EC1E2FF19C1E6FF0D4B0E2B2D4B2E2BF7
:103AFE001F51201111E00DC1E1FF0EC1E2FF300E8A
:103B0E00E66E0D4B0E2B2D4B2E2B010E1F5F000E56
:103B1E00205B1F512011EFE174D01F51201113E0D3
:103B2E0021B711D00DC1E1FF0EC1E2FF200EE66EEE
:103B3E000D4B0E2B2D4B2E2B010E1F5F000E205BFF
:103B4E001F512011EFE121A312D021A103D02D0E80
:103B5E001A6F02D02B0E1A6F0DC1E1FF0EC1E2FFDC
:103B6E001AC1E6FF0D4B0E2B2D4B2E2B0CD021A187
:103B7E000AD00DC1E1FF0EC1E2FF200EE66E0D4B25
:103B8E000E2B2D4B2E2BC00E2115016E2251080B24
:103B9E00026E0250080A02E1400E01180BE10DC13F
:103BAE00E1FF0EC1E2FF300EE66E0D4B0E2B2D4BDC
:103BBE002E2B27D0C00E2115016E2251080B026E3E
:103BCE000250080A02E1800E01181BE10DC1E1FF4F
:103BDE000EC1E2FF300EE66E0D4B0E2B2D4B2E2B33
:103BEE0021AB03D0580E1B6F02D0780E1B6F0DC188
:103BFE00E1FF0EC1E2FF1BC1E6FF0D4B0E2B2D4B5D
:103C0E002E2B800E006E800E1D19005C02E11C51E1
:103C1E001E5D0BE20DC1E1FF0EC1E2FF300EE66E3E
:103C2E000D4B0E2B2D4B2E2BECD71CC100F01DC1B6
:103C3E0001F0010E1C5F000E1D5B00500110D8B488
:103C4E002AD1C00E2115006E00C02FF10AD11CC161
:103C5E0000F01DC101F0000E1DBFFF0E026E036EBF
:103C6E0000360090013602360336003600900136DB
:103C7E00023603363E0E0024F66E420E0120F76E1B
:103C8E00000E0220F86E0900F5CF04F00900F5CF02
:103C9E0005F00900F5CF06F00900F5CF07F029C1B0
:103CAE0000F02AC101F02BC102F02CC103F01CEC74
:103CBE0006F00A0E046E000E056E066E076E1CEC04
:103CCE0006F008C000F009C001F00AC002F00BC0F7
:103CDE0003F0300E00241E6FD3D021AB45D01CC193
:103CEE0000F01DC101F0000E1DBFFF0E026E036E2F
:103CFE00003600900136023603360036009001364B
:103D0E0002360336660E0024F66E420E0120F76E62
:103D1E00000E0220F86E0900F5CF04F00900F5CF71
:103D2E0005F00900F5CF06F00900F5CF07F029C11F
:103D3E0000F02AC101F02BC102F02CC103F01CECE3
:103D4E0006F00F0E0016000E011602160316860E52
:103D5E000024F66E420E0120F76E000E0220F86E61
:103D6E000900F5CF1EF144D01CC100F01DC101F0B9
:103D7E00000E1DBFFF0E026E036E00360090013660
:103D8E000236033600360090013602360336660ED2
:103D9E000024F66E420E0120F76E000E0220F86E21
:103DAE000900F5CF04F00900F5CF05F00900F5CFB5
:103DBE0006F00900F5CF07F029C100F02AC101F085
:103DCE002BC102F02CC103F01CEC06F00F0E0016F6
:103DDE00000E011602160316970E0024F66E420E02
:103DEE000120F76E000E0220F86E0900F5CF1EF1CD
:103DFE0047D01CC100F01DC101F0000E1DBFFF0E0B
:103E0E00026E036E0036009001360236033600361F
:103E1E0000900136023603360E0E0024F66E420E68
:103E2E000120F76E000E0220F86E0900F5CF04F0A7
:103E3E000900F5CF05F00900F5CF06F00900F5CF22
:103E4E0007F029C100F02AC101F02BC102F02CC1EC
:103E5E0003F01CEC06F0070E00141E6F300E1E272A
:103E6E000FD02F51000AD8B4F2D62F51C00AD8B4B1
:103E7E00EED62F51800AD8B430D72F51400AB9E070
:103E8E000DC1E1FF0EC1E2FF1EC1E6FF0D4B0E2B71
:103E9E002D4B2E2BCAD621A71AD0800E006E800E67
:103EAE002019005C02E11F51000811E20DC1E1FF73
:103EBE000EC1E2FF200EE66E0D4B0E2B2D4B2E2B60
:103ECE00010E1F5F000E205B1F512011EFE16CEF02
:0C3EDE000FF02DC100F02EC101F0120009
:103EEA00016A01500A080BE3E90EE16E000EE26E68
:103EFA000150E126D8B0E22AE66A012AF2D7120076
:103F0A00C00E0001E16F1E0EE26F0D0EE36F010E8F
:103F1A00E46FBC0EE56F3F0EE66F000EE76F000E12
:103F2A00E86FFF0ED96FFF0EDA6F000EDB6F000E1F
:103F3A00DC6FFF0EDD6FFF0EDE6F000EDF6F000E0F
:103F4A00E06FAC8A900EAB6E948E949C9EAA03D0BE
:083F5A00AECF00F0FBD712000E
:103F62000900F5CFE6FF0006FBE10106F9E11200C8
:103F7200070E01010B6F010E0C6F02C10DF103C19F
:103F82000EF104C10FF105C110F106C111F10B0EC2
:103F9200126F010E136F67EC0FF000C009F101C040
:103FA2000AF100500225E16E01500321E26EE66A39
:0A3FB20009C100F00AC101F012007D
:103FBC00AECF01F0ABA202D0AB98AB8801C000F041
:023FCC001200E1
:103FCE00000E0101031902E1000E021937E002C1D1
:103FDE00E9FF03C1EAFFEE5231E004C10DF105C164
:103FEE000EF1F4EC0EF000C011F102C10DF103C19F
:103FFE000EF104C10FF105C110F111EC0FF0000E1E
:10400E00011802E1000E001805E102C100F003C123
:10401E0001F016D0010E010102250D6F000E0321D5
:10402E000E6F04C1E9FF05C1EAFFEECF0FF142ECBE
:10403E000FF000C002F101C003F1C2D7006A016A9D
:02404E0012005E
:104050000101056B02C1E9FF03C1EAFFEECF04F1E4
:104060000451000A0FE004C10DF160EC0FF00101F2
:10407000052B05510225E96E000E0321EA6EEECFF5
:0640800004F1EED712006E
:1040860060EC21F00F0EC112070EB412816A8A6A23
:10409600938093829384846A8D6A9692969096947E
:1040A600F292F090F092F288F086F088F18CF18A24
:1040B600F1889E9A9D8AF28EF28CB886020EB06EB8
:1040C600080EAF6EAC841EDF030E0B6E8A0E0C6EEE
:1040D600550E0D6E0D2EFED70C2EFCD70B2EFAD7D5
:0840E60000000000FFD7FFD726
:1042C00010EE1EF0B80E006E010E016EEE0EF66ED0
:0E42D000400EF76E000EF86EB1EC1FF01200FB
:0140EE0000D1
:0140EF004090
:0140F00026A9
:0840F100406C65305F6F6E004A
:0840F900406C65305F6F6E0042
:0141010000BD
:024102000000BB
:024104000000B9
:024106000000B7
:08410800406C65325F6F6E0030
:0A411000404C6C65325F6F6E2600B4
:0B411A00404C6C65315F6F666626004C
:08412500406C65325F6F6E0013
:08412D00406C65325F6F660013
:08413500404572726F72260012
:07413D00286E756C6C29006F
:08414400406C65325F6F6600FC
:0B414C00404C6C65325F6F6666260019
:08415700406C65305F6F6600EB
:0B415F00404C6C65305F6F6666260008
:0A416A00404C6C65305F6F6E26005C
:08417400406C65305F6F6600CE
:08417C00406C65315F6F6E00BD
:08418400406C65315F6F6600BD
:08418C00406C65315F6F6600B5
:08419400406C65315F6F6E00A5
:0A419C00404C6C65315F6F6E260029
:1041A6000000007F000020820000488500007A8819
:1041B60000401C8C0050438F002474928096189601
:1041C60020BC3E99286B6E9CF90215A0EC782DC197
:0441D600CAF249E2FE
:1041DA000000007FCDCC4C7B0AD723786F12037581
:1041EA0017B75171ACC5276EBD37066B95BF5667B9
:1041FA0077CC2B645F700961FFE65B5D08E53C3CA8
:04420A006042221BD1
:10420E000100000008000000400000000002000055
:10421E0000100000008000000000040000002000DC
:10422E000000000100000008000000400000000037
:10423E00010000000A00000064000000E803000016
:10424E0010270000A086010040420F0080969800C3
:08425E0000E1F50500CA9A3BDE
:104266000100000010000000000100000010000026
:104276000000010000001000000000010000001016
:104286003031323334353637383941424344454686
:014296000027
:1042970030313233343536373839616263646566B5
:0142A7000016
:0842A8004053305F256426003D
:0842B0004053325F2564260033
:0842B8004053315F256426002C
:020000040030CA
:0E000000040C1F1EFF8381FF0FC00FE00F4096
:00000001FF
