:040000003CEF0BF0D6
:1000080000C01EF001C01DF002C01CF003C01BF0B0
:1000180004C01AF005C019F008C018F009C017F09C
:100028000AC016F00BC015F0E1CF27F0E2CF28F098
:10003800E9CF25F0EACF26F0F3CF23F0F4CF24F070
:10004800F5CF22F0F8CF1FF0F7CF20F0F6CF21F050
:10005800A1AA03D0A19A1CEC0AF0F2A205D0F29250
:100068005C2A5CC040F54780F0A005D0F0905B2A80
:100078005BC041F54780F0A205D0F092292A29C03B
:1000880042F5478022C0F5FF1FC0F8FF20C0F7FFE8
:1000980021C0F6FF23C0F3FF24C0F4FF1EC000F008
:1000A8001DC001F01CC002F01BC003F01AC004F010
:1000B80019C005F018C008F017C009F016C00AF0FA
:1000C80015C00BF025C0E9FF26C0EAFF27C0E1FFF5
:0600D80028C0E2FF110048
:1000DE001E0E716E100E326E040E336E32C0E1FFC4
:1000EE0033C0E2FFE69E32C0E1FF33C0E2FFE69C82
:1000FE00040E3224E16E000E3320E26EE68C180EF2
:10010E002E6E040E2F6E2EC0E1FF2FC0E2FFE69E74
:10011E002EC0E1FF2FC0E2FFE69C040E2E24E16EFE
:10012E00000E2F20E26EE68C020E3224E16E000EDF
:10013E003320E26E2AC0E6FF2BC0E6FF010E32240A
:10014E00E16E000E3320E26E400EE66E32C0E9FF25
:10015E0033C0EAFFEECF00F032C0E1FF33C0E2FF62
:10016E00400E0014E66E32C0E9FF33C0EAFFEECF58
:10017E0000F0880E001232C0E1FF33C0E2FF00C073
:10018E00E6FF32C034F033C035F0040E3218006E84
:06019E0000C032F0120067
:1001A4000B6A0A6A096A00500402F4CF09F0F3CF1B
:1001B40008F001500502F4CF0BF0F3CF0AF0005021
:1001C4000502F3500926F4500A22E86A0B22015072
:1001D4000402F3500926F4500A22E86A0B2208C0EC
:1001E40000F009C001F00AC002F00BC003F01200D5
:1001F4000401286B296B42D04B8E28813A50010AA6
:10020400D8B4288350D04B8E4ED04B8E24BF16D0FA
:1002140024C403F00F0E031603C000F0000E016E99
:10022400003600900136300E0024E96E000E0120E5
:10023400EA6EEECF04F0EECF05F015D024C403F03F
:100244000F0E031603C000F0000E016E003600907E
:1002540001362C0E0024E96E000E0120EA6EEECF6A
:1002640004F0EECF05F004C0E9FF05C0EAFFEECFCD
:1002740001F001A402D0010E286F15D020C401F0B2
:100284001F0E01160150000AB7E020C401F01F0E32
:1002940001160150010AB7E020C401F01F0E011637
:1002A4000150020AB2E04BAE07D0280E486E040E8D
:0A02B400496E4B80020E4C6E1200E2
:1002BE0004012251010A0FE120C401F01F0E0116A4
:1002CE000150000A08E14B8E2151030A03E1010E91
:1002DE003A6E01D03A6A2251000AD8A48BD020C4BB
:1002EE0001F01F0E01160150020AD8A483D024C4B7
:1002FE0001F00F0E01160150000AD8B47BD04B8EC0
:10030E0024BF16D024C403F00F0E031603C000F052
:10031E00000E016E003600900136300E0024E96E9C
:10032E00000E0120EA6EEECF04F0EECF05F015D0F0
:10033E0024C403F00F0E031603C000F0000E016E6E
:10034E000036009001362C0E0024E96E000E0120BE
:10035E00EA6EEECF04F0EECF05F02151030A07E16D
:10036E0004C0E1FF05C0E2FF840EE66E43D024C454
:10037E0000F00F0E0016700E026E0F0E036E005080
:10038E000226D8B0032A02C0E9FF03C0EAFFFE0E20
:10039E00EE14006EEECF01F0FF0E011602C0E1FF6B
:1003AE0003C0E2FF00C0E6FF01C0E6FF24AF11D09C
:1003BE0004C0E1FF05C0E2FFE66A040E0418006EF9
:1003CE0000C004F004C0E1FF05C0E2FF400EE66E7F
:1003DE0011D004C0E1FF05C0E2FF880EE66E040EE8
:1003EE000418006E00C004F004C0E1FF05C0E2FF77
:0603FE00C80EE66E1200BD
:100404004B8E716A506A22C44FF04F50000A03E1C8
:0E041400100E4E6E03D0200E4E6E5FDE1200F4
:1004220004012051800AD8A471D0C00E4B6E64D052
:10043200AE0E006E170E016E000E026E00C048F086
:1004420001C049F002C04AF0120E4C6E000E4D6E11
:100452005DD0030E006E000E016E22C404F0000E89
:10046200056E9FDE440E0024E96E000E0120EA6E46
:10047200EECF48F0EECF49F0EECF4AF0020E48241C
:10048200F66E000E4920F76E000E4A20F86E090043
:10049200F5CF00F00900F5CF01F000C04CF001C02B
:1004A2004DF034D02251515C23E3030E006E000E56
:1004B200016E22C404F0000E056E73DE3B0E0024B2
:1004C200E96E000E0120EA6EEECF48F0EECF49F061
:1004D200EECF4AF048C0F6FF49C0F7FF4AC0F8FF26
:1004E2000900F5CF00F000C04CF0000E4D6E01D0B7
:1004F2004B6A0CD04B6A0AD02351010A99E023516E
:0E050200020AA7E02351030ACDE0F4D712004D
:1005100020C401F01F0E01160150010A01E08DD028
:1005200004012451000A01E088D02151060A3FE16C
:1005300034D04F50010A17E13C0E006E170E016EC9
:10054000000E026E120E0026000E0122022200C0D2
:1005500048F001C049F002C04AF0090E4C6E000E8E
:100560004D6EC00E4B6E23D04F50010A12E18D0E1E
:10057000006E170E016E000E026E00C048F001C042
:1005800049F002C04AF0210E4C6E000E4D6EC00EB6
:100590004B6E0DD0800E4B6E0AD004012351210A00
:1005A000C8E02351220AE0E02351230AF3E020C4EB
:1005B00001F0600E0116050E006E005004E00132DD
:1005C000019EFF0FFBD70150010A01E036D022D077
:1005D00034D033D06E0E486E000E496E010E4C6E54
:1005E000000E4D6EC10E4B6E28D0800E4B6E23C494
:1005F0006EF023D0600E486E000E496E010E4C6EF8
:10060000000E4D6E810E4B6E18D0800E4B6E22C4C4
:1006100060F013D004012151010ADAE02151090AE6
:10062000D8E02151020AD6E021510A0ADEE0215128
:0C063000030AE0E021510B0AE8E0120090
:10063C00000E4D5C02E1080E4C5C10E24CC003F065
:10064C004DC004F03950000A03E1010E396E05D09B
:10065C003950010A02E1020E396E04D0080E036E05
:10066C00000E046E2CC0E1FF2DC0E2FFE6922CC000
:10067C00E1FF2DC0E2FFE6902CC0E9FF2DC0EAFFA0
:10068C00EECF00F02CC0E1FF2DC0E2FF04500010B3
:10069C00E66E010E2C24E16E000E2D20E26E03C0DE
:1006AC00E6FF03504C5C006E04504D58016E00C0C8
:1006BC004CF001C04DF0280E00016C6F040E6D6FF4
:1006CC004BB02FD0035004102BE048C0F6FF49C0AC
:1006DC00F7FF4AC0F8FF0900F5CF00F06CC0E1FF4E
:1006EC006DC0E2FF00C0E6FF6C4B6D2B010E482481
:1006FC00006E000E4920016E000E4A20026E00C0F2
:10070C0048F001C049F002C04AF0010E035C006ED3
:10071C00000E0458016E00C003F001C004F0D2D7E3
:10072C0024D00350041021E048C0E9FF49C0EAFF7F
:10073C006CC0E1FF6DC0E2FFEECFE6FF6C4B6D2BA2
:10074C00010E4824006E000E4920016E00C048F0D6
:10075C0001C049F0010E035C006E000E0458016EDE
:0C076C0000C003F001C004F0DCD7120054
:1007780020C401F0600E0116050E006E005004E062
:100788000132019EFF0FFBD70150000A01E058D04B
:1007980034D04B8E080E4E6E53D03FDE51D02EDE35
:1007A8004FD04F0E486E000E496E4B80010E4C6EB6
:1007B8004B8E46D01BDD44D07EDD42D0500E006EFD
:1007C800000E016E24510026D8B0012A00C048F05E
:1007D80001C049F04B80010E4C6E4B8E31D04B8ED0
:1007E800500EE16E000EE26E2451E126D8B0E22AE6
:1007F80022C4E6FF25D024D023D004012151050AC4
:10080800C8E02151060AC9E02151090AC8E021516E
:10081800080AC7E02151000ACDE02151010ACCE0C5
:100828002151030AC9E021510A0AC8E021510B0AE3
:10083800D6E02151070ADFE021510C0ADDE0DCD7C0
:0208480012009C
:0E084A00160E6F6E9F0E6B6E3B0E696E1200E7
:100858003C0E446E170E456E000E466EC00E3B6E83
:10086800170E3C6E000E3D6E650E3E6E170E3F6E07
:10087800000E406E060E416E170E426E000E436E5D
:0208880012005C
:10088A00386A2CC0E1FF2DC0E2FFE66A040E2C187C
:10089A00E16E2DC0E2FF000EE21AE66A000165AFC2
:0608AA0001D0659F120061
:0A08B00000016F5301E02CDE12007E
:1008BA00010E3624E96E000E3720EA6EEECF00F004
:1008CA0000C002F0000E0001675D02E10250665DA1
:1008DA0003E266C002F00AD00250665D006E000EA6
:1008EA006759016E00C066F001C067F0036A0250E2
:1008FA00035C1CE2280EE96E040EEA6E0350E92638
:10090A00D8B0EA2AEECF00F063C0E1FF64C0E2FF8C
:10091A0000C0E6FF010E6325006E000E6421016E21
:10092A0000C063F001C064F0032AE1D7000E006E34
:10093A006751005C02E16651000828E2010E612558
:10094A00E16E000E6221E26E080EE66E020E61256D
:10095A00E16E000E6221E26E280EE66E040EE66E6D
:10096A0036C0E9FF37C0EAFFEECF00F000BC07D07F
:10097A0061C0E1FF62C0E2FFC80EE66E06D061C048
:10098A00E1FF62C0E2FF880EE66E19D0010E612512
:10099A00E16E000E6221E26E080EE66E020E61251D
:1009AA00E16E000E6221E26E200EE66E040EE66E25
:1009BA0061C0E1FF62C0E2FF840EE66E659F12002D
:1009CA006D984BBE4AD0000165AF28D0020E386E32
:1009DA00010E2C24E16E000E2D20E26EE66A2CC078
:1009EA00E1FF2DC0E2FFC80EE66E010E6125E16E41
:1009FA00000E6221E26E080EE66E020E6125E16EBD
:100A0A00000E6221E26E280EE66E040EE66E61C0EA
:100A1A00E1FF62C0E2FFC80EE66E1ED0010E61253C
:100A2A00E16E000E6221E26E080EE66E020E61258C
:100A3A00E16E000E6221E26E200EE66E040EE66E94
:100A4A0061C0E1FF62C0E2FF8C0EE66E2CC0E1FFDE
:100A5A002DC0E2FF840EE66E80D0000165BF7DD016
:100A6A00040120AF52D04D50275D02E14C50265D63
:100A7A0004E226C44CF027C44DF0DBDD010E386ECB
:100A8A00010E00016125E16E000E6221E26E080E80
:100A9A00E66E020E6125E16E000E6221E26E200E04
:100AAA00E66E040EE66E61C0E1FF62C0E2FF800EF0
:100ABA00E66E5F6A010E3624E16E000E3720E26EA2
:100ACA00080EE66E020E3624E16E000E3720E26E44
:100ADA00200EE66E040EE66E36C0E1FF37C0E2FF76
:100AEA00840EE66E010E5F6E020E2C24E16E000E7D
:100AFA002D20E26E280EE66E040EE66E2CC0E1FF93
:100B0A002DC0E2FFC80EE66E28D00001020E386E34
:100B1A00010E2C24E16E000E2D20E26EE66A2CC036
:100B2A00E1FF2DC0E2FFC80EE66E010E6125E16EFF
:100B3A00000E6221E26E080EE66E020E6125E16E7B
:100B4A00000E6221E26E280EE66E040EE66E61C0A9
:0C0B5A00E1FF62C0E2FFC80EE66E120070
:100B66006D92699468A403D0FB0E6816FBD7120039
:0A0B76006984EF0E68166D8212000C
:040B8000A19A120024
:100B8400040E2C18006E00C02CF04E50080A0AE126
:100B940022C46EFF6E50000803E2100E4E6E02D0A7
:100BA400040E4E6E3850010A3AE1020E2C24E16E16
:100BB400000E2D20E26E280EE66E040EE66E3CDD7D
:100BC4003950020A07E12CC0E1FF2DC0E2FF840E78
:100BD400E66E24D0040E2C18006E00C02CF02CC03D
:100BE400E9FF2DC0EAFFEECF00F000BC0CD0040EEC
:100BF4002C18006E00C02CF02CC0E1FF2DC0E2FFC9
:100C0400C80EE66E0BD0040E2C18006E00C02CF03B
:100C14002CC0E1FF2DC0E2FF880EE66E01D033DE6A
:020C24001200BC
:100C260070A01CD036C0E9FF37C0EAFFEECF01F056
:100C36000150800A12E12CC0E9FF2DC0EAFFEECF79
:100C460001F0000E000A02E1840E011806E136C02A
:100C5600E1FF37C0E2FF8C0EE66E7090DF0E68167D
:020C660012007A
:100C68003850020A02E125DE1ED00BDE5F50000A72
:100C780019E1010E6125E16E000E6221E26E080E97
:100C8800E66E020E6125E16E000E6221E26E200E14
:100C9800E66E040EE66E61C0E1FF62C0E2FF8C0EF4
:080CA800E66E01D05F6A120044
:100CB000D3DD346A356A556A566A6A6A686AC5DD80
:100CC0006D8C6E6A716A6D9C536A546A000E545C36
:100CD00002E1080E535C17E253C000F054C001F06B
:100CE000003600900136003600900136000E0024D8
:100CF000E16E040E0120E26EE66AE66AE66AE66AE2
:100D0000534A542AE3D7160E706E68A603D0F70E26
:100D10006816FBD74B6A0001656B666B676B6D9855
:0E0D2000080E2C6E040E2D6E4F6A4E6A1200E5
:100D2E002CC0E9FF2DC0EAFFEECF00F000AE05D0DB
:100D3E002CC0E1FF2DC0E2FFE66A396A386A4C6AC0
:0C0D4E004D6A4B6A12DDADDD39DE12008B
:100D5A0000017C51000A12E07BC000F0000E016E17
:100D6A000036009001362C0E0024E96E000E012098
:100D7A00EA6EEECF04F0EECF05F011D07BC000F0A2
:100D8A00000E016E003600900136300E0024E96E26
:100D9A00000E0120EA6EEECF04F0EECF05F0020E4F
:100DAA000424E16E000E0520E26E7DC0E6FF7EC0DF
:100DBA00E6FF010E0424E16E000E0520E26E7FC0FC
:100DCA00E6FF04C0E9FF05C0EAFFEECF00F004C069
:100DDA00E1FF05C0E2FF400E0014E66E04C0E9FF21
:100DEA0005C0EAFFEECF00F0880E001204C0E1FF52
:100DFA0005C0E2FF00C0E6FF7C51000A1BE07BC091
:100E0A0000F0000E016E0036009001362C0E002410
:100E1A00026E000E0120036E02C0E9FF03C0EAFF62
:100E2A00040EEE18006E02C0E1FF03C0E2FF00C02C
:100E3A00E6FF1AD07BC000F0000E016E003600906B
:100E4A000136300E0024026E000E0120036E02C02D
:100E5A00E9FF03C0EAFF040EEE18006E02C0E1FFCC
:100E6A0003C0E2FF00C0E6FF04C000F005C001F0C5
:020E7A00120064
:100E7C00AE0E006E170E016E000E026E0E0E0024EA
:100E8C00F66E000E0120F76E000E0220F86E0900BF
:100E9C00F5CF03F003C004F00F0E0024F66E000E25
:100EAC000120F76E000E0220F86E0900F5CF01F05C
:100EBC000150035C12E2AE0E006E170E016E000EB6
:100ECC00026E0F0E0024F66E000E0120F76E000E5F
:100EDC000220F86E0900F5CF04F0AE0E006E170E6E
:100EEC00016E000E026E100E0024F66E000E012034
:100EFC00F76E000E0220F86E0900F5CF01F00150DC
:100F0C00045C12E2AE0E006E170E016E000E026E45
:100F1C00100E0024F66E000E0120F76E000E02205B
:0E0F2C00F86E0900F5CF04F004C000F01200CA
:100F3A0000017E6B7F6B806B020E7B25F66E000EC6
:100F4A007C21F76E000E7D21F86E0900F5CF05F0C1
:100F5A00030E7B25F66E000E7C21F76E000E7D21B6
:100F6A00F86E0900F5CF00F000C003F0000E046E21
:100F7A0003C001F0006A05500024066E000E01202D
:100F8A00076E7BC008F07CC009F07DC00AF0010E34
:100F9A000824F66E000E0920F76E000E0A20F86E7D
:100FAA000900F5CF01F00150020A1BE1060E0824E0
:100FBA00F66E000E0920F76E000E0A20F86E090080
:100FCA00F5CF01F001507E5D0CE2060E0824F66EA4
:100FDA00000E0920F76E000E0A20F86E0900F5CF00
:100FEA007EF0010E0824F66E000E0920F76E000E40
:100FFA000A20F86E0900F5CF01F00150040A1BE13E
:10100A00080E0824F66E000E0920F76E000E0A205C
:10101A00F86E0900F5CF01F001507E5D0CE2080E72
:10102A000824F66E000E0920F76E000E0A20F86EEC
:10103A000900F5CF7EF008C0F6FF09C0F7FF0AC025
:10104A00F8FF0900F5CF00F000507F25016E000E71
:10105A008021026E01C07FF002C080F00750025C5E
:10106A0002E10650015C01E30FD008C0F6FF09C097
:10107A00F7FF0AC0F8FF0900F5CF00F00050082674
:0E108A00000E09220A2283D77EC000F0120059
:10109800000E00017C1902E1000E7B1902E1016AD1
:1010A8000AD07BC0E9FF7CC0EAFFEECF00F0000E5B
:0C10B80000BE010E016E01C000F012002D
:0A10C400D08EA28AA08AF28E1200DC
:1010CE004E50000A0AE16D6A696A25EC04F06DB6AD
:1010DE0002D06D86FCD7010E4E6E4E50010A08E10D
:1010EE006DBA06D0686A696A69806988020E4E6EAA
:1010FE0068A405D069A403D0FB0E68162DDD6DA281
:10110E0002D037DDD5D068A018D069A016D0C9DDC1
:10111E00040E4E6E200E0401026F040E036F080EB5
:10112E00016F000E0015006E00C000F48C0E001151
:10113E00006E00C000F4FE0E681668A805D069A8FF
:10114E0003D012DDEF0E681668AC04D069AC02D085
:10115E00BF0E681668AA03D069AA01D05DDD68A229
:10116E0002D069B26A6A040E4E5C02E202DDA0D0C1
:10117E0069A69DD000017C6B040E7C5DD8B097D023
:10118E0068A691D06CCF52F0F70E6816780E5214F6
:10119E00016E0150000AD8A485D0FD0E5214016EC6
:1011AE00026AFF0E0216000E021802E1000E01186E
:1011BE006BE17E0E5214016E01C003F00332039EEA
:1011CE0003C000F0000E016E0036009001360036AE
:1011DE0000900136000E0024026E040E0120036EF4
:1011EE0002C036F003C037F002C061F003C062F0F7
:1011FE00040E6119006E00C061F002C0E9FF03C069
:10120E00EAFFEECF00F000C001F03C0E01160132F5
:10121E00019E0132019E01500D0A34E1020E362468
:10122E00E96E000E3720EA6EEECF01F0EECF02F03F
:10123E000250040A02E1280E011822E1020E3624A1
:10124E00E16E000E3720E26E200EE66E040EE66EA4
:10125E007B6B080E7B5D14E2200EE16E040EE26ED7
:10126E007B51E126D8B0E22A280EE96E040EEA6E12
:10127E007B51E926D8B0EA2AEECFE6FF7B2BE9D7E1
:10128E004FDD01D0EADC0DD0FD0E5214016E026A64
:10129E00FF0E0216000E021802E1040E011801E103
:1012AE006ADC00D001D003D000017C2B65D761DC55
:0212BE0012001C
:1012C0004E50000A0BE16D6A696A25EC04F0FADE03
:0E12D0006DB602D06D86FCD7010E4E6E120078
:1012DE0000017A6B200E4E5C03E36DB201D002D09A
:1012EE00006A2DD034C07BF035C07CF0CEDE0052CB
:1012FE0025E134C078F035C079F0000E351802E1E2
:10130E00000E34180AE0010E7825E96E000E7921E0
:10131E00EA6EEECF00F000C07AF077C07BF07C6B07
:10132E0074C07DF075C07EF076C07FF00FDD00C01A
:10133E0034F001C035F07AC000F001D0006A12001E
:10134E00200E4E5C03E36DB201D002D0006A4ED087
:10135E0055C07BF056C07CF098DE005246E177C057
:10136E007BF0010E7C6F74C07DF075C07EF076C090
:10137E007FF0ECDC00C055F001C056F0576A586A99
:10138E00596A5A6A55C07BF056C07CF07EDE005218
:10139E0016E0200E4E5C03E36DB201D002D0006A5F
:1013AE0025D0010E016E0150000A01E189DE575071
:1013BE00581059105A1002E0006A18D0E3D755C0E1
:1013CE0078F056C079F0000E561802E1000E55184E
:1013DE000AE0010E00017825E96E000E7921EA6E11
:0E13EE00EECF00F003D0006A01D0006A1200BA
:1013FC003FDD00C074F03C0E00017B6F170E7C6F5C
:10140C00000E7D6F94DD00C075F07451005C03E23A
:0C141C0074C000F002D075C000F0120097
:101428000900F5CFE6FF0006FBE10106F9E112002D
:101438004E50010A07E16DBA05D0686A698069886B
:10144800020E4E6E68A406D069A404D0FB0E68167E
:10145800B3EC05F06DA203D0C0EC05F0DCD068A0B9
:1014680018D069A016D020DC040E4E6E200E0401A0
:10147800026F040E036F080E016F000E0015006E58
:1014880000C000F48C0E0011006E00C000F4FE0EC7
:10149800681668A806D069A804D0BBEC05F0EF0E62
:1014A800681668AC04D069AC02D0BF0E681668AA8A
:1014B80004D069AA02D013EC06F068A202D069B27F
:1014C8006A6A040E4E5C03E2C0EC05F0A4D069A67B
:1014D800A0D00001826B040E825DD8B09AD068A6B5
:1014E80094D06CCF52F0F70E6816780E5214016E35
:1014F8000150000AD8A488D0FD0E5214016E026A69
:10150800FF0E0216000E021802E1000E01186DE12E
:101518007E0E5214016E01C003F00332039E03C015
:1015280000F0000E016E0036009001360036009083
:101538000136000E0024026E040E0120036E02C064
:1015480036F003C037F002C061F003C062F0040E49
:101558006119006E00C061F002C0E9FF03C0EAFF34
:10156800EECF00F000C001F03C0E01160132019EE2
:101578000132019E01500D0A35E1020E3624E96E52
:10158800000E3720EA6EEECF01F0EECF02F00250E7
:10159800040A02E1280E011822E1020E3624E16E47
:1015A800000E3720E26E200EE66E040EE66E816BAA
:1015B800080E815D14E2200EE16E040EE26E815188
:1015C800E126D8B0E22A280EE96E040EEA6E8151AF
:1015D800E926D8B0EA2AEECFE6FF812BE9D797ECC7
:1015E80006F002D034EC06F00ED0FD0E5214016E57
:1015F800026AFF0E0216000E021802E1040E01181C
:1016080002E1C2EC05F000D001D003D00001822B2A
:0816180062D7C0EC05F01200DE
:10162000EDDE00C051F0010E6F6F70C02AF071C086
:101630002BF072C05DF073C05EF058EC06F0010E46
:0C164000016E0150010A01E13BDE1200C6
:10164C002AC074F02BC075F0400E0001766F010EAD
:06165C00776F3FDE120073
:1016620070C074F071C075F072C076F0010E0001A6
:06167200776F6CDE120030
:10167800296A0F0EC112070EB412816A8A6A938012
:10168800F19E836A8C6A956A000E0001706F050EE0
:10169800716F400E726F050E736FBEDFF292F0909D
:1016A800F092F288F086F088F18CF18AF188A19A9C
:1016B800A08AF28EF28CC6DF0050000A13E000C543
:1016C8008CFF05010051000803E24F0E486F02D05D
:1016D800460E486F400E0001706F050E716F400E88
:1016E800726FBBDF47A009D04790400E0001706FB2
:0E16F800050E716F400E726FB0DFDDD7FFD7A9
:1017060036035500530042002000280048004900D7
:1017160044002900200049006E0074006500720034
:1017260066006100630065002000530061006D00E3
:0617360070006C0065006C
:10173C0009022900010100803209040000020300A3
:10174C00000009210101000122210007058103404D
:09175C0000010705010340000132
:1017650028037000710074007200690032003000B7
:1017750030003200400067006D00610069006C00B8
:081785002E0063006F006D00EF
:10178D000600FF0901A10119012940150026FF00DE
:10179D0075089540810219012940750895409102FF
:0117AD00C07B
:1017AE001201000200000008D8040100000101022D
:0217BE00000128
:0417C0000403090411
:020000040030CA
:0E000000240C3E1EFF8081FF0FC00FE00F405A
:00000001FF
