:0400000073EF20F08A
:1000080000C016F001C015F0E1CF17F0E2CF18F0EC
:100018009DAA26D09EAA24D09E9AF4EC1EF000C079
:10002800ACF10050260A0DE17E0EE16E010EE26E83
:1000380001016851E126D8B0E22AE66A6981686B55
:100048000FD001011D0E685D0BE27E0EE16E010E00
:10005800E26E6851E126D8B0E22AACC1E6FF682B0F
:1000680016C000F015C001F017C0E1FF18C0E2FF8C
:02007800110075
:08007A000AAE029E000E120006
:100082000B840BAE4CEF00F0010E036E026A016AA4
:0A009200006A0A360232FF0E120067
:0E009C00026A016A006A086A036A000E120016
:1000AA000B820BAE5FEF00F003680268016800681C
:0800BA000A360232FF0E1200AB
:1000C2000CB0A3EF00F00CA249EF01F00E6A000E93
:1000D2000264BAEF00F0F00E0214D8A485EF00F02B
:1000E200023A01380F0B02260138F00B016E00387C
:1000F2000F0B01260038F00B006E08380F0B00269C
:100102000838F00B086E0E84D89002BE9EEF00F005
:1001120008360036013602360E2A02BE9EEF00F085
:1001220008360036013602360E2A02BE9EEF00F075
:1001320008360036013602360E2A0E5003643FEFAF
:1001420001F0035E0BBC08AE44EF01F0D880800ED4
:1001520008640030000E002201220222D8A044EFDF
:1001620001F0023201320032034A49EF01F044EF5A
:1001720001F001C002F000C001F008C000F0086AFE
:10018200000E0E860264F1EF00F0F00E0214D8A405
:10019200D9EF00F0023A01380F0B02260138F00BBA
:1001A200016E00380F0B01260038F00B006E0E8432
:1001B200D89002BE9EEF00F00036013602360E2ABB
:1001C20002BE9EEF00F00036013602360E2A02BE53
:1001D2009EEF00F00036013602360E2A9EEF00F046
:1001E20001C002F000C001F0006A000E0E960E88F7
:1001F20002641EEF01F0F00E0214D8A409EF01F020
:10020200023A01380F0B02260138F00B016E0E8400
:10021200D89002BE9EEF00F0013602360E2A02BED0
:100222009EEF00F0013602360E2A02BE9EEF00F06B
:10023200013602360E2A9EEF00F001C002F0016A7A
:10024200000E0E8602644EEF01F0F00E0214D8A4E6
:100252002DEF01F0023A0E84D89002BE9EEF00F01C
:1002620002360E2A02BE9EEF00F002360E2A02BEAF
:100272009EEF00F002360E2A9EEF00F0010E0C6E89
:10028200FFDE51EF01F0020E0C6EF6DE51EF01F0CF
:10029200040E0C6E09DF51EF01F0080E0C6EFDDE4C
:0202A200120048
:1002A4000D6A086A0050D8B4000C04180A6E0ABE1D
:1002B4000D1E0B6A04AE02D0041E042A00AE02D046
:1002C400001E002A005004100A6E0ABE1FD00450FB
:1002D400085E003600340836045008260036060E40
:1002E4000C6E00340836045000B0085E00A00826E6
:1002F40000360C2EF6D700A008260BB015D00DAE94
:10030400000C001E002A081E082A000C04AE09D0A6
:1003140000BE04D00050086E006AF1D7006A002ABB
:10032400000C001E0B2AD3D7082A0450085CD8A45A
:0E033400E6D7086A002A00AEE2D7FF0C1200DE
:100342000134083609360450085E0550D8A0053C31
:10035200095E003601360F0E0C6E0134083609367E
:10036200045000A006D0085E0550D8A0053C095EE6
:1003720005D008260550D8B0053C092600360136BE
:100382000C2EEBD700B006D0045008260550D8B08A
:08039200053C092600001200E1
:10039A00086A080E0C6E003408360450085ED8B09D
:0E03AA0002D00826D89000360C2EF5D712008F
:1003B800086A096A000E0762036461EF02F00250DE
:1003C80006180A6E075003267E0ED8A0F2EF01F039
:1003D800035ED8B065EF02F0F6EF01F0035ED8A037
:1003E80069EF02F0028E068E02C00EF001C00BF01B
:1003F80000C00DF000500402F4CF0CF001500502CB
:10040800F4CF00F0F3CF08F00402F3500C26F450B8
:100418000822000E00220D500502F3500C26F4505D
:100428000822000E002202500402F3500826F4505D
:10043800002202500502016A000E0122F350002634
:10044800F45001220D500602F3500826F450002201
:10045800026A000E012202220B500602F350002607
:10046800F4500122000E02220E500602F35001261B
:10047800F450022202BE49EF02F008360036013677
:1004880002360306D8B469EF02F05CEF02F0D880B8
:10049800800E08640030000E002201220222D8A03B
:1004A8005CEF02F0023201320032034A65EF02F0DB
:1004B8000AAE029E000E6BEF02F0010EEBDD6BEF51
:1004C80002F0020EEEDD6BEF02F0040ED6DD120034
:1004D800025006180E6E086A096A0B6A0350076410
:1004E8005FEF03F006500A6E068E028E03500B6E05
:1004F8000750036E000E0B64AFEF02F00B50075E5F
:10050800D8B450EF03F0070E07641EEF03F0075E40
:1005180000C008F001C000F002C001F0026A074EF6
:1005280050EF03F00764F3EF02F0075E00C008F035
:1005380001C000F0016A074E50EF03F00764D1EFE5
:1005480002F0075E00C008F0006A074E50EF03F0A3
:100558000764B8EF02F00AC002F005C001F004C059
:1005680000F0086A7CEF04F0030E0764C3EF02F0A2
:10057800075E08380F0B086E074E50EF03F0D8904F
:100588000832074E50EF03F0D8900832074E50EF6C
:1005980003F0D890083250EF03F0030E0764E2EF3F
:1005A80002F0075E08380F0B086E0038F00B0826BB
:1005B80000380F0B006E074E50EF03F0D890003252
:1005C8000832074E50EF03F0D89000320832074E39
:1005D80050EF03F0D8900032083250EF03F0030ECA
:1005E80007640AEF03F0075E08380F0B086E00383F
:1005F800F00B082600380F0B006E0138F00B0026B0
:1006080001380F0B016E074E50EF03F0D8900132FE
:1006180000320832074E50EF03F0D8900132003212
:100628000832074E50EF03F0D890013200320832FA
:1006380050EF03F0030E07643BEF03F0075E083842
:100648000F0B086E0038F00B082600380F0B006EF1
:100658000138F00B002601380F0B016E0238F00B41
:10066800012602380F0B026E074E50EF03F0D890A8
:100678000232013200320832074E50EF03F0D890B0
:100688000232013200320832074E50EF03F0D890A0
:100698000232013200320832096A000E0EAE44EF0F
:1006A80004F0081E001E011E021E082A0022012254
:1006B800022244EF04F00750D8A465EF03F07CEF62
:1006C80004F0096A02C00AF0028E068E0750035C25
:1006D800076ED8B437EF04F0070E076405EF04F08F
:1006E800075E0450096E0550046E0650056E066AD2
:1006F800074E37EF04F0070E0764DAEF03F0075EE2
:100708000450096E0550046E056A074E37EF04F071
:10071800070E0764B8EF03F0075E0450096E046A19
:10072800074E37EF04F0070E07649FEF03F00AC087
:1007380002F07CEF04F0030E0764AAEF03F0075EF3
:1007480009380F0B096E074E37EF04F0D8900932BD
:10075800074E37EF04F0D8900932074E37EF04F010
:10076800D890093237EF04F0030E0764C9EF03F09D
:10077800075E09380F0B096E0438F00B0926043898
:100788000F0B046E074E37EF04F0D890043209328D
:10079800074E37EF04F0D89004320932074E37EF8E
:1007A80004F0D8900432093237EF04F0030E0764DE
:1007B800F1EF03F0075E09380F0B096E0438F00BF0
:1007C800092604380F0B046E0538F00B042605388B
:1007D8000F0B056E074E37EF04F0D8900532043240
:1007E8000932074E37EF04F0D89005320432093247
:1007F800074E37EF04F0D89005320432093237EF4C
:1008080004F0030E076422EF04F0075E09380F0BAB
:10081800096E0438F00B092604380F0B046E0538EE
:10082800F00B042605380F0B056E0638F00B05266D
:1008380006380F0B066E074E37EF04F0D8900632D5
:10084800053204320932074E37EF04F0D8900632E9
:10085800053204320932074E37EF04F0D8900632D9
:10086800053204320932086A000E0EAE44EF04F075
:10087800091E041E051E061E092A04220522062238
:100888000950082604500022055001220650022271
:100898000EBE5BEF04F0D8A06AEF04F0023201321A
:1008A80000320832033E6AEF04F076EF04F0D8B065
:1008B80070EF04F0000E081E001E011E021E082A1A
:1008C8000022012202220A7E70EF04F0010E0C6E53
:1008D80061EC00F07EEF04F0020E0C6E61EC00F0AB
:1008E8007EEF04F0040E0C6E55EC00F07EEF04F081
:0608F800000E0C6E120060
:1008FE000B800BAE8BEF04F0026A0AAEFF0E026E97
:0C090E00016E006E0A360232FF0E12006D
:08091A000B6A0B86FF0E1200B0
:100922000450000A12E10550000A0FE10650000AC5
:100932000CE10750000A09E1FF0E006EFF0E016E86
:100942007F0E026EFF0E036EA7D0086A096A075077
:10095200D8B43CEF05F00350D8B440EF05F0025094
:1009620006180A6E028E068E0E6A02C008F001C0D8
:100972000CF000C00DF004500D5E0550D8A0053CEF
:100982000C5E0650D8A0063C085E086A0C6A0D6A26
:10099200D8A0D3EF04F0D8900232013200320832EC
:1009A200010E0E6E0750035ED8A0E0EF04F07E0E3B
:1009B2000E240326D8B045EF05F0E6EF04F07E0ED4
:1009C2000E240326D8A04AEF05F0180E0B6E0D3642
:1009D2000C3608360036013602360E360450005EFA
:1009E2000550D8A0053C015E0650D8A0063C025E28
:1009F20006340E120EA001EF05F00D800CEF05F08B
:100A0200045000260550D8B0053C01260650D8B047
:100A1200062802260D900B2EE8EF04F032EF05F0C7
:100A2200D8900036013602360E360450005E05506C
:100A3200D8A0053C015E0650D8A0063C025E0634F2
:100A42000E10010B0D26D8B00C2AD8B4082AD8A44F
:100A520032EF05F008320C320D32032AD8B445EFDA
:100A620005F00AAE089E0850026E0C50016E0D5041
:100A7200006E4DEF05F0010E4FDF4DEF05F0020E57
:100A82004EEC00F04DEF05F0040E55EC00F04DEF8A
:0A0A920005F0080E41EC00F0120020
:100A9C00800E0101EA19006E800E000A005CD8B0CD
:100AAC006DD1EA510008016E01C0EAF1800E011807
:100ABC00006E800E6E0A005CD8A0C0D0640E046E6E
:100ACC00EAC100F052EC01F0120E0024056E000E8B
:100ADC0000BEFF0E066E000E062205C000F006C01A
:100AEC0001F0000E06BEFF0E026E036E0036009083
:100AFC0001360236033600360090013602360336D4
:100B0C00A00E0024F66E450E0120F76E000E02209A
:100B1C00F86E0900F5CFEBF10900F5CFECF1090007
:100B2C00F5CFEDF10900F5CFEEF1640E046EEAC1DC
:100B3C0000F052EC01F008C000F00A0E046E52EC0A
:100B4C0001F0090E0024056E000E00BEFF0E066EAD
:100B5C00000E062205C000F006C001F0000E06BE15
:100B6C00FF0E026E036E003600900136023603361D
:100B7C0000360090013602360336A00E0024F66EC5
:100B8C00450E0120F76E000E0220F86E0900F5CF1D
:100B9C0000F00900F5CF01F00900F5CF02F00900D3
:100BAC00F5CF03F0EBC104F0ECC105F0EDC106F09C
:100BBC00EEC107F0DCEC01F000C0EBF101C0ECF190
:100BCC0002C0EDF103C0EEF10A0E046EEAC100F0B2
:100BDC0052EC01F008C000F000C001F0000E00BEA5
:100BEC00FF0E026E036E046E013601900236033660
:100BFC00043601360190023603360436A00E012469
:100C0C00F66E450E0220F76E000E0320F86E0900FA
:100C1C00F5CF00F00900F5CF01F00900F5CF02F097
:100C2C000900F5CF03F0EBC104F0ECC105F0EDC108
:100C3C0006F0EEC107F0DCEC01F007D2800E0A0AD8
:100C4C00006E800EEA19005C71E20A0E046EEAC1B5
:100C5C0000F052EC01F0090E0024056E000E00BEEF
:100C6C00FF0E066E000E062205C000F006C001F055
:100C7C00000E06BEFF0E026E036E003600900136AB
:100C8C000236033600360090013602360336A00ECB
:100C9C000024F66E450E0120F76E000E0220F86E51
:100CAC000900F5CFEBF10900F5CFECF10900F5CF18
:100CBC00EDF10900F5CFEEF10A0E046EEAC100F079
:100CCC0052EC01F008C000F000C001F0000E00BEB4
:100CDC00FF0E026E036E046E01360190023603366F
:100CEC00043601360190023603360436A00E012478
:100CFC00F66E450E0220F76E000E0320F86E09000A
:100D0C00F5CF00F00900F5CF01F00900F5CF02F0A6
:100D1C000900F5CF03F0EBC104F0ECC105F0EDC117
:100D2C0006F0EEC107F0DCEC01F08FD1EAC100F067
:100D3C00000EEABFFF0E016E026E036E00360090CD
:100D4C000136023603360036009001360236033681
:100D5C00A00E0024F66E450E0120F76E000E022048
:100D6C00F86E0900F5CF00F00900F5CF01F009008D
:100D7C00F5CF02F00900F5CF03F067D1800EEA1928
:100D8C00006E800E6E0A005CD8A0C0D0640E046E9B
:100D9C00EAC100F052EC01F0120E0024056E000EB8
:100DAC0000BEFF0E066E000E062205C000F006C047
:100DBC0001F0000E06BEFF0E026E036E00360090B0
:100DCC000136023603360036009001360236033601
:100DDC00D40E0024F66E450E0120F76E000E022094
:100DEC00F86E0900F5CFEBF10900F5CFECF1090035
:100DFC00F5CFEDF10900F5CFEEF1640E046EEAC10A
:100E0C0000F052EC01F008C000F00A0E046E52EC37
:100E1C0001F0090E0024056E000E00BEFF0E066EDA
:100E2C00000E062205C000F006C001F0000E06BE42
:100E3C00FF0E026E036E003600900136023603364A
:100E4C0000360090013602360336D40E0024F66EBE
:100E5C00450E0120F76E000E0220F86E0900F5CF4A
:100E6C0000F00900F5CF01F00900F5CF02F0090000
:100E7C00F5CF03F0EBC104F0ECC105F0EDC106F0C9
:100E8C00EEC107F0DCEC01F000C0EBF101C0ECF1BD
:100E9C0002C0EDF103C0EEF10A0E046EEAC100F0DF
:100EAC0052EC01F008C000F000C001F0000E00BED2
:100EBC00FF0E026E036E046E01360190023603368D
:100ECC00043601360190023603360436D40E012462
:100EDC00F66E450E0220F76E000E0320F86E090028
:100EEC00F5CF00F00900F5CF01F00900F5CF02F0C5
:100EFC000900F5CF03F0EBC104F0ECC105F0EDC136
:100F0C0006F0EEC107F0DCEC01F09FD0800E0A0A6F
:100F1C00006E800EEA19005C71E20A0E046EEAC1E2
:100F2C0000F052EC01F0090E0024056E000E00BE1C
:100F3C00FF0E066E000E062205C000F006C001F082
:100F4C00000E06BEFF0E026E036E003600900136D8
:100F5C000236033600360090013602360336D40EC4
:100F6C000024F66E450E0120F76E000E0220F86E7E
:100F7C000900F5CFEBF10900F5CFECF10900F5CF45
:100F8C00EDF10900F5CFEEF10A0E046EEAC100F0A6
:100F9C0052EC01F008C000F000C001F0000E00BEE1
:100FAC00FF0E026E036E046E01360190023603369C
:100FBC00043601360190023603360436D40E012471
:100FCC00F66E450E0220F76E000E0320F86E090037
:100FDC00F5CF00F00900F5CF01F00900F5CF02F0D4
:100FEC000900F5CF03F0EBC104F0ECC105F0EDC145
:100FFC0006F0EEC107F0DCEC01F027D0EAC100F0FE
:10100C00000EEABFFF0E016E026E036E00360090FA
:10101C0001360236033600360090013602360336AE
:10102C00D40E0024F66E450E0120F76E000E022041
:10103C00F86E0900F5CF00F00900F5CF01F00900BA
:0C104C00F5CF02F00900F5CF03F0120010
:101058000B6A0C6A0A6A086A0350D8B4B4EF08F03D
:10106800028E9E0E035E03BE3FEF08F0D8B43FEF3A
:1010780008F0A4EF08F0036C080E035CD8A071EF29
:1010880008F0036E083600C008F001C000F002C086
:1010980001F0026A080E035CD8A071EF08F0036E35
:1010A800083600C008F001C000F0016A080E035CB1
:1010B800D8A071EF08F0036E083600C008F0006A87
:1010C800080E035CD8A071EF08F0036E0836086AB2
:1010D8000350D8A4D8907DEF08F00350D8B47DEF22
:1010E80008F0D8900232013200320832032E75EF30
:1010F80008F00BBC08A08EEF08F0D8A08EEF08F01F
:10110800082AD8B4002AD8B4012AD8B4022A02BEC0
:10111800B8EF08F00AAEB4EF08F0021E011E001E78
:10112800081E082AD8B4002AD8B4012AD8B4022A3A
:10113800B4EF08F0026A016A006A086AB4EF08F0BE
:101148000B800BAEBEEF08F0026A0AAEBEEF08F0E5
:10115800026E016E006E086E0A360232BEEF08F0AB
:10116800000E0C6ABFEF08F0010E0C6E7FEC04F065
:10117800BFEF08F0FF0E0250036E0150026E0050E0
:08118800016E0850006E120018
:08119000067E6CEC02F0120077
:101198000050086E0150006E0250016E0350026E3E
:1011A800036A0B6A0C6A9E0E036E0A6A020E0C6EC4
:0611B80061EC00F01200E2
:1011BE000B6A0A6A096A00500402F4CF09F0F3CFF1
:1011CE0008F001500502F4CF0BF0F3CF0AF00050F7
:1011DE000502F3500926F4500A22E86A0B22015048
:1011EE000402F3500926F4500A22E86A0B2208C0C2
:1011FE0000F009C001F00AC002F00BC003F01200AB
:10120E000101EA51390806E3300EEA5D03E3010EEF
:08121E00006E01D0006A12000D
:101226000A6A0350D8A40A800750D8A40A820A5032
:10123600D8B476EF09F0030AD8B42FEF09F00AB054
:101246002AEF09F006AE74EF09F072EF09F002AE6C
:1012560072EF09F074EF09F00250800B0A6E029EDD
:101266000650800B069E0A18D8B440EF09F00A50C3
:10127600D8B472EF09F074EF09F00750035CD8B4E4
:101286004AEF09F0D8A066EF09F06CEF09F00650B6
:10129600025CD8B454EF09F0D8A066EF09F06CEF01
:1012A60009F00550015CD8B45EEF09F0D8A066EFEE
:1012B60009F06CEF09F00450005CD8B476EF09F041
:1012C600D8B06CEF09F00A52D8B474EF09F072EF97
:1012D60009F00A52D8B472EF09F074EF09F0D88019
:0E12E6001200D8901200D880D8841200120096
:1012F4000450000A08E10550000A05E1FF0E006EE3
:101304007F0E016E58D00D6A096A086A01500010F8
:10131400D8B4000C015005180A6E0ABE0D1E0B6AE3
:1013240005AE05D0041E051E042AD8B4052A01AE54
:1013340005D0001E011E002AD8B4012A0150051050
:101344000A6E0ABE10D0A1EC01F00BB020D00DAE95
:10135400000C001E011E002AD8B4012A081E091E12
:10136400082AD8B4092A000C05AE0DD001BE07D056
:101374000150096E0050086E016A006AE8D7016ADC
:10138400006A002A000C011E001E0B2ADDD7082A61
:10139400D8B4092A0450085CD8A4D9D70550095CEC
:1013A400D8A4D5D7096A086A002AD8B4012A01AE9C
:0813B400CED70000FF0C12006F
:1013BC0003500718D8A4F2EF09F002500618D8A46D
:1013CC00F2EF09F001500518D8A4F2EF09F0005023
:0E13DC000418D8B4D8841200D894120012005D
:1013EA000B6A0C6A086A0350D8B479EF0AF002C093
:1013FA000AF0028E9E0E035E03AE69EF0AF0036CDA
:10140A00080E035CD8A036EF0AF0036E083600C057
:10141A0008F001C000F002C001F0026A080E035C85
:10142A00D8A036EF0AF0036E083600C008F001C0F3
:10143A0000F0016A080E035CD8A036EF0AF0036ECA
:10144A00083600C008F0006A080E035CD8A036EF20
:10145A000AF0036E0836086A0350D8A4D89042EFFF
:10146A000AF00350D8B442EF0AF0D890023201329F
:10147A0000320832032E3AEF0AF00BBC08A053EFF1
:10148A000AF0D8A053EF0AF0082AD8B4002AD8B430
:10149A00012AD8B4022A02BE7DEF0AF00AAE79EF19
:1014AA000AF0021E011E001E081E082AD8B4002ACD
:1014BA00D8B4012AD8B4022A79EF0AF0026A016A7A
:1014CA00006A086A79EF0AF00B800BAE84EF0AF023
:1014DA00026A0AAE84EF0AF0026E016E006E086EAE
:1014EA000A36023284EF0AF00C6A000E85EF0AF01F
:1014FA00010E0C6E000E7FEC04F085EF0AF0FF0E71
:10150A000250036E0150026E0050016E0850006EC8
:02151A001200BD
:10151C006E0E0101EA5DD8A0CAD0640E046EEAC159
:10152C0000F0CDEC01F0120E0024056E066A000EE0
:10153C00062205C000F006C001F0000E06BEFF0E2C
:10154C00026E036E0036009001360236033600360A
:10155C000090013602360336A00E0024F66E450EBE
:10156C000120F76E000E0220F86E0900F5CF00F096
:10157C000900F5CF01F00900F5CF02F00900F5CF15
:10158C0003F0000E046E000E056E000E066E7E0E4D
:10159C00076EDCEC01F000C0EBF101C0ECF102C015
:1015AC00EDF103C0EEF1640E046EEAC100F0CDEC77
:1015BC0001F008C000F00A0E046ECDEC01F0090E2B
:1015CC000024056E066A000E062205C000F006C057
:1015DC0001F0000E06BEFF0E026E036E0036009088
:1015EC0001360236033600360090013602360336D9
:1015FC00A00E0024F66E450E0120F76E000E0220A0
:10160C00F86E0900F5CF00F00900F5CF01F00900E4
:10161C00F5CF02F00900F5CF03F0EBC104F0ECC1FB
:10162C0005F0EDC106F0EEC107F0DCEC01F000C0F6
:10163C00EBF101C0ECF102C0EDF103C0EEF10A0ECA
:10164C00046EEAC100F0CDEC01F008C000F000C05F
:10165C0001F0000E026E036E046E0136019002362C
:10166C000336043601360190023603360436A00EDA
:10167C000124F66E450E0220F76E000E0320F86E64
:10168C000900F5CF00F00900F5CF01F00900F5CF06
:10169C0002F00900F5CF03F0EBC104F0ECC105F04A
:1016AC00EDC106F0EEC107F0DCEC01F0B1D0EA516F
:1016BC000A08D8B07ED00A0E046EEAC100F0CDEC58
:1016CC0001F0090E0024056E066A000E062205C004
:1016DC0000F006C001F0000E06BEFF0E026E036E97
:1016EC000036009001360236033600360090013683
:1016FC0002360336A00E0024F66E450E0120F76E5E
:10170C00000E0220F86E0900F5CF00F00900F5CFAD
:10171C0001F00900F5CF02F00900F5CF03F0000E3F
:10172C00046E000E056E000E066E7E0E076EDCEC6F
:10173C0001F000C0EBF101C0ECF102C0EDF103C00F
:10174C00EEF10A0E046EEAC100F0CDEC01F008C017
:10175C0000F000C001F0000E026E036E046E013644
:10176C0001900236033604360136019002360336F8
:10177C000436A00E0124F66E450E0220F76E000E04
:10178C000320F86E0900F5CF00F00900F5CF01F049
:10179C000900F5CF02F00900F5CF03F0EBC104F01E
:1017AC00ECC105F0EDC106F0EEC107F0DCEC01F088
:1017BC002FD0EAC100F0000E016E026E036E0036EF
:1017CC0000900136023603360036009001360236A0
:1017DC000336A00E0024F66E450E0120F76E000EA7
:1017EC000220F86E0900F5CF00F00900F5CF01F0EA
:1017FC000900F5CF02F00900F5CF03F0000E046EDE
:10180C00000E056E000E066E7E0E076EDCEC01F00F
:02181C001200B8
:10181E000B6A0A6A096A086A0E6A033408360450AB
:10182E00085E0550D8A0053C095E0650D8A0063CBF
:10183E000A5E0750D8A0073C0B5EE86AD8A0010EDE
:10184E000E5E0336070E0C6E0334083609360A3662
:10185E000B360E36045003A012D0085E0550D8A0E9
:10186E00053C095E0650D8A0063C0A5E0750D8A07B
:10187E00073C0B5EE86AD8A0010E0E5E11D008265A
:10188E000550D8B0053C09260650D8B0063C0A26AD
:10189E000750D8B0073C0B26E86AD8B0010E0E26CA
:1018AE0003360C2ED1D70234083609360A360B36DB
:1018BE000E36045003A012D0085E0550D8A0053C89
:1018CE00095E0650D8A0063C0A5E0750D8A0073C19
:1018DE000B5EE86AD8A0010E0E5E11D008260550E8
:1018EE00D8B0053C09260650D8B0063C0A2607504B
:1018FE00D8B0073C0B26E86AD8B0010E0E26023689
:10190E00070E0C6E0234083609360A360B360E36C2
:10191E00045002A012D0085E0550D8A0053C095E06
:10192E000650D8A0063C0A5E0750D8A0073C0B5EB6
:10193E00E86AD8A0010E0E5E11D008260550D8B068
:10194E00053C09260650D8B0063C0A260750D8B0EA
:10195E00073C0B26E86AD8B0010E0E2602360C2E76
:10196E00D1D70134083609360A360B360E360450F6
:10197E0002A012D0085E0550D8A0053C095E0650A4
:10198E00D8A0063C0A5E0750D8A0073C0B5EE86A5A
:10199E00D8A0010E0E5E11D008260550D8B0053C19
:1019AE0009260650D8B0063C0A260750D8B0073C88
:1019BE000B26E86AD8B0010E0E260136070E0C6E05
:1019CE000134083609360A360B360E36045001A09D
:1019DE0012D0085E0550D8A0053C095E0650D8A06E
:1019EE00063C0A5E0750D8A0073C0B5EE86AD8A0FA
:1019FE00010E0E5E11D008260550D8B0053C092602
:101A0E000650D8B0063C0A260750D8B0073C0B2625
:101A1E00E86AD8B0010E0E2601360C2ED1D700344E
:101A2E00083609360A360B360E36045001A012D08F
:101A3E00085E0550D8A0053C095E0650D8A0063CAD
:101A4E000A5E0750D8A0073C0B5EE86AD8A0010ECC
:101A5E000E5E11D008260550D8B0053C092606505A
:101A6E00D8B0063C0A260750D8B0073C0B26E86AC9
:101A7E00D8B0010E0E260036070E0C6E0034083656
:101A8E0009360A360B360E36045000A012D0085E08
:101A9E000550D8A0053C095E0650D8A0063C0A5E4B
:101AAE000750D8A0073C0B5EE86AD8A0010E0E5E68
:101ABE0011D008260550D8B0053C09260650D8B0DE
:101ACE00063C0A260750D8B0073C0B26E86AD8B069
:101ADE00010E0E2600360C2ED1D700B00ED00450BB
:101AEE0008260550D8B0053C09260650D8B0063C4D
:0C1AFE000A260750D8B0073C0B26120047
:101B0A000101E26BE36BD66BD76BC4C100F0C5C1B0
:101B1A0001F0C6C102F0010EC427000EC523C62378
:101B2A0000C0F6FF01C0F7FF02C0F8FF0900F5CFB9
:101B3A0000F000C0D3F10052D8B493EF1DF0D35196
:101B4A00250A0BE0C2C1E1FFC3C1E2FFD3C1E6FF30
:101B5A00C24BC32BE24BE32BD8D7D46BD56BD66BD6
:101B6A00D76B23D0D687010EC427000EC523C62300
:101B7A0059D0D681010EC427000EC523C62352D0E0
:101B8A00D683010EC427000EC523C6234BD0D787A0
:101B9A00010EC427000EC523C62344D0D685010EE4
:101BAA00C427000EC523C6233DD0C4C1F6FFC5C154
:101BBA00F7FFC6C1F8FF0900F5CF01F001502D0A61
:101BCA00D1E0C4C1F6FFC5C1F7FFC6C1F8FF0900DD
:101BDA00F5CF01F00150200ACCE0C4C1F6FFC5C11F
:101BEA00F7FFC6C1F8FF0900F5CF01F001502B0A33
:101BFA00C7E0C4C1F6FFC5C1F7FFC6C1F8FF0900B7
:101C0A00F5CF01F00150230AC2E0C4C1F6FFC5C1F5
:101C1A00F7FFC6C1F8FF0900F5CF01F00150300AFD
:101C2A00BDE001D09ED7D6A301D0D691D6A701D0C8
:101C3A00D695C4C1F6FFC5C1F7FFC6C1F8FF0900B2
:101C4A00F5CF00F0000E016E00C0EAF107EC09F0D2
:101C5A00005236E0D46BD56BD4C100F0D5C101F087
:101C6A000A0E046E000E056EDFEC08F0C4C1F6FF22
:101C7A00C5C1F7FFC6C1F8FF0900F5CF02F002504F
:101C8A000024D46F000E0120D56F300ED45F000EF1
:101C9A00D55B010EC427000EC523C623C4C1F6FFB7
:101CAA00C5C1F7FFC6C1F8FF0900F5CF00F0000E65
:101CBA00016E00C0EAF107EC09F00052CDE133D021
:101CCA00C4C1F6FFC5C1F7FFC6C1F8FF0900F5CFC9
:101CDA0001F001502A0A27E1C7C1E9FFC8C1EAFF9A
:101CEA00EECF00F0EECF01F000C0E9FF01C0EAFF3D
:101CFA00EECFD4F1EECFD5F1C7C1E9FFC8C1EAFFF3
:101D0A00020EEE24006E000EEE20016EC7C1E1FF46
:101D1A00C8C1E2FF00C0E6FF01C0E6FF010EC4270A
:101D2A00000EC523C623C4C1F6FFC5C1F7FFC6C14D
:101D3A00F8FF0900F5CF01F001502E0A70E1010EFB
:101D4A00C427000EC523C623C4C1F6FFC5C1F7FFC9
:101D5A00C6C1F8FF0900F5CF01F001502A0A28E1AF
:101D6A00C7C1E9FFC8C1EAFFEECF00F0EECF01F02C
:101D7A0000C0E9FF01C0EAFFEECFD1F1EECFD2F108
:101D8A00C7C1E9FFC8C1EAFF020EEE24006E000EC9
:101D9A00EE20016EC7C1E1FFC8C1E2FF00C0E6FF45
:101DAA0001C0E6FF010EC427000EC523C62336D0A4
:101DBA00D16BD26BC4C1F6FFC5C1F7FFC6C1F8FF2C
:101DCA000900F5CF00F0000E016E00C0EAF107EC41
:101DDA0009F0005223E0D1C100F0D2C101F00A0E8D
:101DEA00046E000E056EDFEC08F0C4C1F6FFC5C133
:101DFA00F7FFC6C1F8FF0900F5CF02F00250002430
:101E0A00D16F000E0120D26F300ED15F000ED25B6F
:101E1A00010EC427000EC523C623CCD703D0D16B2D
:101E2A00D26BD789C4C100F0C5C101F0C6C102F0A6
:101E3A00010EC427000EC523C62300C0F6FF01C049
:101E4A00F7FF02C0F8FF0900F5CFD3F1F9D0E2C1DC
:101E5A0000F0E3C101F097EF1DF0D689E3D7D785EB
:101E6A002ED1D68BD7812BD1D78329D1D68D27D105
:101E7A0026D1D68BD68F23D1C7C1E9FFC8C1EAFFC5
:101E8A00EECF00F0EECF01F000C0E9FF01C0EAFF9B
:101E9A00EECFDEF1EECFDFF1C7C1E9FFC8C1EAFF3D
:101EAA00020EEE24006E000EEE20016EC7C1E1FFA5
:101EBA00C8C1E2FF00C0E6FF01C0E6FF000EDF195D
:101ECA0002E1000EDE1904E1320EDE6F010EDF6F51
:101EDA00E06BE16BE051DE25E96EE151DF21EA6E4C
:101EEA00EE520BE0010EE025006E000EE121016EBC
:101EFA0000C0E0F101C0E1F1EDD7D151D2110AE001
:101F0A00E151D25D02E1E051D15D04E2D1C1E0F1DB
:101F1A00D2C1E1F1D551E15D02E1D451E05D05E2C2
:101F2A00E051D45FE151D55B02D0D46BD56BD6B703
:101F3A0016D0D4C100F0D5C101F0010ED45F000E55
:101F4A00D55B005001100BE0C2C1E1FFC3C1E2FF43
:101F5A00200EE66EC24BC32BE24BE32BEAD7E0C15D
:101F6A0002F0E1C103F0010EE05D006E000EE159DE
:101F7A00016E00C0E0F101C0E1F10250031019E066
:101F8A00DEC1E9FFDFC1EAFFC2C1E1FFC3C1E2FF6F
:101F9A00EECFE6FFC24BC32B010EDE25006E000E0C
:101FAA00DF21016E00C0DEF101C0DFF1E24BE32B5D
:101FBA00D6D7D6A716D0D4C100F0D5C101F0010EEC
:101FCA00D45F000ED55B005001100BE0C2C1E1FFE7
:101FDA00C3C1E2FF200EE66EC24BC32BE24BE32BDA
:101FEA00EAD793D5C7C1E9FFC8C1EAFFEECF00F02F
:101FFA00EECF01F000C0E9FF01C0EAFFEECFD3F156
:10200A00C7C1E9FFC8C1EAFF020EEE24006E000E46
:10201A00EE20016EC7C1E1FFC8C1E2FF00C0E6FFC2
:10202A0001C0E6FFD30EDE6F010EDF6F010EE06F17
:10203A00000EE16F62D7C00ED613000ED7133FD041
:10204A00D351000AD8B403D7D3516C0AD8B405D7F0
:10205A00D3514C0AD8B401D7D351660AD8B4FFD6A3
:10206A00D351450AD8B4FDD6D351650AD8B4FAD6A5
:10207A00D351670AD8B4F8D6D3516F0AD8B4F6D672
:10208A00D351640AD8B4F4D6D351690AD8B4F0D675
:10209A00D351700AD8B4EDD6D351580AD8B4E9D678
:1020AA00D351780AD8B4E6D6D351730AD8B4E4D651
:1020BA00D351630A97E0D351750ABDE0B3D7000E36
:1020CA00D615006ED751070B016E00500110D8B417
:1020DA003AEF19F0D7A904D0060ED16F000ED26FCD
:1020EA00C7C1E9FFC8C1EAFFEECF00F0EECF01F0A9
:1020FA0000C0E9FF01C0EAFFEECFD8F1EECFD9F177
:10210A00EECFDAF1EECFDBF1C7C1E9FFC8C1EAFFD2
:10211A00040EEE24006E000EEE20016EC7C1E1FF30
:10212A00C8C1E2FF00C0E6FF01C0E6FF046A056A13
:10213A00066A076AD8C100F0D9C101F0DAC102F013
:10214A00DBC103F013EC09F0010ED8B0000E006EEB
:10215A00005205E0DA7F030ED613000ED713DC6BAC
:10216A00DD6BD8C100F0D9C101F0DAC102F0DBC1E0
:10217A0003F0046A056A066A076ADEEC09F0000ED3
:10218A00D8A4010E006E0052D8B48AD0DBC100F088
:10219A00016A026A036AFF0E0016000E01167E0E1D
:1021AA00005E000E015A00C0DCF101C0DDF1010E33
:1021BA00005E000E015A00C0DCF101C0DDF1030E21
:1021CA00046E000E056EDFEC08F000C0DCF101C001
:1021DA00DDF10A0E046E000E056E7AEC09F000C0FD
:1021EA00DCF101C0DDF1800E0118026E800E025C86
:1021FA0002E1000E005C05E2010E0101DC5F000E47
:10220A00DD5B0101DC510008EA6F4EEC05F0D8C134
:10221A0004F0D9C105F0DAC106F0DBC107F0DCEC45
:10222A0001F000C0DEF101C0DFF102C0E0F103C03D
:10223A00E1F1000E046E000E056E000E066E7F0EB2
:10224A00076EDEC100F0DFC101F0E0C102F0E1C1BA
:10225A0003F013EC09F0010ED8B0000E006E005224
:10226A0005E0010EDC5F000EDD5B1AD0000E046E85
:10227A00000E056E200E066E820E076EDEC100F09D
:10228A00DFC101F0E0C102F0E1C103F013EC09F093
:10229A00000ED8B0010E006E005202E0DC4BDD2BBE
:1022AA00800E006E800EDD19005C02E1DC51000830
:1022BA0003E3010ED36F02D0DCC1D3F1D7B118D03A
:1022CA00D7A315D0800EDD19006E7F0E005C02E1E7
:1022DA00FC0EDC5D0BE3800EDD19006E800ED21958
:1022EA00005C02E1D151DC5D01E201D001D0EFD303
:1022FA00D151D21106E0D7A304D0010ED15F000E4E
:10230A00D25BD251000802E1D151080803E2080E5B
:10231A00D36F02D0D1C1D3F1D8C100F0D9C101F035
:10232A00DAC102F0DBC103F0046A056A066A076AC9
:10233A00DEEC09F0000ED8A4010E006E0052D8B4EB
:10234A004BD1DCC1EAF14EEC05F000C004F001C04B
:10235A0005F002C006F003C007F0D8C100F0D9C1E9
:10236A0001F0DAC102F0DBC103F091EC04F000C025
:10237A00D8F101C0D9F102C0DAF103C0DBF10101E1
:10238A00D3510008EA6F4EEC05F000C004F001C01A
:10239A0005F002C006F003C007F0D8C100F0D9C1A9
:1023AA0001F0DAC102F0DBC103F091EC04F000C0E5
:1023BA00E4F101C0E5F102C0E6F103C0E7F1E4C1CE
:1023CA00D8F1E5C1D9F1E6C1DAF1E7C1DBF1E4C13F
:1023DA0000F0E5C101F0E6C102F0E7C103F02CEC20
:1023EA0008F0CCEC08F000C004F001C005F002C00F
:1023FA0006F003C007F0E4C100F0E5C101F0E6C150
:10240A0002F0E7C103F0C8EC08F0000E046E000EFB
:10241A00056E000E066E7E0E076E13EC09F0000EB6
:10242A00D8B0010E006E00521AE0D8C100F0D9C12E
:10243A0001F0DAC102F0DBC103F0000E046E000EF7
:10244A00056E000E066E7E0E076E6CEC02F000C082
:10245A00D8F101C0D9F102C0DAF103C0DBF1D8C169
:10246A0000F0D9C101F0DAC102F0DBC103F02CECB3
:10247A0008F00101D351010F096E0A6A000E0A22FF
:10248A0009C004F00AC005F0000E0ABEFF0E066E6F
:10249A00076E04360490053606360736043604906D
:1024AA00053606360736380E0424F66E460E052023
:1024BA00F76E000E0620F86E0900F5CF05F0090048
:1024CA00F5CF06F00900F5CF07F00900F5CF08F0BF
:1024DA000850035C08E10750025C05E10650015C04
:1024EA0002E10550005C1EE30101D8C100F0D9C128
:1024FA0001F0DAC102F0DBC103F0CD0E046ECC0E9E
:10250A00056E4C0E066E7B0E076EDCEC01F000C009
:10251A00D8F101C0D9F102C0DAF103C0DBF1DC4B1A
:10252A00DD2B5AD0D8C100F0D9C101F0DAC102F0CE
:10253A00DBC103F02CEC08F0D3C104F0000E056EE9
:10254A00066E076E043604900536063607360436DC
:10255A000490053606360736380E0424F66E460E03
:10256A000520F76E000E0620F86E0900F5CF05F07B
:10257A000900F5CF06F00900F5CF07F00900F5CFFD
:10258A0008F00850035C08E10750025C05E10650B8
:10259A00015C02E10550005C1FE20101D8C100F0B4
:1025AA00D9C101F0DAC102F0DBC103F0000E046EFA
:1025BA00000E056E200E066E820E076EDCEC01F030
:1025CA0000C0D8F101C0D9F102C0DAF103C0DBF1D1
:1025DA00010EDC5F000EDD5B0101D7A393D0D7B7F4
:1025EA0091D0800E000A006E800ED219005C02E1C2
:1025FA00D1510A0804E20A0ED16F000ED26FD8C177
:10260A0000F0D9C101F0DAC102F0DBC103F02CEC11
:10261A0008F000C0DEF101C0DFF102C0E0F103C042
:10262A00E1F1DE51DF11E011E11142E00A0E046E20
:10263A00000E056E066E076EDEC100F0DFC101F006
:10264A00E0C102F0E1C103F00FEC0CF008C000F0A9
:10265A0009C001F00AC002F00BC003F0000E046EBC
:10266A00031808E10450021805E10450011802E1B8
:10267A000050000A1DE1010ED15F000ED25B0A0E66
:10268A00046E000E056E066E076EDEC100F0DFC135
:10269A0001F0E0C102F0E1C103F00FEC0CF000C060
:1026AA00DEF101C0DFF102C0E0F103C0E1F1B9D708
:1026BA00800ED219006E800E005C02E1D351D15D0A
:1026CA0021E2D151D35DEA6F4EEC05F000C004F06F
:1026DA0001C005F002C006F003C007F0D8C100F03F
:1026EA00D9C101F0DAC102F0DBC103F091EC04F0C8
:1026FA0000C0D8F101C0D9F102C0DAF103C0DBF1A0
:10270A00D1C1D3F1050E0101D125006E000ED221EF
:10271A00016E0050D45F0150D55BD151D21103E153
:10272A00D7B701D004D0010ED45F000ED55B030EDB
:10273A00D615006ED7C101F0000E01160050011027
:10274A0004E0010ED45F000ED55BD6A539D0D6A31E
:10275A0012D0D6A103D02D0EC96F02D02B0EC96F8D
:10276A00C2C1E1FFC3C1E2FFC9C1E6FFC24BC32B2D
:10277A00E24BE32B0CD0D6A10AD0C2C1E1FFC3C100
:10278A00E2FF200EE66EC24BC32BE24BE32B800E18
:10279A00006E800ED519005C02E1D45100080FE2E8
:1027AA00C2C1E1FFC3C1E2FF300EE66EC24BC32BCA
:1027BA00E24BE32B010ED45F000ED55BE8D73AD08B
:1027CA00D6B718D0800E006E800ED519005C02E1D3
:1027DA00D45100080FE2C2C1E1FFC3C1E2FF200EDB
:1027EA00E66EC24BC32BE24BE32B010ED45F000E05
:1027FA00D55BE8D7D6A312D0D6A103D02D0ECA6FC7
:10280A0002D02B0ECA6FC2C1E1FFC3C1E2FFCAC127
:10281A00E6FFC24BC32BE24BE32B0CD0D6A10AD066
:10282A00C2C1E1FFC3C1E2FF200EE66EC24BC32B59
:10283A00E24BE32BD8C100F0D9C101F0DAC102F0B2
:10284A00DBC103F02CEC08F000C0DEF101C0DFF1BF
:10285A0002C0E0F103C0E1F1D3C100F0000E016E45
:10286A00026E036E003600900136023603360036D9
:10287A000090013602360336380E0024F66E460EF4
:10288A000120F76E000E0220F86E0900F5CF04F061
:10289A000900F5CF05F00900F5CF06F00900F5CFDC
:1028AA0007F0DEC100F0DFC101F0E0C102F0E1C1D2
:1028BA0003F00FEC0CF0300E0026C2C1E1FFC3C1D9
:1028CA00E2FF00C0E6FFC24BC32BE24BE32BD15120
:1028DA00D21103E1D7B701D06FD0C2C1E1FFC3C1A2
:1028EA00E2FF2E0EE66EC24BC32BE24BE32BD35113
:1028FA00D15F000ED25BD3534DE0D307D3C100F0B2
:10290A00000E016E026E036E00360090013602362A
:10291A00033600360090013602360336380E00249C
:10292A00F66E460E0120F76E000E0220F86E0900C0
:10293A00F5CF04F00900F5CF05F00900F5CF06F050
:10294A000900F5CF07F0DEC100F0DFC101F0E0C1F8
:10295A0002F0E1C103F00FEC0CF00A0E046E000E57
:10296A00056E066E076E0FEC0CF008C000F009C089
:10297A0001F00AC002F00BC003F0300E0026C2C1FB
:10298A00E1FFC3C1E2FF00C0E6FFC24BC32BE24B2B
:10299A00E32BB1D7D151D2110FE0C2C1E1FFC3C1BC
:1029AA00E2FF300EE66EC24BC32BE24BE32B010E65
:1029BA00D15F000ED25BEED7D6AB0BD0C2C1E1FF1E
:1029CA00C3C1E2FF450EE66EC24BC32BE24BE32BBB
:1029DA000AD0C2C1E1FFC3C1E2FF650EE66EC24B77
:1029EA00C32BE24BE32B800EDD19006E800E005CD8
:1029FA0002E1000EDC5D11E2DC510008DC6FDD5102
:102A0A00000EDD57C2C1E1FFC3C1E2FF2D0EE66E23
:102A1A00C24BC32BE24BE32B0AD0C2C1E1FFC3C1B5
:102A2A00E2FF2B0EE66EC24BC32BE24BE32B0A0EE0
:102A3A00046E000E056EDCC100F0DDC101F07AEC17
:102A4A0009F0300E0026C2C1E1FFC3C1E2FF00C097
:102A5A00E6FF0101C24BC32BE24BE32B0A0E046EC5
:102A6A00000E056EDCC100F0DDC101F07AEC09F060
:102A7A0008C000F009C001F0300E0026C2C1E1FF13
:102A8A00C3C1E2FF00C0E6FF0101C24BC32BE24B08
:102A9A00E32BD6A71AD0800E006E800ED519005CE3
:102AAA0002E1D451000811E2C2C1E1FFC3C1E2FF51
:102ABA00200EE66EC24BC32BE24BE32B010ED45F12
:102ACA00000ED55BD451D511EFE18AEF0DF0D7A3F3
:102ADA00F3D0800EDD19006E800E005C02E1000E5C
:102AEA00DC5D0AE2010EDC5D006E000EDD59016E4E
:102AFA000050D15F0150D25BD8C100F0D9C101F0BA
:102B0A00DAC102F0DBC103F02CEC08F000C0DEF100
:102B1A0001C0DFF102C0E0F103C0E1F1010ED36FA1
:102B2A00D3510A0A34E0D3C100F0000E016E026EDE
:102B3A00036E0036009001360236033600360090E6
:102B4A00013602360336380E0024F66E460E012090
:102B5A00F76E000E0220F86E0900F5CF01F00900A9
:102B6A00F5CF02F00900F5CF03F00900F5CF04F024
:102B7A000450E15D08E10350E05D05E10250DF5DCC
:102B8A0002E10150DE5D01E202D0D32BC9D7D35155
:102B9A00D15DE86F000ED259E96FE8C1D1F1E9C100
:102BAA00D2F1DEC100F0DFC101F0E0C102F0E1C103
:102BBA0003F0CCEC08F000C004F001C005F002C03C
:102BCA0006F003C007F0D8C100F0D9C101F0DAC19C
:102BDA0002F0DBC103F0C8EC08F000C0E4F101C068
:102BEA00E5F102C0E6F103C0E7F1E8C1EAF14EEC13
:102BFA0005F0E4C104F0E5C105F0E6C106F0E7C15D
:102C0A0007F0DCEC01F0000E046E000E056E000EFB
:102C1A00066E7E0E076E6CEC02F02CEC08F000C01B
:102C2A00DEF101C0DFF102C0E0F103C0E1F1D151F0
:102C3A00D21142E00A0E046E000E056E066E076E91
:102C4A00DEC100F0DFC101F0E0C102F0E1C103F032
:102C5A000FEC0CF008C000F009C001F00AC002F045
:102C6A000BC003F0000E046E031808E104500218AA
:102C7A0005E10450011802E10050000A1DE10A0EA4
:102C8A00046E000E056E066E076EDEC100F0DFC12F
:102C9A0001F0E0C102F0E1C103F00FEC0CF000C05A
:102CAA00DEF101C0DFF102C0E0F103C0E1F1010E83
:102CBA00D15F000ED25BBBD7800E006E800ED21998
:102CCA00005C02E1D1510C0816E3D1C1EAF18EECA5
:102CDA000AF0D8C104F0D9C105F0DAC106F0DBC1A7
:102CEA0007F06CEC02F000C0D8F101C0D9F102C0C3
:102CFA00DAF103C0DBF1D8C100F0D9C101F0DAC1C1
:102D0A0002F0DBC103F0046A056A066A076ADEECB0
:102D1A0009F0000ED8A4010E006E0052D8B477D084
:102D2A00D8C100F0D9C101F0DAC102F0DBC103F069
:102D3A002CEC08F0000E046E031808E10450021887
:102D4A0005E10450011802E10050000A60E1800E1A
:102D5A00006E800EDD19005C02E1DC51010857E2C9
:102D6A00DCC1EAF14EEC05F000C004F001C005F048
:102D7A0002C006F003C007F0D8C100F0D9C101F0C3
:102D8A00DAC102F0DBC103F091EC04F05F0E046ECD
:102D9A00700E056E090E066E810E076E13EC09F0B1
:102DAA00010ED8B0000E006E005206E0090E0101B5
:102DBA00DC5F000EDD5B05D00101080EDC5F000E52
:102DCA00DD5BDCC1EAF14EEC05F000C004F001C0A5
:102DDA0005F002C006F003C007F0D8C100F0D9C15F
:102DEA0001F0DAC102F0DBC103F091EC04F02CEC43
:102DFA0008F000C0DEF101C0DFF102C0E0F103C05B
:102E0A00E1F10101D86BD96BDA6BDB6B38D0D8C131
:102E1A0000F0D9C101F0DAC102F0DBC103F02CECF9
:102E2A0008F000C0DEF101C0DFF102C0E0F103C02A
:102E3A00E1F1DEC100F0DFC101F0E0C102F0E1C161
:102E4A0003F0CCEC08F000C004F001C005F002C0A9
:102E5A0006F003C007F0D8C100F0D9C101F0DAC109
:102E6A0002F0DBC103F0C8EC08F000C0D8F101C0E1
:102E7A00D9F102C0DAF103C0DBF1DC6BDD6B010EC4
:102E8A00D36FD3510A0A34E0D3C100F0000E016EA9
:102E9A00026E036E003600900136023603360036A3
:102EAA000090013602360336380E0024F66E460EBE
:102EBA000120F76E000E0220F86E0900F5CF01F02E
:102ECA000900F5CF02F00900F5CF03F00900F5CFAC
:102EDA0004F00450E15D08E10350E05D05E10250B1
:102EEA00DF5D02E10150DE5D01E202D0D32BC9D7DA
:102EFA00D351D125006E000ED221016EDC5100267D
:102F0A00DD5101220050D45F0150D55BD7B704D000
:102F1A00D151D21101E104D0010ED45F000ED55B6C
:102F2A00030ED615006ED7C101F0000E011600502F
:102F3A00011004E0010ED45F000ED55BD6A539D08E
:102F4A00D6A312D0D6A103D02D0ECB6F02D02B0E52
:102F5A00CB6FC2C1E1FFC3C1E2FFCBC1E6FFC24BE7
:102F6A00C32BE24BE32B0CD0D6A10AD0C2C1E1FF9E
:102F7A00C3C1E2FF200EE66EC24BC32BE24BE32B2A
:102F8A00800E006E800ED519005C02E1D451000853
:102F9A000FE2C2C1E1FFC3C1E2FF300EE66EC24BCF
:102FAA00C32BE24BE32B010ED45F000ED55BE8D7AF
:102FBA003AD0D6B718D0800E006E800ED519005CB4
:102FCA0002E1D45100080FE2C2C1E1FFC3C1E2FF2E
:102FDA00200EE66EC24BC32BE24BE32B010ED45FED
:102FEA00000ED55BE8D7D6A312D0D6A103D02D0EFA
:102FFA00CC6F02D02B0ECC6FC2C1E1FFC3C1E2FF7E
:10300A00CCC1E6FFC24BC32BE24BE32B0CD0D6A1BB
:10301A000AD0C2C1E1FFC3C1E2FF200EE66EC24B75
:10302A00C32BE24BE32BD3C100F0D30700524CE091
:10303A00D3C100F0000E016E026E036E00360090DE
:10304A000136023603360036009001360236033660
:10305A00380E0024F66E460E0120F76E000E02208E
:10306A00F86E0900F5CF04F00900F5CF05F0090064
:10307A00F5CF06F00900F5CF07F0DEC100F0DFC199
:10308A0001F0E0C102F0E1C103F00FEC0CF00A0E0E
:10309A00046E000E056E066E076E0FEC0CF008C08B
:1030AA0000F009C001F00AC002F00BC003F0300EB4
:1030BA000026C2C1E1FFC3C1E2FF00C0E6FFC24B66
:1030CA00C32BE24BE32BAFD7800E006E800EDD19C7
:1030DA00005C02E1DC5100080FE2C2C1E1FFC3C19A
:1030EA00E2FF300EE66EC24BC32BE24BE32B010E1E
:1030FA00DC5F000EDD5BE8D7800E000A006E800EF2
:10310A00D219005C02E1D151080803E2080ED36F1C
:10311A0002D0D1C1D3F1D351D15F000ED25BD353C8
:10312A0003E1D7B701D00AD0C2C1E1FFC3C1E2FFB0
:10313A002E0EE66EC24BC32BE24BE32BD3C1EAF150
:10314A004EEC05F0D8C104F0D9C105F0DAC106F099
:10315A00DBC107F0DCEC01F0F5EC09F000C0DEF1B0
:10316A0001C0DFF102C0E0F103C0E1F1D3534DE049
:10317A00D307D3C100F0000E016E026E036E003653
:10318A0000900136023603360036009001360236C8
:10319A000336380E0024F66E460E0120F76E000E36
:1031AA000220F86E0900F5CF04F00900F5CF05F00A
:1031BA000900F5CF06F00900F5CF07F0DEC100F0EF
:1031CA00DFC101F0E0C102F0E1C103F00FEC0CF045
:1031DA000A0E046E000E056E066E076E0FEC0CF0FA
:1031EA0008C000F009C001F00AC002F00BC003F0E9
:1031FA00300E0026C2C1E1FFC3C1E2FF00C0E6FFF4
:10320A00C24BC32BE24BE32BB1D7D151D2110FE002
:10321A00C2C1E1FFC3C1E2FF300EE66EC24BC32B4F
:10322A00E24BE32B010ED15F000ED25BEED7D6A79D
:10323A001AD0800E006E800ED519005C02E1D451BE
:10324A00000811E2C2C1E1FFC3C1E2FF200EE66E2F
:10325A00C24BC32BE24BE32B010ED45F000ED55BAE
:10326A00D451D511EFE18AEF0DF0C00ED615016EDB
:10327A00D7C102F0000E0216000E021802E1000E7B
:10328A000118D8A480D0D6A927D0C7C1E9FFC8C1E0
:10329A00EAFFEECF00F0EECF01F000C0E9FF01C077
:1032AA00EAFFEECFDEF1EECFDFF1EECFE0F1EECFC7
:1032BA00E1F1C7C1E9FFC8C1EAFF040EEE24006EBE
:1032CA00000EEE20016EC7C1E1FFC8C1E2FF00C0D7
:1032DA00E6FF01C0E6FF2FD0C7C1E9FFC8C1EAFF78
:1032EA00EECF00F0EECF01F000C0E9FF01C0EAFF27
:1032FA00EECF00F0EECF01F0000E01BEFF0E026E1F
:10330A00036E00C0DEF101C0DFF102C0E0F103C0CC
:10331A00E1F1C7C1E9FFC8C1EAFF020EEE24006E5F
:10332A00000EEE20016EC7C1E1FFC8C1E2FF00C076
:10333A00E6FF01C0E6FF800EE119006E800E005C18
:10334A0008E1000EE05D05E1000EDF5D02E1000E1E
:10335A00DE5D18E2030ED613000ED713006A016A67
:10336A00026A036ADE51005EDF51015AE051025AD5
:10337A00E151035A00C0DEF101C0DFF102C0E0F101
:10338A0003C0E1F14ED0D6A927D0C7C1E9FFC8C111
:10339A00EAFFEECF00F0EECF01F000C0E9FF01C076
:1033AA00EAFFEECFDEF1EECFDFF1EECFE0F1EECFC6
:1033BA00E1F1C7C1E9FFC8C1EAFF040EEE24006EBD
:1033CA00000EEE20016EC7C1E1FFC8C1E2FF00C0D6
:1033DA00E6FF01C0E6FF25D0C7C1E9FFC8C1EAFF81
:1033EA00EECF00F0EECF01F000C0E9FF01C0EAFF26
:1033FA00EECFDEF1EECFDFF1000EE06FE16FC7C175
:10340A00E9FFC8C1EAFF020EEE24006E000EEE20AC
:10341A00016EC7C1E1FFC8C1E2FF00C0E6FF01C0FB
:10342A00E6FF000ED21902E1000ED1190FE1000EDB
:10343A00006EE11908E10050E01905E10050DF19BA
:10344A0002E1DE51000A02E1D14BD22BC00ED615A1
:10345A00006E00C005F0AED0010ED36FD3510A0A38
:10346A0034E0D3C100F0000E016E026E036E003626
:10347A0000900136023603360036009001360236D5
:10348A000336380E0024F66E460E0120F76E000E43
:10349A000220F86E0900F5CF01F00900F5CF02F01D
:1034AA000900F5CF03F00900F5CF04F00450E15DFF
:1034BA0008E10350E05D05E10250DF5D02E10150E1
:1034CA00DE5D01E202D0D32BC9D782D0010ED36FC1
:1034DA00D351080A34E0D3C100F0000E016E026E27
:1034EA00036E00360090013602360336003600902D
:1034FA00013602360336600E0024F66E460E0120AF
:10350A00F76E000E0220F86E0900F5CF01F00900EF
:10351A00F5CF02F00900F5CF03F00900F5CF04F06A
:10352A000450E15D08E10350E05D05E10250DF5D12
:10353A0002E10150DE5D01E202D0D32BC9D748D0A7
:10354A00010ED36FD3510C0A34E0D3C100F0000E40
:10355A00016E026E036E00360090013602360336A3
:10356A0000360090013602360336080E0024F66E45
:10357A00460E0120F76E000E0220F86E0900F5CF04
:10358A0001F00900F5CF02F00900F5CF03F00900B8
:10359A00F5CF04F00450E15D08E10350E05D05E178
:1035AA000250DF5D02E10150DE5D01E202D0D32B61
:1035BA00C9D70ED00550000AD8B44ED70550C00A54
:1035CA00D8B44AD70550800A81E00550400AB8E0CD
:1035DA00800E006E800ED219005C02E1D151D35DDB
:1035EA0003E2D1C1D3F10DD0800ED219006E800E44
:1035FA00005C02E1D351D15D04E2D3C1D1F1000EE6
:10360A00D26FD451D5110EE0030ED615006ED7C174
:10361A0001F0000E01160050011004E0010ED45F03
:10362A00000ED55B800ED219006E800ED519005C93
:10363A0002E1D451D15D05E2D151D45FD251D55BBB
:10364A0002D0D46BD56BC40ED615016ED751080BB8
:10365A00026E0250080A02E1400E011808E1D45134
:10366A00D51104E0010ED45F000ED55B1CD0C00E4C
:10367A00D615016ED751080B026E0250080A02E1F4
:10368A00800E011810E1800E006E800ED519005CC4
:10369A0002E1D451020805E2020ED45F000ED55BA6
:1036AA0002D0D46BD56BD6A55DD0D6A312D0D6A145
:1036BA0003D02D0ECD6F02D02B0ECD6FC2C1E1FF0C
:1036CA00C3C1E2FFCDC1E6FFC24BC32BE24BE32BE2
:1036DA0034D0D6A10BD0C2C1E1FFC3C1E2FF200E94
:1036EA00E66EC24BC32BE24BE32B27D0C00ED61596
:1036FA00016ED751080B026E0250080A02E1800ED1
:10370A0001181BE1C2C1E1FFC3C1E2FF300EE66E40
:10371A00C24BC32BE24BE32BD6AB03D0580ECE6F72
:10372A0002D0780ECE6FC2C1E1FFC3C1E2FFCEC1A3
:10373A00E6FFC24BC32BE24BE32BD451D51111E068
:10374A00C2C1E1FFC3C1E2FF300EE66EC24BC32B1A
:10375A00E24BE32B010ED45F000ED55BD451D51199
:10376A00EFE174D0D451D51113E0D6B711D0C2C14C
:10377A00E1FFC3C1E2FF200EE66EC24BC32BE24B50
:10378A00E32B010ED45F000ED55BD451D511EFE1C6
:10379A00D6A312D0D6A103D02D0ECF6F02D02B0EF6
:1037AA00CF6FC2C1E1FFC3C1E2FFCFC1E6FFC24B87
:1037BA00C32BE24BE32B0CD0D6A10AD0C2C1E1FF46
:1037CA00C3C1E2FF200EE66EC24BC32BE24BE32BD2
:1037DA00C00ED615016ED751080B026E0250080AA8
:1037EA0002E1400E01180BE1C2C1E1FFC3C1E2FFD1
:1037FA00300EE66EC24BC32BE24BE32B27D0C00E32
:10380A00D615016ED751080B026E0250080A02E162
:10381A00800E01181BE1C2C1E1FFC3C1E2FF300EF5
:10382A00E66EC24BC32BE24BE32BD6AB03D0580E4A
:10383A00D06F02D0780ED06FC2C1E1FFC3C1E2FFE0
:10384A00D0C1E6FFC24BC32BE24BE32B800E006EC6
:10385A00800ED219005C02E1D151D35D0BE2C2C1E4
:10386A00E1FFC3C1E2FF300EE66EC24BC32BE24B4F
:10387A00E32BECD7D1C100F0D2C101F0010ED15F28
:10388A00000ED25B00500110D8B42AD1C00ED61552
:10389A00006E00C0E4F10AD1D1C100F0D2C101F03A
:1038AA00000ED2BFFF0E026E036E00360090013684
:1038BA000236033600360090013602360336380ED9
:1038CA000024F66E460E0120F76E000E0220F86EF6
:1038DA000900F5CF04F00900F5CF05F00900F5CF8E
:1038EA0006F00900F5CF07F0DEC100F0DFC101F0F4
:1038FA00E0C102F0E1C103F00FEC0CF00A0E046E15
:10390A00000E056E066E076E0FEC0CF008C000F094
:10391A0009C001F00AC002F00BC003F0300E002407
:10392A00D36FD3D0D6AB45D0D1C100F0D2C101F00C
:10393A00000ED2BFFF0E026E036E003600900136F3
:10394A000236033600360090013602360336600E20
:10395A000024F66E460E0120F76E000E0220F86E65
:10396A000900F5CF04F00900F5CF05F00900F5CFFD
:10397A0006F00900F5CF07F0DEC100F0DFC101F063
:10398A00E0C102F0E1C103F00FEC0CF00F0E0016DB
:10399A00000E011602160316910E0024F66E460E4C
:1039AA000120F76E000E0220F86E0900F5CFD3F160
:1039BA0044D0D1C100F0D2C101F0000ED2BFFF0E37
:1039CA00026E036E00360090013602360336003668
:1039DA000090013602360336600E0024F66E460E5B
:1039EA000120F76E000E0220F86E0900F5CF04F0F0
:1039FA000900F5CF05F00900F5CF06F00900F5CF6B
:103A0A0007F0DEC100F0DFC101F0E0C102F0E1C160
:103A1A0003F00FEC0CF00F0E0016000E0116021642
:103A2A000316800E0024F66E460E0120F76E000E75
:103A3A000220F86E0900F5CFD3F147D0D1C100F0CA
:103A4A00D2C101F0000ED2BFFF0E026E036E003625
:103A5A0000900136023603360036009001360236EF
:103A6A000336080E0024F66E460E0120F76E000E8D
:103A7A000220F86E0900F5CF04F00900F5CF05F031
:103A8A000900F5CF06F00900F5CF07F0DEC100F016
:103A9A00DFC101F0E0C102F0E1C103F00FEC0CF06C
:103AAA00070E0014D36F300ED3270FD0E451000A4B
:103ABA00D8B4F2D6E451C00AD8B4EED6E451800A9A
:103ACA00D8B430D7E451400AB9E0C2C1E1FFC3C15A
:103ADA00E2FFD3C1E6FFC24BC32BE24BE32BCAD6AC
:103AEA00D6A71AD0800E006E800ED519005C02E1AE
:103AFA00D451000811E2C2C1E1FFC3C1E2FF200EA6
:103B0A00E66EC24BC32BE24BE32B010ED45F000ED1
:103B1A00D55BD451D511EFE18AEF0DF0E2C100F087
:063B2A00E3C101F01200EE
:0C3B30009EB801D0FDD7C2C1ADFF12004D
:103B3C00ABA202D0AB98AB889EBA01D0FDD7AECF6A
:043B4C0000F0120073
:103B5000B7C1E9FFB8C1EAFFEE500101B91905E1AB
:103B6000B7C100F0B8C101F010D0B7C100F0B8C1C2
:103B700001F0B74BB82B00C0E9FF01C0EAFFEECF60
:0C3B800000F00052E5E1006A016A12004A
:103B8C00040E0C6E3A0E0D6E0D2EFED70C2EFCD7BD
:043B9C000000120013
:103BA0000101B96BBA6BBB6BC9DF0101BA4BBB2B0F
:103BB000B951B725D96E000EB821DA6E0050DE1863
:103BC00002E1B92B01D0B96BB951B725E96E000EEE
:103BD000B821EA6EEE50000AE7E1BAC100F0BBC1BD
:043BE00001F01200DE
:103BE400BC0E0101C06F010EC16FB7C1C2F1B8C1F3
:103BF400C3F1B9C1C4F1BAC1C5F1BBC1C6F1C00EAC
:103C0400C76F010EC86F85EC0DF000C0BEF101C096
:103C1400BFF10050B725E16E0150B821E26EE66AAB
:0A3C2400BEC100F0BFC101F01200A4
:103C2E00BBC100F00101BB07005228E0B7C1E9FF9C
:103C3E00B8C1EAFFEE50000A0CE0B7C1E9FFB8C107
:103C4E00EAFFB9C1D9FFBAC1DAFFEE50DE1801E1C1
:103C5E000FD0B7C1E9FFB8C1EAFFB9C1D9FFBAC1E8
:103C6E00DAFFDE50EE5C006E016A000E015A08D0DB
:103C7E000101B74BB82BB94BBA2BD2D7006A016AE8
:023C8E00120022
:103C9000B7C1E9FFB8C1EAFFEE50000A0BE0B7C1B7
:103CA000E9FFB8C1EAFFEECFC2F142DF0101B74B35
:063CB000B82BEED7120054
:103CB600B7C102F0B8C103F002C000F003C001F0C2
:103CC600024A032A00C0E9FF01C0EAFFEE5201E002
:103CD600F3D70101B751025C006EB8510358016E6B
:0A3CE600010E005E000E015A1200EC
:103CF000190E0101B76F000EB86FCADF0101AD5395
:103D000004E0310EC26F14DF04D0300E0101C26F27
:103D10000FDF1D0E0101B76F000EB86FB9DF2F0E58
:0C3D20000101B76F000EB86F3BDF12000E
:103D2C00550E0101B76F000EB86FACDF300E0101FC
:103D3C00AD25C26FF7DE600E0101B76F000EB86FD4
:103D4C00A1DF470E0101B76F000EB86F23DF120021
:103D5C00320E0101B76F000EB86F94DF260E010111
:103D6C00B76F000EB86F16DF290EB76F000EB86F65
:043D7C0011DF120041
:103D80000900F5CFE6FF0006FBE10106F9E11200AC
:103D9000FF0E01019C6FFF0E9D6FFF0E9E6FFF0EC9
:103DA0009F6FE80EA06F3D0EA16F000EA26F000E78
:103DB000A36FFF0EA46FFF0EA56F000EA66F000E7F
:103DC000A76FFF0EA86FFF0EA96F000EAA6F000E5F
:103DD000AB6FAC8A900EAB6E948E949C9EAA03D06F
:083DE000AECF00F0FBD712008A
:103DE800AECF01F0ABA202D0AB98AB8801C000F017
:023DF8001200B7
:103DFA000101B36BAFC101F0010E006E015004E086
:103E0A0000360090FF0FFBD700C0B2F1ADC1E9FF49
:103E1A00AEC1EAFF0050EE14016E0152010ED8A4A1
:103E2A00000E006EB151001A18E0B051000804E209
:103E3A00A8DEA7DEB007F9D7ADC1E9FFAEC1EAFF38
:103E4A00B251EE14016E0152010ED8A4000E006E9A
:103E5A00B151001A02E0FF0EB36FB3C100F01200B5
:103E6A00000E0101AE1902E1000EAD1934E0ADC138
:103E7A00E9FFAEC1EAFFEE522EE0AFC1B7F1B0C121
:103E8A00B8F114DF00C0BBF1ADC1B7F1AEC1B8F1F2
:103E9A00AFC1B9F1B0C1BAF1C5DE000E011802E135
:103EAA00000E001805E1ADC100F0AEC101F015D059
:103EBA00010E0101AD25B76F000EAE21B86FAFC17B
:103ECA00E9FFB0C1EAFFEECFB9F13DDE00C0ADF1C6
:0C3EDA0001C0AEF1C5D7006A016A1200F9
:103EE600630E0101B76F010EB86FCFDE050E01013B
:0A3EF600B76F010EB86F51DE120025
:103F0000ADC102F0AEC103F0B0C100F0B1C101F02B
:103F1000010E0101B05F000EB15B0050011009E01D
:103F200002C0E1FF03C0E2FFAFC1E6FF024A032A7D
:0C3F3000EBD7ADC100F0AEC101F01200F3
:103F3C00630E0101B76F000EB86FA4DE330E0B6E6B
:103F4C00BB0E0C6EDF0E0D6E0D2EFED70C2EFCD79D
:0A3F5C000B2EFAD70000000012003F
:103F6600220E0101B76F010EB86F8FDE080E010138
:0A3F7600B76F010EB86F11DE1200E4
:103F80004A0E0101B76F000EB86F82DE690E0101A3
:103F9000B76F000EB86F7CDE6C0E0101B76F000EBC
:103FA000B86FFEDDCBDD00503E0A01E0FBD712000A
:103FB0000101B26BB36BB46BB56BB66B4E0EB76FE2
:103FC000010EB86F65DE0101AD51010A06E1410E37
:103FD000B76F010EB86F5CDE06D03D0E0101B76F02
:103FE000010EB86F55DE390E0101B76F010EB86FC3
:103FF0004FDEAEC1B7F1AFC1B8F14ADE450E0101E7
:10400000B76F010EB86F44DEB20E0101B76F010E3B
:10401000B86FBA0EB96F460EBA6F000EBB6FB0C163
:10402000BCF1B1C1BDF1DEDDB20EB76F010EB86FEC
:104030002FDE480E0101B76F010EB86F29DE4B0E5F
:0C4040000101B76F010EB86FABDD12007C
:10404C00170E0101B76F010EB86F1CDEADC1B7F1D1
:10405C00AEC1B8F117DE130E0101B76F010EB86FC8
:10406C0011DEAFC1B7F1B0C1B8F10CDE5F0E0101CA
:10407C00B76F010EB86F06DE5C0E0101B76F010E53
:06408C00B86F88DD120090
:104092003B0E0101B76F000EB86FF9DD300E010162
:1040A200AD25C26F44DD200E0101B76F000EB86F5F
:1040B200EEDD230E0101B76F000EB86F70DD120046
:1040C200ADC1E9FFAEC1EAFFEE520BE0ADC1E9FFBF
:1040D200AEC1EAFFEECFC2F12ADD0101AD4BAE2B3C
:0440E200EFD7120002
:1040E6005FEC23F00F0EC16E070EB412816A8A6A66
:1040F600938093829384846A8D6A9690969296941E
:1041060095908390826A8B6A9490B886020EB06E00
:10411600080EAF6EAC8439DE030E0B6E8A0E0C6E83
:10412600550E0D6E0D2EFED70C2EFCD70B2EFAD784
:10413600000000008290030E0B6E8A0E0C6E550E68
:104146000D6E0D2EFED70C2EFCD70B2EFAD70000C7
:10415600000082801A0E0B6E5E0E0C6E6E0E0D6ED9
:104166000D2EFED70C2EFCD70B2EFAD70000F3DD52
:10417600AD6BBBDDB5DE010EAD6FD5DDAE0EAD6F41
:10418600000EAE6F790EAF6F000EB06F5CDF010EE2
:10419600AD6F8D0EAE6F000EAF6F900EB06F1F0E2F
:1041A600B16F03DF8380010EAD6F70DFE6DE9E9A8E
:1041B6009D8AF28EF28C01016991810EAD6F0F0E10
:1041C600AE6FAF6B0A0EB06FB16B14DE005224E017
:1041D600810EAD6F0F0EAE6FAF6B0A0EB06FB16B87
:1041E60009DE005201E0F4D70001D34BD42B6A0E4E
:1041F6000101B76F010EB86FA20EB96F460EBA6F06
:10420600000EBB6FD3C0BCF1D4C0BDF1E8DC6A0EB2
:10421600AD6F010EAE6F52DF810E0101AD6F0F0E55
:10422600AE6F010EAF6F0A0EB06FB16BE3DD0052D9
:1042360025E0810EAD6F0F0EAE6F010EAF6F0A0E49
:10424600B06FB16BD7DD005201E0F3D70001674BC9
:10425600682B6A0E0101B76F010EB86FAA0EB96F0F
:10426600460EBA6F000EBB6F67C0BCF168C0BDF1E9
:10427600B6DC6A0EAD6F010EAE6F20DF810E010156
:10428600AD6F0F0EAE6F020EAF6F0A0EB06FB16B51
:10429600B1DD005223E0810EAD6F0F0EAE6F020E40
:1042A600AF6F0A0EB06FB16BA5DD005201E0F3D718
:1042B600304B312B6A0EB76F010EB86FB20EB96F65
:1042C600460EBA6F000EBB6F30C1BCF131C1BDF1F5
:1042D60086DC6A0EAD6F010EAE6FF0DE010169A1DC
:1042E600B2D069917E0EAD6F010EAE6F0B0EAF6F41
:1042F600010EB06FB7DD000E011802E1000E0018C6
:1043060008E08D80F30E0101AD6F000EAE6FD6DEB4
:104316008FD07E0E0101AD6F010EAE6FFD0EAF6F39
:10432600000EB06F9FDD000E011802E1000E0018AE
:1043360008E08D90E00E0101AD6F000EAE6FBEDE9F
:1043460077D07E0E0101AD6F010EAE6FEB0EAF6F33
:10435600000EB06F87DD000E011802E1000E001896
:1043660008E08D82C10E0101AD6F000EAE6FA6DEB4
:104376005FD07E0E0101AD6F010EAE6F9B0EAF6F6B
:10438600000EB06F6FDD000E011802E1000E00187E
:1043960008E08D92A30E0101AD6F000EAE6F8EDEAA
:1043A60047D07E0E0101AD6F010EAE6F710EAF6F7D
:1043B600000EB06F57DD000E011802E1000E001866
:1043C60008E08D84830E0101AD6F000EAE6F76DEC0
:1043D6002FD07E0E0101AD6F010EAE6FCB0EAF6F0B
:1043E600000EB06F3FDD000E011802E1000E00184E
:1043F60008E08D94D50E0101AD6F000EAE6F5EDE46
:1044060017D07E0E0101AD6F010EAE6F6F0EAF6F4E
:10441600000EB06F27DD000E011802E1000E001835
:1044260007E0F29E839087DD0101AD6B2FDE98DDFC
:1044360001017E0EAD6F010EAE6FAF6B1E0EB06F3B
:0A444600000EB16F5ADDB9D6FFD7A2
:1046BE0010EE19F0500E006E020E016E500EF66ED8
:0E46CE00440EF76E000EF86EC0EC1EF01200E7
:04445000415445008E
:034454000D0A004E
:034457000D0A004B
:03445A004F4B00C5
:03445D004F4B00C2
:0644600072656164790041
:034466004F4B00B9
:0944690041542B5253540D0A007A
:0C44720041542B4349504D4F44453D0040
:03447E004F4B00A1
:0B44810041542B43495053454E44006A
:0B448C0041542B43574D4F44453D0069
:034497000D0A000B
:04449A002B2B2B009D
:02449E0000001C
:0344A0000D0A0002
:0344A3004F4B007C
:0244A6005A00BA
:0844A800406C65325F6F6E008D
:0A44B000707174726932303032000E
:0A44BA00404C6C65325F6F6E260007
:0E44C4003139322E3136382E302E313233005F
:0844D200406C65315F6F66006C
:0B44DA00404C6C65315F6F6666260089
:1044E5004769616F5F746965705F6E676F61695F6A
:0344F500766900E5
:0A44F800404C6C65315F6F6E2600CA
:08450200406C65325F6F66003A
:02450A000000AF
:0B450C00404C6C65325F6F6666260055
:0B451700404C6C65305F6F666626004C
:08452200406C65315F6F6E0013
:0A452A00404C6C65305F6F6E260098
:08453400406C65305F6F66000A
:03453C004F4B00E2
:03453F004F4B00DF
:08454200406C65305F6F6E00F4
:04454A00222C2200FD
:0B454E0041542B43574A41503D2200CE
:0E45590041542B434950434C4F53450D0A002B
:02456700000052
:07456900286E756C6C29003F
:04457000222C2200D7
:04457400554450005A
:044578005443500058
:03457C00222C00EE
:03457F000D0A0022
:034582004F4B009C
:0E45850041542B43495053544152543D22009F
:034593004F4B008B
:04459600220D0A00E8
:05459A0041540D0A0070
:01459F00001B
:1045A0000000007FCDCC4C7B0AD723786F120375B7
:1045B00017B75171ACC5276EBD37066B95BF5667EF
:1045C00077CC2B645F700961FFE65B5D08E53C3CDE
:0445D0006042221B08
:1045D4000000007F000020820000488500007A88E7
:1045E40000401C8C0050438F0024749280961896CF
:1045F40020BC3E99286B6E9CF90215A0EC782DC165
:04460400CAF249E2CB
:104608000100000008000000400000000002000057
:1046180000100000008000000000040000002000DE
:104628000000000100000008000000400000000039
:10463800010000000A00000064000000E803000018
:1046480010270000A086010040420F0080969800C5
:0846580000E1F50500CA9A3BE0
:104660000100000010000000000100000010000028
:104670000000010000001000000000010000001018
:1046800030313233343536373839616263646566C8
:014690000029
:104691003031323334353637383941424344454677
:0146A1000018
:0846A2004053305F257526002E
:0846AA004053315F2575260025
:0846B2004053325F257526001C
:0346BA0025750063
:020000040030CA
:0E000000040C1F1EFF8381FF0FC00FE00F4096
:00000001FF
